{
  "_format": "hh-sol-artifact-1",
  "contractName": "GuardRegistry",
  "sourceName": "contracts/GuardRegistry.sol",
  "abi": [
    {
      "inputs": [
        {
          "internalType": "address",
          "name": "_transactionGuard",
          "type": "address"
        }
      ],
      "stateMutability": "nonpayable",
      "type": "constructor"
    },
    {
      "anonymous": false,
      "inputs": [
        {
          "indexed": true,
          "internalType": "address",
          "name": "previousOwner",
          "type": "address"
        },
        {
          "indexed": true,
          "internalType": "address",
          "name": "newOwner",
          "type": "address"
        }
      ],
      "name": "OwnershipTransferred",
      "type": "event"
    },
    {
      "anonymous": false,
      "inputs": [
        {
          "indexed": true,
          "internalType": "address",
          "name": "protocol",
          "type": "address"
        },
        {
          "indexed": false,
          "internalType": "string",
          "name": "reason",
          "type": "string"
        }
      ],
      "name": "ProtocolDeactivated",
      "type": "event"
    },
    {
      "anonymous": false,
      "inputs": [
        {
          "indexed": true,
          "internalType": "address",
          "name": "protocol",
          "type": "address"
        }
      ],
      "name": "ProtocolReactivated",
      "type": "event"
    },
    {
      "anonymous": false,
      "inputs": [
        {
          "indexed": true,
          "internalType": "address",
          "name": "protocol",
          "type": "address"
        },
        {
          "indexed": true,
          "internalType": "address",
          "name": "owner",
          "type": "address"
        },
        {
          "indexed": false,
          "internalType": "string",
          "name": "name",
          "type": "string"
        },
        {
          "indexed": false,
          "internalType": "string",
          "name": "category",
          "type": "string"
        }
      ],
      "name": "ProtocolRegistered",
      "type": "event"
    },
    {
      "anonymous": false,
      "inputs": [
        {
          "indexed": true,
          "internalType": "address",
          "name": "protocol",
          "type": "address"
        },
        {
          "indexed": false,
          "internalType": "string",
          "name": "threatType",
          "type": "string"
        },
        {
          "indexed": false,
          "internalType": "uint256",
          "name": "amount",
          "type": "uint256"
        }
      ],
      "name": "ThreatBlocked",
      "type": "event"
    },
    {
      "anonymous": false,
      "inputs": [
        {
          "indexed": true,
          "internalType": "address",
          "name": "protocol",
          "type": "address"
        },
        {
          "indexed": false,
          "internalType": "uint256",
          "name": "amount",
          "type": "uint256"
        }
      ],
      "name": "VolumeProtected",
      "type": "event"
    },
    {
      "inputs": [],
      "name": "activeProtocolCount",
      "outputs": [
        {
          "internalType": "uint256",
          "name": "",
          "type": "uint256"
        }
      ],
      "stateMutability": "view",
      "type": "function"
    },
    {
      "inputs": [
        {
          "internalType": "string",
          "name": "category",
          "type": "string"
        }
      ],
      "name": "addSupportedCategory",
      "outputs": [],
      "stateMutability": "nonpayable",
      "type": "function"
    },
    {
      "inputs": [
        {
          "internalType": "uint256",
          "name": "",
          "type": "uint256"
        }
      ],
      "name": "allProtocols",
      "outputs": [
        {
          "internalType": "address",
          "name": "",
          "type": "address"
        }
      ],
      "stateMutability": "view",
      "type": "function"
    },
    {
      "inputs": [
        {
          "internalType": "address",
          "name": "protocolAddress",
          "type": "address"
        },
        {
          "internalType": "string",
          "name": "reason",
          "type": "string"
        }
      ],
      "name": "deactivateProtocol",
      "outputs": [],
      "stateMutability": "nonpayable",
      "type": "function"
    },
    {
      "inputs": [
        {
          "internalType": "address",
          "name": "newGuard",
          "type": "address"
        }
      ],
      "name": "emergencyMigration",
      "outputs": [],
      "stateMutability": "nonpayable",
      "type": "function"
    },
    {
      "inputs": [],
      "name": "getAllProtocols",
      "outputs": [
        {
          "internalType": "address[]",
          "name": "",
          "type": "address[]"
        }
      ],
      "stateMutability": "view",
      "type": "function"
    },
    {
      "inputs": [
        {
          "internalType": "address",
          "name": "protocolAddress",
          "type": "address"
        }
      ],
      "name": "getProtocolInfo",
      "outputs": [
        {
          "internalType": "string",
          "name": "name",
          "type": "string"
        },
        {
          "internalType": "string",
          "name": "category",
          "type": "string"
        },
        {
          "internalType": "address",
          "name": "owner",
          "type": "address"
        },
        {
          "internalType": "uint256",
          "name": "registrationTime",
          "type": "uint256"
        },
        {
          "internalType": "bool",
          "name": "isActive",
          "type": "bool"
        },
        {
          "internalType": "uint256",
          "name": "protectedVolume",
          "type": "uint256"
        },
        {
          "internalType": "uint256",
          "name": "threatsBlocked",
          "type": "uint256"
        }
      ],
      "stateMutability": "view",
      "type": "function"
    },
    {
      "inputs": [
        {
          "internalType": "string",
          "name": "category",
          "type": "string"
        }
      ],
      "name": "getProtocolsByCategory",
      "outputs": [
        {
          "internalType": "address[]",
          "name": "",
          "type": "address[]"
        }
      ],
      "stateMutability": "view",
      "type": "function"
    },
    {
      "inputs": [],
      "name": "getRegistryStats",
      "outputs": [
        {
          "internalType": "uint256",
          "name": "totalProtocols",
          "type": "uint256"
        },
        {
          "internalType": "uint256",
          "name": "activeProtocols",
          "type": "uint256"
        },
        {
          "internalType": "uint256",
          "name": "totalVolume",
          "type": "uint256"
        },
        {
          "internalType": "uint256",
          "name": "totalThreats",
          "type": "uint256"
        },
        {
          "internalType": "uint256",
          "name": "categoriesSupported",
          "type": "uint256"
        }
      ],
      "stateMutability": "view",
      "type": "function"
    },
    {
      "inputs": [],
      "name": "getSupportedCategories",
      "outputs": [
        {
          "internalType": "string[]",
          "name": "",
          "type": "string[]"
        }
      ],
      "stateMutability": "view",
      "type": "function"
    },
    {
      "inputs": [
        {
          "internalType": "address",
          "name": "protocolAddress",
          "type": "address"
        }
      ],
      "name": "isProtocolActive",
      "outputs": [
        {
          "internalType": "bool",
          "name": "",
          "type": "bool"
        }
      ],
      "stateMutability": "view",
      "type": "function"
    },
    {
      "inputs": [],
      "name": "owner",
      "outputs": [
        {
          "internalType": "address",
          "name": "",
          "type": "address"
        }
      ],
      "stateMutability": "view",
      "type": "function"
    },
    {
      "inputs": [
        {
          "internalType": "string",
          "name": "",
          "type": "string"
        },
        {
          "internalType": "uint256",
          "name": "",
          "type": "uint256"
        }
      ],
      "name": "protocolsByCategory",
      "outputs": [
        {
          "internalType": "address",
          "name": "",
          "type": "address"
        }
      ],
      "stateMutability": "view",
      "type": "function"
    },
    {
      "inputs": [
        {
          "internalType": "string",
          "name": "",
          "type": "string"
        }
      ],
      "name": "protocolsByName",
      "outputs": [
        {
          "internalType": "address",
          "name": "",
          "type": "address"
        }
      ],
      "stateMutability": "view",
      "type": "function"
    },
    {
      "inputs": [
        {
          "internalType": "address",
          "name": "protocolAddress",
          "type": "address"
        }
      ],
      "name": "reactivateProtocol",
      "outputs": [],
      "stateMutability": "nonpayable",
      "type": "function"
    },
    {
      "inputs": [
        {
          "internalType": "address",
          "name": "protocolAddress",
          "type": "address"
        },
        {
          "internalType": "uint256",
          "name": "amount",
          "type": "uint256"
        }
      ],
      "name": "recordProtectedVolume",
      "outputs": [],
      "stateMutability": "nonpayable",
      "type": "function"
    },
    {
      "inputs": [
        {
          "internalType": "address",
          "name": "protocolAddress",
          "type": "address"
        },
        {
          "internalType": "string",
          "name": "threatType",
          "type": "string"
        },
        {
          "internalType": "uint256",
          "name": "amount",
          "type": "uint256"
        }
      ],
      "name": "recordThreatBlocked",
      "outputs": [],
      "stateMutability": "nonpayable",
      "type": "function"
    },
    {
      "inputs": [
        {
          "internalType": "address",
          "name": "protocolAddress",
          "type": "address"
        },
        {
          "internalType": "string",
          "name": "name",
          "type": "string"
        },
        {
          "internalType": "string",
          "name": "category",
          "type": "string"
        }
      ],
      "name": "registerProtocol",
      "outputs": [],
      "stateMutability": "nonpayable",
      "type": "function"
    },
    {
      "inputs": [
        {
          "internalType": "address",
          "name": "",
          "type": "address"
        }
      ],
      "name": "registeredProtocols",
      "outputs": [
        {
          "internalType": "address",
          "name": "protocolAddress",
          "type": "address"
        },
        {
          "internalType": "address",
          "name": "owner",
          "type": "address"
        },
        {
          "internalType": "string",
          "name": "name",
          "type": "string"
        },
        {
          "internalType": "string",
          "name": "category",
          "type": "string"
        },
        {
          "internalType": "uint256",
          "name": "registrationTime",
          "type": "uint256"
        },
        {
          "internalType": "bool",
          "name": "isActive",
          "type": "bool"
        },
        {
          "internalType": "uint256",
          "name": "protectedVolume",
          "type": "uint256"
        },
        {
          "internalType": "uint256",
          "name": "threatsBlocked",
          "type": "uint256"
        }
      ],
      "stateMutability": "view",
      "type": "function"
    },
    {
      "inputs": [],
      "name": "renounceOwnership",
      "outputs": [],
      "stateMutability": "nonpayable",
      "type": "function"
    },
    {
      "inputs": [
        {
          "internalType": "uint256",
          "name": "",
          "type": "uint256"
        }
      ],
      "name": "supportedCategories",
      "outputs": [
        {
          "internalType": "string",
          "name": "",
          "type": "string"
        }
      ],
      "stateMutability": "view",
      "type": "function"
    },
    {
      "inputs": [],
      "name": "totalProtectedVolume",
      "outputs": [
        {
          "internalType": "uint256",
          "name": "",
          "type": "uint256"
        }
      ],
      "stateMutability": "view",
      "type": "function"
    },
    {
      "inputs": [],
      "name": "totalThreatsBlocked",
      "outputs": [
        {
          "internalType": "uint256",
          "name": "",
          "type": "uint256"
        }
      ],
      "stateMutability": "view",
      "type": "function"
    },
    {
      "inputs": [],
      "name": "transactionGuard",
      "outputs": [
        {
          "internalType": "contract TransactionGuard",
          "name": "",
          "type": "address"
        }
      ],
      "stateMutability": "view",
      "type": "function"
    },
    {
      "inputs": [
        {
          "internalType": "address",
          "name": "newOwner",
          "type": "address"
        }
      ],
      "name": "transferOwnership",
      "outputs": [],
      "stateMutability": "nonpayable",
      "type": "function"
    }
  ],
  "bytecode": "0x60a06040523480156200001157600080fd5b50604051620024b9380380620024b98339810160408190526200003491620002d7565b6200003f3362000287565b600180556001600160a01b0381166200009e5760405162461bcd60e51b815260206004820181905260248201527f496e76616c6964205472616e73616374696f6e47756172642061646472657373604482015260640160405180910390fd5b6001600160a01b038116608052600680546001810182556000919091526040805180820190915260038152620888ab60eb1b60208201526000805160206200249983398151915290910190620000f59082620003ae565b50600680546001810182556000919091526040805180820190915260078152664c656e64696e6760c81b60208201526000805160206200249983398151915290910190620001449082620003ae565b5060068054600181018255600091909152604080518082019091526005815264165a595b1960da1b60208201526000805160206200249983398151915290910190620001919082620003ae565b506006805460018101825560009190915260408051808201909152600b81526a446572697661746976657360a81b60208201526000805160206200249983398151915290910190620001e49082620003ae565b5060068054600181018255600091909152604080518082019091526009815268496e737572616e636560b81b60208201526000805160206200249983398151915290910190620002359082620003ae565b50600680546001810182556000829052604080518082019091529182526542726964676560d01b60208301526000805160206200249983398151915201906200027f9082620003ae565b50506200047a565b600080546001600160a01b038381166001600160a01b0319831681178455604051919092169283917f8be0079c531659141344cd1fd0a4f28419497f9722a3daafe3b4186f6b6457e09190a35050565b600060208284031215620002ea57600080fd5b81516001600160a01b03811681146200030257600080fd5b9392505050565b634e487b7160e01b600052604160045260246000fd5b600181811c908216806200033457607f821691505b6020821081036200035557634e487b7160e01b600052602260045260246000fd5b50919050565b601f821115620003a957600081815260208120601f850160051c81016020861015620003845750805b601f850160051c820191505b81811015620003a55782815560010162000390565b5050505b505050565b81516001600160401b03811115620003ca57620003ca62000309565b620003e281620003db84546200031f565b846200035b565b602080601f8311600181146200041a5760008415620004015750858301515b600019600386901b1c1916600185901b178555620003a5565b600085815260208120601f198616915b828110156200044b578886015182559484019460019091019084016200042a565b50858210156200046a5787850151600019600388901b60f8161c191681555b5050505050600190811b01905550565b608051611ff5620004a4600039600081816103250152818161062a01526113cb0152611ff56000f3fe608060405234801561001057600080fd5b50600436106101735760003560e01c80638a201238116100de578063b02ff91111610097578063cc95b98511610071578063cc95b985146103ae578063d22618c1146103b7578063e1f32c0a146103ca578063f2fde38b146103df57600080fd5b8063b02ff91114610347578063b4185d471461037b578063b916e60b1461038e57600080fd5b80638a201238146102785780638da5cb5b1461029e5780639097a014146102c357806393d36686146102d65780639de0963d146102e9578063abb9fe521461032057600080fd5b80636c3f0754116101305780636c3f075414610215578063715018a61461022c578063741c53eb14610234578063783e905e146102495780637e352c311461025c5780638607f45e1461026557600080fd5b80630914364614610178578063282a6ff9146101a05780633cc5abf2146101b55780633e63350d146101c85780634f4cc61b146101ef578063549b56c614610202575b600080fd5b61018b6101863660046117e9565b6103f2565b60405190151581526020015b60405180910390f35b6101b36101ae3660046117e9565b6105a2565b005b6101b36101c3366004611804565b61061f565b6101db6101d63660046117e9565b610756565b604051610197989796959493929190611874565b6101b36101fd366004611926565b6108bb565b6101b3610210366004611979565b610a41565b61021e60085481565b604051908152602001610197565b6101b3610ac6565b61023c610ada565b60405161019791906119bb565b6101b3610257366004611a08565b610b3c565b61021e60075481565b6101b36102733660046117e9565b610ec1565b61028b6102863660046117e9565b61103a565b6040516101979796959493929190611a89565b6000546001600160a01b03165b6040516001600160a01b039091168152602001610197565b6102ab6102d1366004611ae2565b611225565b6102ab6102e4366004611b9e565b61124f565b600454600954600754600854600654604080519586526020860194909452928401919091526060830152608082015260a001610197565b6102ab7f000000000000000000000000000000000000000000000000000000000000000081565b6102ab610355366004611be3565b80516020818301810180516003825292820191909301209152546001600160a01b031681565b61023c610389366004611979565b611296565b6103a161039c366004611ae2565b611314565b6040516101979190611c20565b61021e60095481565b6101b36103c5366004611c33565b6113c0565b6103d26114f5565b6040516101979190611c8d565b6101b36103ed3660046117e9565b6115ce565b6001600160a01b03808216600090815260026020818152604080842081516101008101835281548716815260018201549096169286019290925291810180549394859490938401919061044490611cef565b80601f016020809104026020016040519081016040528092919081815260200182805461047090611cef565b80156104bd5780601f10610492576101008083540402835291602001916104bd565b820191906000526020600020905b8154815290600101906020018083116104a057829003601f168201915b505050505081526020016003820180546104d690611cef565b80601f016020809104026020016040519081016040528092919081815260200182805461050290611cef565b801561054f5780601f106105245761010080835404028352916020019161054f565b820191906000526020600020905b81548152906001019060200180831161053257829003601f168201915b505050918352505060048201546020820152600582015460ff1615156040820152600682015460608201526007909101546080918201528101519091501580159061059b57508060a001515b9392505050565b6105aa611647565b60006001600160a01b03167fc51a860d5f914f530481cf137fcb737c964766b9fcf05ab7dd88d96f66271f05604051610614906020808252601d908201527f456d657267656e6379206d6967726174696f6e20696e69746961746564000000604082015260600190565b60405180910390a250565b336001600160a01b037f000000000000000000000000000000000000000000000000000000000000000016146106ac5760405162461bcd60e51b815260206004820152602760248201527f4f6e6c79205472616e73616374696f6e47756172642063616e207265636f726460448201526620766f6c756d6560c81b60648201526084015b60405180910390fd5b6001600160a01b03821660009081526002602052604090206004810154158015906106db5750600581015460ff165b1561075157818160060160008282546106f49190611d3f565b92505081905550816007600082825461070d9190611d3f565b90915550506040518281526001600160a01b038416907f8f1f06470e0f2e7a586702d4c1e53521a1f98682110e687e5e337b6d0674a2079060200160405180910390a25b505050565b60026020819052600091825260409091208054600182015492820180546001600160a01b0392831694909216929161078d90611cef565b80601f01602080910402602001604051908101604052809291908181526020018280546107b990611cef565b80156108065780601f106107db57610100808354040283529160200191610806565b820191906000526020600020905b8154815290600101906020018083116107e957829003601f168201915b50505050509080600301805461081b90611cef565b80601f016020809104026020016040519081016040528092919081815260200182805461084790611cef565b80156108945780601f1061086957610100808354040283529160200191610894565b820191906000526020600020905b81548152906001019060200180831161087757829003601f168201915b505050506004830154600584015460068501546007909501549394919360ff909116925088565b6001600160a01b038316600090815260026020526040812060048101549091036109215760405162461bcd60e51b8152602060048201526017602482015276141c9bdd1bd8dbdb081b9bdd081c9959da5cdd195c9959604a1b60448201526064016106a3565b60018101546001600160a01b031633148061094657506000546001600160a01b031633145b6109835760405162461bcd60e51b815260206004820152600e60248201526d139bdd08185d5d1a1bdc9a5e995960921b60448201526064016106a3565b600581015460ff166109d75760405162461bcd60e51b815260206004820152601960248201527f50726f746f636f6c20616c726561647920696e6163746976650000000000000060448201526064016106a3565b60058101805460ff19169055600980549060006109f383611d52565b9190505550836001600160a01b03167fc51a860d5f914f530481cf137fcb737c964766b9fcf05ab7dd88d96f66271f058484604051610a33929190611d92565b60405180910390a250505050565b610a49611647565b80610a895760405162461bcd60e51b815260206004820152601060248201526f496e76616c69642063617465676f727960801b60448201526064016106a3565b600680546001810182556000919091527ff652222313e28459528d920b65115c16c04f3efc82aaedc97be59f3f377c0d3f01610751828483611df4565b610ace611647565b610ad860006116a1565b565b60606004805480602002602001604051908101604052809291908181526020018280548015610b3257602002820191906000526020600020905b81546001600160a01b03168152600190910190602001808311610b14575b5050505050905090565b610b446116f1565b6001600160a01b038516610b9a5760405162461bcd60e51b815260206004820152601860248201527f496e76616c69642070726f746f636f6c2061646472657373000000000000000060448201526064016106a3565b82610be05760405162461bcd60e51b8152602060048201526016602482015275141c9bdd1bd8dbdb081b985b59481c995c5d5a5c995960521b60448201526064016106a3565b610bea828261174a565b610c2d5760405162461bcd60e51b8152602060048201526014602482015273556e737570706f727465642063617465676f727960601b60448201526064016106a3565b6001600160a01b03851660009081526002602052604090206004015415610c965760405162461bcd60e51b815260206004820152601b60248201527f50726f746f636f6c20616c72656164792072656769737465726564000000000060448201526064016106a3565b60006001600160a01b031660038585604051610cb3929190611eb4565b908152604051908190036020019020546001600160a01b031614610d0e5760405162461bcd60e51b81526020600482015260126024820152712730b6b29030b63932b0b23c903a30b5b2b760711b60448201526064016106a3565b6001600160a01b038516600081815260026020819052604090912080546001600160a01b0319908116909317815560018101805490931633179092558101610d57858783611df4565b5060038101610d67838583611df4565b5042600482015560058101805460ff191660011790556040518690600390610d929088908890611eb4565b90815260405190819003602001812080546001600160a01b039384166001600160a01b031991821617909155600480546001810182556000919091527f8a35acfbc15ff81a39ae7d344fd709f28e8600b4aa8c65c6b64bfe7fe36bd19b018054938a169390911692909217909155600590610e109085908590611eb4565b908152604051602091819003820190208054600181018255600091825291812090910180546001600160a01b0319166001600160a01b0389161790556009805491610e5a83611ec4565b9190505550336001600160a01b0316866001600160a01b03167fbbd7a50d31703c07076e64367036362240313077b96e92a2acc6482f873eea0e87878787604051610ea89493929190611edd565b60405180910390a350610eba60018055565b5050505050565b6001600160a01b03811660009081526002602052604081206004810154909103610f275760405162461bcd60e51b8152602060048201526017602482015276141c9bdd1bd8dbdb081b9bdd081c9959da5cdd195c9959604a1b60448201526064016106a3565b60018101546001600160a01b0316331480610f4c57506000546001600160a01b031633145b610f895760405162461bcd60e51b815260206004820152600e60248201526d139bdd08185d5d1a1bdc9a5e995960921b60448201526064016106a3565b600581015460ff1615610fde5760405162461bcd60e51b815260206004820152601760248201527f50726f746f636f6c20616c72656164792061637469766500000000000000000060448201526064016106a3565b60058101805460ff1916600117905560098054906000610ffd83611ec4565b90915550506040516001600160a01b038316907f374781493594ac7972ff6373f6bdc712fad77df48543a5db1f64d08f0c6665f490600090a25050565b6001600160a01b0380821660009081526002602081815260408084208151610100810183528154871681526001820154909616928601929092529181018054606095869594859485948594859485949093929084019161109990611cef565b80601f01602080910402602001604051908101604052809291908181526020018280546110c590611cef565b80156111125780601f106110e757610100808354040283529160200191611112565b820191906000526020600020905b8154815290600101906020018083116110f557829003601f168201915b5050505050815260200160038201805461112b90611cef565b80601f016020809104026020016040519081016040528092919081815260200182805461115790611cef565b80156111a45780601f10611179576101008083540402835291602001916111a4565b820191906000526020600020905b81548152906001019060200180831161118757829003601f168201915b50505050508152602001600482015481526020016005820160009054906101000a900460ff1615151515815260200160068201548152602001600782015481525050905080604001518160600151826020015183608001518460a001518560c001518660e00151975097509750975097509750975050919395979092949650565b6004818154811061123557600080fd5b6000918252602090912001546001600160a01b0316905081565b8151602081840181018051600582529282019185019190912091905280548290811061127a57600080fd5b6000918252602090912001546001600160a01b03169150829050565b6060600583836040516112aa929190611eb4565b908152604080519182900360209081018320805480830285018301909352828452919083018282801561130657602002820191906000526020600020905b81546001600160a01b031681526001909101906020018083116112e8575b505050505090505b92915050565b6006818154811061132457600080fd5b90600052602060002001600091509050805461133f90611cef565b80601f016020809104026020016040519081016040528092919081815260200182805461136b90611cef565b80156113b85780601f1061138d576101008083540402835291602001916113b8565b820191906000526020600020905b81548152906001019060200180831161139b57829003601f168201915b505050505081565b336001600160a01b037f000000000000000000000000000000000000000000000000000000000000000016146114495760405162461bcd60e51b815260206004820152602860248201527f4f6e6c79205472616e73616374696f6e47756172642063616e207265636f7264604482015267207468726561747360c01b60648201526084016106a3565b6001600160a01b03841660009081526002602052604090206004810154158015906114785750600581015460ff165b15610eba5760078101805490600061148f83611ec4565b9091555050600880549060006114a483611ec4565b9190505550846001600160a01b03167f0427d94bd5642846b8bd70ae2aca6af55a8deac429ddbecdb81e80137f6caead8585856040516114e693929190611f0f565b60405180910390a25050505050565b60606006805480602002602001604051908101604052809291908181526020016000905b828210156115c557838290600052602060002001805461153890611cef565b80601f016020809104026020016040519081016040528092919081815260200182805461156490611cef565b80156115b15780601f10611586576101008083540402835291602001916115b1565b820191906000526020600020905b81548152906001019060200180831161159457829003601f168201915b505050505081526020019060010190611519565b50505050905090565b6115d6611647565b6001600160a01b03811661163b5760405162461bcd60e51b815260206004820152602660248201527f4f776e61626c653a206e6577206f776e657220697320746865207a65726f206160448201526564647265737360d01b60648201526084016106a3565b611644816116a1565b50565b6000546001600160a01b03163314610ad85760405162461bcd60e51b815260206004820181905260248201527f4f776e61626c653a2063616c6c6572206973206e6f7420746865206f776e657260448201526064016106a3565b600080546001600160a01b038381166001600160a01b0319831681178455604051919092169283917f8be0079c531659141344cd1fd0a4f28419497f9722a3daafe3b4186f6b6457e09190a35050565b6002600154036117435760405162461bcd60e51b815260206004820152601f60248201527f5265656e7472616e637947756172643a207265656e7472616e742063616c6c0060448201526064016106a3565b6002600155565b6000805b6006548110156117c3578383604051611768929190611eb4565b60405180910390206006828154811061178357611783611f33565b9060005260206000200160405161179a9190611f49565b6040518091039020036117b157600191505061130e565b806117bb81611ec4565b91505061174e565b5060009392505050565b80356001600160a01b03811681146117e457600080fd5b919050565b6000602082840312156117fb57600080fd5b61059b826117cd565b6000806040838503121561181757600080fd5b611820836117cd565b946020939093013593505050565b6000815180845260005b8181101561185457602081850181015186830182015201611838565b506000602082860101526020601f19601f83011685010191505092915050565b6001600160a01b03898116825288166020820152610100604082018190526000906118a18382018a61182e565b905082810360608401526118b5818961182e565b6080840197909752505092151560a084015260c083019190915260e090910152949350505050565b60008083601f8401126118ef57600080fd5b50813567ffffffffffffffff81111561190757600080fd5b60208301915083602082850101111561191f57600080fd5b9250929050565b60008060006040848603121561193b57600080fd5b611944846117cd565b9250602084013567ffffffffffffffff81111561196057600080fd5b61196c868287016118dd565b9497909650939450505050565b6000806020838503121561198c57600080fd5b823567ffffffffffffffff8111156119a357600080fd5b6119af858286016118dd565b90969095509350505050565b6020808252825182820181905260009190848201906040850190845b818110156119fc5783516001600160a01b0316835292840192918401916001016119d7565b50909695505050505050565b600080600080600060608688031215611a2057600080fd5b611a29866117cd565b9450602086013567ffffffffffffffff80821115611a4657600080fd5b611a5289838a016118dd565b90965094506040880135915080821115611a6b57600080fd5b50611a78888289016118dd565b969995985093965092949392505050565b60e081526000611a9c60e083018a61182e565b8281036020840152611aae818a61182e565b6001600160a01b0398909816604084015250506060810194909452911515608084015260a083015260c09091015292915050565b600060208284031215611af457600080fd5b5035919050565b634e487b7160e01b600052604160045260246000fd5b600082601f830112611b2257600080fd5b813567ffffffffffffffff80821115611b3d57611b3d611afb565b604051601f8301601f19908116603f01168101908282118183101715611b6557611b65611afb565b81604052838152866020858801011115611b7e57600080fd5b836020870160208301376000602085830101528094505050505092915050565b60008060408385031215611bb157600080fd5b823567ffffffffffffffff811115611bc857600080fd5b611bd485828601611b11565b95602094909401359450505050565b600060208284031215611bf557600080fd5b813567ffffffffffffffff811115611c0c57600080fd5b611c1884828501611b11565b949350505050565b60208152600061059b602083018461182e565b60008060008060608587031215611c4957600080fd5b611c52856117cd565b9350602085013567ffffffffffffffff811115611c6e57600080fd5b611c7a878288016118dd565b9598909750949560400135949350505050565b6000602080830181845280855180835260408601915060408160051b870101925083870160005b82811015611ce257603f19888603018452611cd085835161182e565b94509285019290850190600101611cb4565b5092979650505050505050565b600181811c90821680611d0357607f821691505b602082108103611d2357634e487b7160e01b600052602260045260246000fd5b50919050565b634e487b7160e01b600052601160045260246000fd5b8082018082111561130e5761130e611d29565b600081611d6157611d61611d29565b506000190190565b81835281816020850137506000828201602090810191909152601f909101601f19169091010190565b602081526000611c18602083018486611d69565b601f82111561075157600081815260208120601f850160051c81016020861015611dcd5750805b601f850160051c820191505b81811015611dec57828155600101611dd9565b505050505050565b67ffffffffffffffff831115611e0c57611e0c611afb565b611e2083611e1a8354611cef565b83611da6565b6000601f841160018114611e545760008515611e3c5750838201355b600019600387901b1c1916600186901b178355610eba565b600083815260209020601f19861690835b82811015611e855786850135825560209485019460019092019101611e65565b5086821015611ea25760001960f88860031b161c19848701351681555b505060018560011b0183555050505050565b8183823760009101908152919050565b600060018201611ed657611ed6611d29565b5060010190565b604081526000611ef1604083018688611d69565b8281036020840152611f04818587611d69565b979650505050505050565b604081526000611f23604083018587611d69565b9050826020830152949350505050565b634e487b7160e01b600052603260045260246000fd5b6000808354611f5781611cef565b60018281168015611f6f5760018114611f8457611fb3565b60ff1984168752821515830287019450611fb3565b8760005260208060002060005b85811015611faa5781548a820152908401908201611f91565b50505082870194505b5092969550505050505056fea2646970667358221220f8cdc0b46bb870f0b2678ebff810ca6beccb4c5f495056934f1dcf48f2f7b85364736f6c63430008130033f652222313e28459528d920b65115c16c04f3efc82aaedc97be59f3f377c0d3f",
  "linkReferences": {},
  "deployedLinkReferences": {}
}