{
  "_format": "hh-sol-artifact-1",
  "contractName": "OptimizedProtectedDEX",
  "sourceName": "contracts/OptimizedProtectedDEX.sol",
  "abi": [
    {
      "inputs": [
        {
          "internalType": "address",
          "name": "_transactionGuard",
          "type": "address"
        }
      ],
      "stateMutability": "nonpayable",
      "type": "constructor"
    },
    {
      "inputs": [],
      "name": "InsufficientAmount",
      "type": "error"
    },
    {
      "inputs": [],
      "name": "InsufficientLiquidity",
      "type": "error"
    },
    {
      "inputs": [],
      "name": "InvalidAmount",
      "type": "error"
    },
    {
      "inputs": [],
      "name": "InvalidToken",
      "type": "error"
    },
    {
      "inputs": [],
      "name": "PoolDoesNotExist",
      "type": "error"
    },
    {
      "inputs": [],
      "name": "TransactionBlocked",
      "type": "error"
    },
    {
      "inputs": [],
      "name": "TransferFailed",
      "type": "error"
    },
    {
      "anonymous": false,
      "inputs": [
        {
          "indexed": true,
          "internalType": "bytes32",
          "name": "poolId",
          "type": "bytes32"
        },
        {
          "indexed": true,
          "internalType": "address",
          "name": "provider",
          "type": "address"
        },
        {
          "indexed": false,
          "internalType": "uint128",
          "name": "amountA",
          "type": "uint128"
        },
        {
          "indexed": false,
          "internalType": "uint128",
          "name": "amountB",
          "type": "uint128"
        }
      ],
      "name": "LiquidityAdded",
      "type": "event"
    },
    {
      "anonymous": false,
      "inputs": [
        {
          "indexed": true,
          "internalType": "bytes32",
          "name": "poolId",
          "type": "bytes32"
        },
        {
          "indexed": true,
          "internalType": "address",
          "name": "provider",
          "type": "address"
        },
        {
          "indexed": false,
          "internalType": "uint128",
          "name": "amountA",
          "type": "uint128"
        },
        {
          "indexed": false,
          "internalType": "uint128",
          "name": "amountB",
          "type": "uint128"
        }
      ],
      "name": "LiquidityRemoved",
      "type": "event"
    },
    {
      "anonymous": false,
      "inputs": [
        {
          "indexed": true,
          "internalType": "bytes32",
          "name": "poolId",
          "type": "bytes32"
        },
        {
          "indexed": false,
          "internalType": "address",
          "name": "tokenA",
          "type": "address"
        },
        {
          "indexed": false,
          "internalType": "address",
          "name": "tokenB",
          "type": "address"
        }
      ],
      "name": "PoolCreated",
      "type": "event"
    },
    {
      "anonymous": false,
      "inputs": [
        {
          "indexed": true,
          "internalType": "bytes32",
          "name": "poolId",
          "type": "bytes32"
        },
        {
          "indexed": true,
          "internalType": "address",
          "name": "trader",
          "type": "address"
        },
        {
          "indexed": false,
          "internalType": "address",
          "name": "tokenIn",
          "type": "address"
        },
        {
          "indexed": false,
          "internalType": "uint128",
          "name": "amountIn",
          "type": "uint128"
        },
        {
          "indexed": false,
          "internalType": "uint128",
          "name": "amountOut",
          "type": "uint128"
        }
      ],
      "name": "Swap",
      "type": "event"
    },
    {
      "inputs": [],
      "name": "FEE_DENOMINATOR",
      "outputs": [
        {
          "internalType": "uint256",
          "name": "",
          "type": "uint256"
        }
      ],
      "stateMutability": "view",
      "type": "function"
    },
    {
      "inputs": [],
      "name": "FEE_RATE",
      "outputs": [
        {
          "internalType": "uint256",
          "name": "",
          "type": "uint256"
        }
      ],
      "stateMutability": "view",
      "type": "function"
    },
    {
      "inputs": [
        {
          "internalType": "bytes32",
          "name": "poolId",
          "type": "bytes32"
        },
        {
          "internalType": "uint128",
          "name": "amountA",
          "type": "uint128"
        },
        {
          "internalType": "uint128",
          "name": "amountB",
          "type": "uint128"
        },
        {
          "internalType": "uint128",
          "name": "minAmountA",
          "type": "uint128"
        },
        {
          "internalType": "uint128",
          "name": "minAmountB",
          "type": "uint128"
        }
      ],
      "name": "addLiquidity",
      "outputs": [],
      "stateMutability": "nonpayable",
      "type": "function"
    },
    {
      "inputs": [
        {
          "internalType": "address",
          "name": "tokenA",
          "type": "address"
        },
        {
          "internalType": "address",
          "name": "tokenB",
          "type": "address"
        }
      ],
      "name": "createPool",
      "outputs": [
        {
          "internalType": "bytes32",
          "name": "poolId",
          "type": "bytes32"
        }
      ],
      "stateMutability": "nonpayable",
      "type": "function"
    },
    {
      "inputs": [
        {
          "internalType": "bytes32",
          "name": "poolId",
          "type": "bytes32"
        },
        {
          "internalType": "address",
          "name": "tokenIn",
          "type": "address"
        },
        {
          "internalType": "uint128",
          "name": "amountIn",
          "type": "uint128"
        }
      ],
      "name": "getAmountOut",
      "outputs": [
        {
          "internalType": "uint128",
          "name": "amountOut",
          "type": "uint128"
        }
      ],
      "stateMutability": "view",
      "type": "function"
    },
    {
      "inputs": [],
      "name": "getDEXStats",
      "outputs": [
        {
          "internalType": "uint64",
          "name": "poolCount",
          "type": "uint64"
        },
        {
          "internalType": "uint64",
          "name": "swapCount",
          "type": "uint64"
        },
        {
          "internalType": "uint128",
          "name": "volume",
          "type": "uint128"
        },
        {
          "internalType": "uint128",
          "name": "fees",
          "type": "uint128"
        }
      ],
      "stateMutability": "view",
      "type": "function"
    },
    {
      "inputs": [
        {
          "internalType": "bytes32",
          "name": "poolId",
          "type": "bytes32"
        }
      ],
      "name": "getPoolInfo",
      "outputs": [
        {
          "internalType": "address",
          "name": "tokenA",
          "type": "address"
        },
        {
          "internalType": "address",
          "name": "tokenB",
          "type": "address"
        },
        {
          "internalType": "uint128",
          "name": "reserveA",
          "type": "uint128"
        },
        {
          "internalType": "uint128",
          "name": "reserveB",
          "type": "uint128"
        },
        {
          "internalType": "uint128",
          "name": "totalLiquidity",
          "type": "uint128"
        }
      ],
      "stateMutability": "view",
      "type": "function"
    },
    {
      "inputs": [
        {
          "internalType": "bytes32",
          "name": "poolId",
          "type": "bytes32"
        },
        {
          "internalType": "address",
          "name": "user",
          "type": "address"
        }
      ],
      "name": "getUserLiquidity",
      "outputs": [
        {
          "internalType": "uint128",
          "name": "",
          "type": "uint128"
        }
      ],
      "stateMutability": "view",
      "type": "function"
    },
    {
      "inputs": [
        {
          "internalType": "uint256",
          "name": "",
          "type": "uint256"
        }
      ],
      "name": "poolIds",
      "outputs": [
        {
          "internalType": "bytes32",
          "name": "",
          "type": "bytes32"
        }
      ],
      "stateMutability": "view",
      "type": "function"
    },
    {
      "inputs": [
        {
          "internalType": "bytes32",
          "name": "",
          "type": "bytes32"
        }
      ],
      "name": "pools",
      "outputs": [
        {
          "internalType": "address",
          "name": "tokenA",
          "type": "address"
        },
        {
          "internalType": "address",
          "name": "tokenB",
          "type": "address"
        },
        {
          "internalType": "uint128",
          "name": "reserveA",
          "type": "uint128"
        },
        {
          "internalType": "uint128",
          "name": "reserveB",
          "type": "uint128"
        },
        {
          "internalType": "uint128",
          "name": "totalLiquidity",
          "type": "uint128"
        }
      ],
      "stateMutability": "view",
      "type": "function"
    },
    {
      "inputs": [
        {
          "internalType": "bytes32",
          "name": "poolId",
          "type": "bytes32"
        },
        {
          "internalType": "uint128",
          "name": "liquidityAmount",
          "type": "uint128"
        },
        {
          "internalType": "uint128",
          "name": "minAmountA",
          "type": "uint128"
        },
        {
          "internalType": "uint128",
          "name": "minAmountB",
          "type": "uint128"
        }
      ],
      "name": "removeLiquidity",
      "outputs": [],
      "stateMutability": "nonpayable",
      "type": "function"
    },
    {
      "inputs": [
        {
          "internalType": "bytes32",
          "name": "poolId",
          "type": "bytes32"
        },
        {
          "internalType": "address",
          "name": "tokenIn",
          "type": "address"
        },
        {
          "internalType": "uint128",
          "name": "amountIn",
          "type": "uint128"
        },
        {
          "internalType": "uint128",
          "name": "minAmountOut",
          "type": "uint128"
        }
      ],
      "name": "swap",
      "outputs": [],
      "stateMutability": "nonpayable",
      "type": "function"
    },
    {
      "inputs": [],
      "name": "totalFees",
      "outputs": [
        {
          "internalType": "uint128",
          "name": "",
          "type": "uint128"
        }
      ],
      "stateMutability": "view",
      "type": "function"
    },
    {
      "inputs": [],
      "name": "totalPools",
      "outputs": [
        {
          "internalType": "uint64",
          "name": "",
          "type": "uint64"
        }
      ],
      "stateMutability": "view",
      "type": "function"
    },
    {
      "inputs": [],
      "name": "totalSwaps",
      "outputs": [
        {
          "internalType": "uint64",
          "name": "",
          "type": "uint64"
        }
      ],
      "stateMutability": "view",
      "type": "function"
    },
    {
      "inputs": [],
      "name": "totalVolume",
      "outputs": [
        {
          "internalType": "uint128",
          "name": "",
          "type": "uint128"
        }
      ],
      "stateMutability": "view",
      "type": "function"
    },
    {
      "inputs": [],
      "name": "transactionGuard",
      "outputs": [
        {
          "internalType": "contract OptimizedTransactionGuard",
          "name": "",
          "type": "address"
        }
      ],
      "stateMutability": "view",
      "type": "function"
    }
  ],
  "bytecode": "0x60a060405234801561001057600080fd5b50604051611df5380380611df583398101604081905261002f91610045565b60016000556001600160a01b0316608052610075565b60006020828403121561005757600080fd5b81516001600160a01b038116811461006e57600080fd5b9392505050565b608051611d496100ac600039600081816102a40152818161048701528181610a20015281816111a801526116900152611d496000f3fe608060405234801561001057600080fd5b506004361061010b5760003560e01c806369883b4e116100a2578063b4a800ce11610071578063b4a800ce146102de578063b5217bb4146102f9578063d73792a914610354578063d9ed14961461035d578063e34336151461037057600080fd5b806369883b4e1461024c57806396ebe74c1461025f578063ab3c7e5214610272578063abb9fe521461029f57600080fd5b80632d11c58a116100de5780632d11c58a146101f45780632f38efcb1461020a5780634763b7201461021f5780635f81a57c1461023257600080fd5b80630831fa2e1461011057806309f2c0191461014057806313114a9d146101945780632bd0429b146101a7575b600080fd5b61012361011e3660046119ce565b610383565b6040516001600160801b0390911681526020015b60405180910390f35b61015361014e3660046119fa565b6103b9565b604080516001600160a01b0396871681529590941660208601526001600160801b03928316938501939093528116606084015216608082015260a001610137565b600454610123906001600160801b031681565b6003546004546040805167ffffffffffffffff8085168252600160401b8504166020820152600160801b9093046001600160801b0390811691840191909152166060820152608001610137565b6101fc600381565b604051908152602001610137565b61021d610218366004611a2a565b61043f565b005b61021d61022d366004611a88565b6109d8565b60035461012390600160801b90046001600160801b031681565b6101fc61025a3660046119fa565b610ff4565b61012361026d366004611ad5565b611015565b6003546102869067ffffffffffffffff1681565b60405167ffffffffffffffff9091168152602001610137565b6102c67f000000000000000000000000000000000000000000000000000000000000000081565b6040516001600160a01b039091168152602001610137565b60035461028690600160401b900467ffffffffffffffff1681565b6101536103073660046119fa565b600160208190526000918252604090912080549181015460028201546003909201546001600160a01b0393841693909116916001600160801b0380821692600160801b9092048116911685565b6101fc6103e881565b61021d61036b366004611b11565b611160565b6101fc61037e366004611b37565b611647565b60008281526001602090815260408083206001600160a01b03851684526004019091529020546001600160801b03165b92915050565b6000818152600160205260408120805482918291829182916001600160a01b03166103f7576040516302721e1f60e61b815260040160405180910390fd5b8054600182015460028301546003909301546001600160a01b039283169850911695506001600160801b038083169550600160801b9092048216935016905091939590929450565b600033600036426040516020016104599493929190611b61565b60408051808303601f19018152908290528051602090910120637bc54bb960e11b82526004820181905291507f00000000000000000000000000000000000000000000000000000000000000006001600160a01b03169063f78a977290602401602060405180830381865afa1580156104d6573d6000803e3d6000fd5b505050506040513d601f19601f820116820180604052508101906104fa9190611b8e565b61051757604051634ef05c9560e01b815260040160405180910390fd5b61051f6118d7565b600086815260016020526040902080546001600160a01b0316610555576040516302721e1f60e61b815260040160405180910390fd5b6002810154869086906001600160801b03161580159061058857506002830154600160801b90046001600160801b031615155b156106125760028301546000906001600160801b03808216916105b491600160801b909104168b611bc6565b6105be9190611c07565b9050876001600160801b0316816001600160801b0316116105e157809150610610565b60028401546001600160801b03600160801b820481169161060391168a611bc6565b61060d9190611c07565b92505b505b856001600160801b0316826001600160801b0316101561064557604051632ca2f52b60e11b815260040160405180910390fd5b846001600160801b0316816001600160801b0316101561067857604051632ca2f52b60e11b815260040160405180910390fd5b82546040516323b872dd60e01b81526001600160a01b03909116906323b872dd906106ab90339030908790600401611c2d565b6020604051808303816000875af11580156106ca573d6000803e3d6000fd5b505050506040513d601f19601f820116820180604052508101906106ee9190611b8e565b61070b576040516312171d8360e31b815260040160405180910390fd5b60018301546040516323b872dd60e01b81526001600160a01b03909116906323b872dd9061074190339030908690600401611c2d565b6020604051808303816000875af1158015610760573d6000803e3d6000fd5b505050506040513d601f19601f820116820180604052508101906107849190611b8e565b6107a1576040516312171d8360e31b815260040160405180910390fd5b60038301546000906001600160801b031681036107dd576107d66107d16001600160801b03808516908616611c59565b611934565b905061084d565b6002840154600385015461084a916001600160801b039081169161080691908116908716611c59565b6108109190611c70565b600286015460038701546001600160801b03600160801b90920482169161083b918116908716611c59565b6108459190611c70565b61199c565b90505b60028401805484919060009061086d9084906001600160801b0316611c84565b92506101000a8154816001600160801b0302191690836001600160801b03160217905550818460020160108282829054906101000a90046001600160801b03166108b79190611c84565b92506101000a8154816001600160801b0302191690836001600160801b03160217905550808460030160008282829054906101000a90046001600160801b03166109019190611c84565b82546101009290920a6001600160801b0381810219909316918316021790915533600090815260048701602052604081208054859450909261094591859116611c84565b92506101000a8154816001600160801b0302191690836001600160801b03160217905550336001600160a01b03168a7f6b2d94fb0651148e6f6a6ee0b940de80b2650e54b76e5d47b51ac5d713523b4585856040516109ba9291906001600160801b0392831681529116602082015260400190565b60405180910390a3505050506109d06001600055565b505050505050565b600033600036426040516020016109f29493929190611b61565b60408051808303601f19018152908290528051602090910120637bc54bb960e11b82526004820181905291507f00000000000000000000000000000000000000000000000000000000000000006001600160a01b03169063f78a977290602401602060405180830381865afa158015610a6f573d6000803e3d6000fd5b505050506040513d601f19601f82011682018060405250810190610a939190611b8e565b610ab057604051634ef05c9560e01b815260040160405180910390fd5b610ab86118d7565b600085815260016020526040902080546001600160a01b0316610aee576040516302721e1f60e61b815260040160405180910390fd5b80546001600160a01b03868116911614801590610b1b575060018101546001600160a01b03868116911614155b15610b395760405163c1ab6dc160e01b815260040160405180910390fd5b836001600160801b0316600003610b635760405163162908e360e11b815260040160405180910390fd5b8054600090819081906001600160a01b03898116911614610ba957835460028501546001600160a01b03909116906001600160801b03600160801b820481169116610bd4565b600184015460028501546001600160a01b03909116906001600160801b0380821691600160801b9004165b919450925090506000610bea60036103e8611cab565b610bfd906001600160801b038a16611c59565b9050600081610c176103e86001600160801b038716611c59565b610c219190611cbe565b610c346001600160801b03851684611c59565b610c3e9190611c70565b9050876001600160801b0316816001600160801b03161015610c7357604051632ca2f52b60e11b815260040160405180910390fd5b826001600160801b0316816001600160801b031610610ca55760405163bb55fd2760e01b815260040160405180910390fd5b6040516323b872dd60e01b81526001600160a01b038b16906323b872dd90610cd590339030908e90600401611c2d565b6020604051808303816000875af1158015610cf4573d6000803e3d6000fd5b505050506040513d601f19601f82011682018060405250810190610d189190611b8e565b610d35576040516312171d8360e31b815260040160405180910390fd5b60405163a9059cbb60e01b81526001600160a01b0386169063a9059cbb90610d639033908590600401611cd1565b6020604051808303816000875af1158015610d82573d6000803e3d6000fd5b505050506040513d601f19601f82011682018060405250810190610da69190611b8e565b610dc3576040516312171d8360e31b815260040160405180910390fd5b85546001600160a01b03908116908b1603610e6b576002860180548a9190600090610df89084906001600160801b0316611c84565b92506101000a8154816001600160801b0302191690836001600160801b03160217905550808660020160108282829054906101000a90046001600160801b0316610e429190611cf3565b92506101000a8154816001600160801b0302191690836001600160801b03160217905550610f00565b888660020160108282829054906101000a90046001600160801b0316610e919190611c84565b92506101000a8154816001600160801b0302191690836001600160801b03160217905550808660020160008282829054906101000a90046001600160801b0316610edb9190611cf3565b92506101000a8154816001600160801b0302191690836001600160801b031602179055505b6003805467ffffffffffffffff808216600160401b80840483166001019092169091026001600160801b0381811692909217600160801b6fffffffffffffffff00000000000000001990941690911783900482168d018216909202919091178255600480548083166103e88e8516958602040183166fffffffffffffffffffffffffffffffff19909116179055604080516001600160a01b038e16815260208101939093529083169082015233908c907f313ed74250c00be03132ab347a69720c832af73341e27bc147136c216294419e9060600160405180910390a3505050505050610fed6001600055565b5050505050565b6002818154811061100457600080fd5b600091825260209091200154905081565b600083815260016020526040812080546001600160a01b03858116911614801590611050575060018101546001600160a01b03858116911614155b1561106e5760405163c1ab6dc160e01b815260040160405180910390fd5b80546000906001600160a01b0386811691161461109f576002820154600160801b90046001600160801b03166110ae565b60028201546001600160801b03165b82549091506000906001600160a01b038781169116146110db5760028301546001600160801b03166110f1565b6002830154600160801b90046001600160801b03165b9050600061110260036103e8611cab565b611115906001600160801b038816611c59565b90508061112d6103e86001600160801b038616611c59565b6111379190611cbe565b61114a6001600160801b03841683611c59565b6111549190611c70565b98975050505050505050565b6000336000364260405160200161117a9493929190611b61565b60408051808303601f19018152908290528051602090910120637bc54bb960e11b82526004820181905291507f00000000000000000000000000000000000000000000000000000000000000006001600160a01b03169063f78a977290602401602060405180830381865afa1580156111f7573d6000803e3d6000fd5b505050506040513d601f19601f8201168201806040525081019061121b9190611b8e565b61123857604051634ef05c9560e01b815260040160405180910390fd5b6112406118d7565b600085815260016020526040902080546001600160a01b0316611276576040516302721e1f60e61b815260040160405180910390fd5b846001600160801b03166000036112a05760405163162908e360e11b815260040160405180910390fd5b3360009081526004820160205260409020546001600160801b03808716911610156112de57604051632ca2f52b60e11b815260040160405180910390fd5b600381015460028201546000916001600160801b039081169161130691908116908916611c59565b6113109190611c70565b600383015460028401549192506000916001600160801b039182169161134191600160801b90048116908a16611c59565b61134b9190611c70565b9050856001600160801b0316826001600160801b0316101561138057604051632ca2f52b60e11b815260040160405180910390fd5b846001600160801b0316816001600160801b031610156113b357604051632ca2f52b60e11b815260040160405180910390fd5b6002830180548391906000906113d39084906001600160801b0316611cf3565b92506101000a8154816001600160801b0302191690836001600160801b03160217905550808360020160108282829054906101000a90046001600160801b031661141d9190611cf3565b92506101000a8154816001600160801b0302191690836001600160801b03160217905550868360030160008282829054906101000a90046001600160801b03166114679190611cf3565b82546101009290920a6001600160801b03818102199093169183160217909155336000908152600486016020526040812080548b945090926114ab91859116611cf3565b82546001600160801b039182166101009390930a928302919092021990911617905550825460405163a9059cbb60e01b81526001600160a01b039091169063a9059cbb906114ff9033908690600401611cd1565b6020604051808303816000875af115801561151e573d6000803e3d6000fd5b505050506040513d601f19601f820116820180604052508101906115429190611b8e565b61155f576040516312171d8360e31b815260040160405180910390fd5b600183015460405163a9059cbb60e01b81526001600160a01b039091169063a9059cbb906115939033908590600401611cd1565b6020604051808303816000875af11580156115b2573d6000803e3d6000fd5b505050506040513d601f19601f820116820180604052508101906115d69190611b8e565b6115f3576040516312171d8360e31b815260040160405180910390fd5b604080516001600160801b0380851682528316602082015233918a917f0d2878461706a82b5e43c1c97181be0276d95bc1801fe076c0aaaa43ec309db8910160405180910390a3505050610fed6001600055565b60008033600036426040516020016116629493929190611b61565b60408051808303601f19018152908290528051602090910120637bc54bb960e11b82526004820181905291507f00000000000000000000000000000000000000000000000000000000000000006001600160a01b03169063f78a977290602401602060405180830381865afa1580156116df573d6000803e3d6000fd5b505050506040513d601f19601f820116820180604052508101906117039190611b8e565b61172057604051634ef05c9560e01b815260040160405180910390fd5b6001600160a01b038416158061173d57506001600160a01b038316155b1561175b5760405163c1ab6dc160e01b815260040160405180910390fd5b826001600160a01b0316846001600160a01b03160361178d5760405163c1ab6dc160e01b815260040160405180910390fd5b6040516bffffffffffffffffffffffff19606086811b8216602084015285901b16603482015260480160408051601f1981840301815291815281516020928301206000818152600190935291208054919350906001600160a01b031615611807576040516302721e1f60e61b815260040160405180910390fd5b80546001600160a01b03199081166001600160a01b038781169182178455600180850180549094169188169182179093556002805480850182556000919091527f405787fa12a823e0f2b7631cc41b3ba8828b3321ca811111fa75cd3aa3bb5ace018690556003805467ffffffffffffffff19811667ffffffffffffffff918216909501169390931790925560408051918252602082019290925284917fc0c143d18100b0ec0b6c08cc52247dd860ffd3fc2af30733326e5f980c19635a910160405180910390a2505092915050565b60026000540361192d5760405162461bcd60e51b815260206004820152601f60248201527f5265656e7472616e637947756172643a207265656e7472616e742063616c6c00604482015260640160405180910390fd5b6002600055565b60008160000361194657506000919050565b60006002611955846001611cbe565b61195f9190611c70565b9050825b8082101561199557508060028161197a8187611c70565b6119849190611cbe565b61198e9190611c70565b9150611963565b9392505050565b60008183106119ab5781611995565b5090919050565b80356001600160a01b03811681146119c957600080fd5b919050565b600080604083850312156119e157600080fd5b823591506119f1602084016119b2565b90509250929050565b600060208284031215611a0c57600080fd5b5035919050565b80356001600160801b03811681146119c957600080fd5b600080600080600060a08688031215611a4257600080fd5b85359450611a5260208701611a13565b9350611a6060408701611a13565b9250611a6e60608701611a13565b9150611a7c60808701611a13565b90509295509295909350565b60008060008060808587031215611a9e57600080fd5b84359350611aae602086016119b2565b9250611abc60408601611a13565b9150611aca60608601611a13565b905092959194509250565b600080600060608486031215611aea57600080fd5b83359250611afa602085016119b2565b9150611b0860408501611a13565b90509250925092565b60008060008060808587031215611b2757600080fd5b84359350611aae60208601611a13565b60008060408385031215611b4a57600080fd5b611b53836119b2565b91506119f1602084016119b2565b6bffffffffffffffffffffffff198560601b16815282846014830137601492019182015260340192915050565b600060208284031215611ba057600080fd5b8151801515811461199557600080fd5b634e487b7160e01b600052601160045260246000fd5b6001600160801b03818116838216028082169190828114611be957611be9611bb0565b505092915050565b634e487b7160e01b600052601260045260246000fd5b60006001600160801b0380841680611c2157611c21611bf1565b92169190910492915050565b6001600160a01b0393841681529190921660208201526001600160801b03909116604082015260600190565b80820281158282048414176103b3576103b3611bb0565b600082611c7f57611c7f611bf1565b500490565b6001600160801b03818116838216019080821115611ca457611ca4611bb0565b5092915050565b818103818111156103b3576103b3611bb0565b808201808211156103b3576103b3611bb0565b6001600160a01b039290921682526001600160801b0316602082015260400190565b6001600160801b03828116828216039080821115611ca457611ca4611bb056fea2646970667358221220da76168aaadc4442a056ded093b4c25a7ff427cf077354b4dc129f1c7265e19164736f6c63430008130033",
  "linkReferences": {},
  "deployedLinkReferences": {}
}