{
  "_format": "hh-sol-artifact-1",
  "contractName": "OptimizedTransactionGuard",
  "sourceName": "contracts/OptimizedTransactionGuard.sol",
  "abi": [
    {
      "inputs": [
        {
          "internalType": "address",
          "name": "_bdagToken",
          "type": "address"
        },
        {
          "internalType": "address",
          "name": "_backendOracle",
          "type": "address"
        }
      ],
      "stateMutability": "nonpayable",
      "type": "constructor"
    },
    {
      "inputs": [],
      "name": "InsufficientStake",
      "type": "error"
    },
    {
      "inputs": [],
      "name": "InvalidArrayLength",
      "type": "error"
    },
    {
      "inputs": [],
      "name": "InvalidRiskScore",
      "type": "error"
    },
    {
      "inputs": [],
      "name": "InvalidTarget",
      "type": "error"
    },
    {
      "inputs": [],
      "name": "NotActiveValidator",
      "type": "error"
    },
    {
      "inputs": [],
      "name": "TransactionBlockedError",
      "type": "error"
    },
    {
      "inputs": [],
      "name": "UnauthorizedOracle",
      "type": "error"
    },
    {
      "anonymous": false,
      "inputs": [
        {
          "indexed": true,
          "internalType": "address",
          "name": "oldOracle",
          "type": "address"
        },
        {
          "indexed": true,
          "internalType": "address",
          "name": "newOracle",
          "type": "address"
        }
      ],
      "name": "BackendOracleUpdated",
      "type": "event"
    },
    {
      "anonymous": false,
      "inputs": [
        {
          "indexed": true,
          "internalType": "address",
          "name": "target",
          "type": "address"
        },
        {
          "indexed": false,
          "internalType": "uint128",
          "name": "potentialLoss",
          "type": "uint128"
        }
      ],
      "name": "ExploitPrevented",
      "type": "event"
    },
    {
      "anonymous": false,
      "inputs": [
        {
          "indexed": true,
          "internalType": "address",
          "name": "previousOwner",
          "type": "address"
        },
        {
          "indexed": true,
          "internalType": "address",
          "name": "newOwner",
          "type": "address"
        }
      ],
      "name": "OwnershipTransferred",
      "type": "event"
    },
    {
      "anonymous": false,
      "inputs": [
        {
          "indexed": false,
          "internalType": "address",
          "name": "account",
          "type": "address"
        }
      ],
      "name": "Paused",
      "type": "event"
    },
    {
      "anonymous": false,
      "inputs": [
        {
          "indexed": true,
          "internalType": "address",
          "name": "contractAddr",
          "type": "address"
        },
        {
          "indexed": false,
          "internalType": "uint32",
          "name": "newScore",
          "type": "uint32"
        },
        {
          "indexed": true,
          "internalType": "address",
          "name": "updatedBy",
          "type": "address"
        }
      ],
      "name": "RiskScoreUpdated",
      "type": "event"
    },
    {
      "anonymous": false,
      "inputs": [
        {
          "indexed": true,
          "internalType": "bytes32",
          "name": "txHash",
          "type": "bytes32"
        },
        {
          "indexed": false,
          "internalType": "uint32",
          "name": "riskScore",
          "type": "uint32"
        }
      ],
      "name": "TransactionApproved",
      "type": "event"
    },
    {
      "anonymous": false,
      "inputs": [
        {
          "indexed": true,
          "internalType": "bytes32",
          "name": "txHash",
          "type": "bytes32"
        },
        {
          "indexed": false,
          "internalType": "uint32",
          "name": "riskScore",
          "type": "uint32"
        },
        {
          "indexed": false,
          "internalType": "uint8",
          "name": "threatType",
          "type": "uint8"
        }
      ],
      "name": "TransactionBlocked",
      "type": "event"
    },
    {
      "anonymous": false,
      "inputs": [
        {
          "indexed": false,
          "internalType": "address",
          "name": "account",
          "type": "address"
        }
      ],
      "name": "Unpaused",
      "type": "event"
    },
    {
      "anonymous": false,
      "inputs": [
        {
          "indexed": true,
          "internalType": "address",
          "name": "validator",
          "type": "address"
        },
        {
          "indexed": false,
          "internalType": "uint128",
          "name": "amount",
          "type": "uint128"
        },
        {
          "indexed": false,
          "internalType": "uint8",
          "name": "reason",
          "type": "uint8"
        }
      ],
      "name": "ValidatorSlashed",
      "type": "event"
    },
    {
      "anonymous": false,
      "inputs": [
        {
          "indexed": true,
          "internalType": "address",
          "name": "validator",
          "type": "address"
        },
        {
          "indexed": false,
          "internalType": "uint128",
          "name": "amount",
          "type": "uint128"
        }
      ],
      "name": "ValidatorStaked",
      "type": "event"
    },
    {
      "inputs": [],
      "name": "BLOCK_THRESHOLD",
      "outputs": [
        {
          "internalType": "uint256",
          "name": "",
          "type": "uint256"
        }
      ],
      "stateMutability": "view",
      "type": "function"
    },
    {
      "inputs": [],
      "name": "MAX_RISK_SCORE",
      "outputs": [
        {
          "internalType": "uint256",
          "name": "",
          "type": "uint256"
        }
      ],
      "stateMutability": "view",
      "type": "function"
    },
    {
      "inputs": [],
      "name": "MIN_VALIDATOR_STAKE",
      "outputs": [
        {
          "internalType": "uint256",
          "name": "",
          "type": "uint256"
        }
      ],
      "stateMutability": "view",
      "type": "function"
    },
    {
      "inputs": [],
      "name": "RISK_SCORE_VALIDITY",
      "outputs": [
        {
          "internalType": "uint256",
          "name": "",
          "type": "uint256"
        }
      ],
      "stateMutability": "view",
      "type": "function"
    },
    {
      "inputs": [
        {
          "internalType": "uint256",
          "name": "",
          "type": "uint256"
        }
      ],
      "name": "activeValidators",
      "outputs": [
        {
          "internalType": "address",
          "name": "",
          "type": "address"
        }
      ],
      "stateMutability": "view",
      "type": "function"
    },
    {
      "inputs": [
        {
          "internalType": "address",
          "name": "contractAddr",
          "type": "address"
        }
      ],
      "name": "addTrustedContract",
      "outputs": [],
      "stateMutability": "nonpayable",
      "type": "function"
    },
    {
      "inputs": [
        {
          "internalType": "bytes32",
          "name": "",
          "type": "bytes32"
        }
      ],
      "name": "assessments",
      "outputs": [
        {
          "internalType": "uint32",
          "name": "riskScore",
          "type": "uint32"
        },
        {
          "internalType": "uint32",
          "name": "timestamp",
          "type": "uint32"
        },
        {
          "internalType": "address",
          "name": "validator",
          "type": "address"
        },
        {
          "internalType": "bool",
          "name": "isBlocked",
          "type": "bool"
        }
      ],
      "stateMutability": "view",
      "type": "function"
    },
    {
      "inputs": [],
      "name": "backendOracle",
      "outputs": [
        {
          "internalType": "address",
          "name": "",
          "type": "address"
        }
      ],
      "stateMutability": "view",
      "type": "function"
    },
    {
      "inputs": [
        {
          "internalType": "address[]",
          "name": "contracts",
          "type": "address[]"
        },
        {
          "internalType": "uint32[]",
          "name": "scores",
          "type": "uint32[]"
        }
      ],
      "name": "batchUpdateRiskScores",
      "outputs": [],
      "stateMutability": "nonpayable",
      "type": "function"
    },
    {
      "inputs": [],
      "name": "bdagToken",
      "outputs": [
        {
          "internalType": "contract IERC20",
          "name": "",
          "type": "address"
        }
      ],
      "stateMutability": "view",
      "type": "function"
    },
    {
      "inputs": [],
      "name": "emergencyPause",
      "outputs": [],
      "stateMutability": "nonpayable",
      "type": "function"
    },
    {
      "inputs": [
        {
          "internalType": "address",
          "name": "target",
          "type": "address"
        },
        {
          "internalType": "bytes",
          "name": "data",
          "type": "bytes"
        }
      ],
      "name": "executeProtected",
      "outputs": [
        {
          "internalType": "bool",
          "name": "success",
          "type": "bool"
        },
        {
          "internalType": "bytes",
          "name": "returnData",
          "type": "bytes"
        }
      ],
      "stateMutability": "payable",
      "type": "function"
    },
    {
      "inputs": [],
      "name": "getFirewallStats",
      "outputs": [
        {
          "internalType": "uint64",
          "name": "transactionsScreened",
          "type": "uint64"
        },
        {
          "internalType": "uint64",
          "name": "exploitsBlocked",
          "type": "uint64"
        },
        {
          "internalType": "uint128",
          "name": "fundsProtected",
          "type": "uint128"
        },
        {
          "internalType": "uint64",
          "name": "activeValidatorCount",
          "type": "uint64"
        },
        {
          "internalType": "uint128",
          "name": "totalStakedAmount",
          "type": "uint128"
        }
      ],
      "stateMutability": "view",
      "type": "function"
    },
    {
      "inputs": [
        {
          "internalType": "address",
          "name": "validator",
          "type": "address"
        }
      ],
      "name": "getValidatorInfo",
      "outputs": [
        {
          "internalType": "uint128",
          "name": "stakedAmount",
          "type": "uint128"
        },
        {
          "internalType": "uint64",
          "name": "correctPredictions",
          "type": "uint64"
        },
        {
          "internalType": "uint64",
          "name": "totalPredictions",
          "type": "uint64"
        },
        {
          "internalType": "bool",
          "name": "isActive",
          "type": "bool"
        },
        {
          "internalType": "uint64",
          "name": "accuracy",
          "type": "uint64"
        }
      ],
      "stateMutability": "view",
      "type": "function"
    },
    {
      "inputs": [
        {
          "internalType": "bytes32",
          "name": "txHash",
          "type": "bytes32"
        }
      ],
      "name": "isTransactionSafe",
      "outputs": [
        {
          "internalType": "bool",
          "name": "",
          "type": "bool"
        }
      ],
      "stateMutability": "view",
      "type": "function"
    },
    {
      "inputs": [
        {
          "internalType": "address",
          "name": "",
          "type": "address"
        }
      ],
      "name": "lastRiskUpdate",
      "outputs": [
        {
          "internalType": "uint32",
          "name": "",
          "type": "uint32"
        }
      ],
      "stateMutability": "view",
      "type": "function"
    },
    {
      "inputs": [],
      "name": "owner",
      "outputs": [
        {
          "internalType": "address",
          "name": "",
          "type": "address"
        }
      ],
      "stateMutability": "view",
      "type": "function"
    },
    {
      "inputs": [],
      "name": "pause",
      "outputs": [],
      "stateMutability": "nonpayable",
      "type": "function"
    },
    {
      "inputs": [],
      "name": "paused",
      "outputs": [
        {
          "internalType": "bool",
          "name": "",
          "type": "bool"
        }
      ],
      "stateMutability": "view",
      "type": "function"
    },
    {
      "inputs": [
        {
          "internalType": "address",
          "name": "contractAddr",
          "type": "address"
        }
      ],
      "name": "removeTrustedContract",
      "outputs": [],
      "stateMutability": "nonpayable",
      "type": "function"
    },
    {
      "inputs": [],
      "name": "renounceOwnership",
      "outputs": [],
      "stateMutability": "nonpayable",
      "type": "function"
    },
    {
      "inputs": [
        {
          "internalType": "address",
          "name": "",
          "type": "address"
        }
      ],
      "name": "riskScores",
      "outputs": [
        {
          "internalType": "uint32",
          "name": "",
          "type": "uint32"
        }
      ],
      "stateMutability": "view",
      "type": "function"
    },
    {
      "inputs": [
        {
          "internalType": "address",
          "name": "newOracle",
          "type": "address"
        }
      ],
      "name": "setBackendOracle",
      "outputs": [],
      "stateMutability": "nonpayable",
      "type": "function"
    },
    {
      "inputs": [
        {
          "internalType": "address",
          "name": "validator",
          "type": "address"
        },
        {
          "internalType": "uint128",
          "name": "slashAmount",
          "type": "uint128"
        },
        {
          "internalType": "uint8",
          "name": "reason",
          "type": "uint8"
        }
      ],
      "name": "slashValidator",
      "outputs": [],
      "stateMutability": "nonpayable",
      "type": "function"
    },
    {
      "inputs": [
        {
          "internalType": "uint128",
          "name": "amount",
          "type": "uint128"
        }
      ],
      "name": "stakeAsValidator",
      "outputs": [],
      "stateMutability": "nonpayable",
      "type": "function"
    },
    {
      "inputs": [
        {
          "internalType": "bytes32",
          "name": "txHash",
          "type": "bytes32"
        },
        {
          "internalType": "uint32",
          "name": "riskScore",
          "type": "uint32"
        },
        {
          "internalType": "uint8",
          "name": "threatType",
          "type": "uint8"
        }
      ],
      "name": "submitRiskAssessment",
      "outputs": [],
      "stateMutability": "nonpayable",
      "type": "function"
    },
    {
      "inputs": [],
      "name": "totalExploitsBlocked",
      "outputs": [
        {
          "internalType": "uint64",
          "name": "",
          "type": "uint64"
        }
      ],
      "stateMutability": "view",
      "type": "function"
    },
    {
      "inputs": [],
      "name": "totalFundsProtected",
      "outputs": [
        {
          "internalType": "uint128",
          "name": "",
          "type": "uint128"
        }
      ],
      "stateMutability": "view",
      "type": "function"
    },
    {
      "inputs": [],
      "name": "totalStaked",
      "outputs": [
        {
          "internalType": "uint128",
          "name": "",
          "type": "uint128"
        }
      ],
      "stateMutability": "view",
      "type": "function"
    },
    {
      "inputs": [],
      "name": "totalTransactionsScreened",
      "outputs": [
        {
          "internalType": "uint64",
          "name": "",
          "type": "uint64"
        }
      ],
      "stateMutability": "view",
      "type": "function"
    },
    {
      "inputs": [
        {
          "internalType": "address",
          "name": "newOwner",
          "type": "address"
        }
      ],
      "name": "transferOwnership",
      "outputs": [],
      "stateMutability": "nonpayable",
      "type": "function"
    },
    {
      "inputs": [
        {
          "internalType": "address",
          "name": "",
          "type": "address"
        }
      ],
      "name": "trustedContracts",
      "outputs": [
        {
          "internalType": "bool",
          "name": "",
          "type": "bool"
        }
      ],
      "stateMutability": "view",
      "type": "function"
    },
    {
      "inputs": [],
      "name": "unpause",
      "outputs": [],
      "stateMutability": "nonpayable",
      "type": "function"
    },
    {
      "inputs": [
        {
          "internalType": "address",
          "name": "contractAddr",
          "type": "address"
        },
        {
          "internalType": "uint32",
          "name": "score",
          "type": "uint32"
        }
      ],
      "name": "updateRiskScore",
      "outputs": [],
      "stateMutability": "nonpayable",
      "type": "function"
    },
    {
      "inputs": [
        {
          "internalType": "address",
          "name": "",
          "type": "address"
        }
      ],
      "name": "validators",
      "outputs": [
        {
          "internalType": "uint128",
          "name": "stakedAmount",
          "type": "uint128"
        },
        {
          "internalType": "uint64",
          "name": "correctPredictions",
          "type": "uint64"
        },
        {
          "internalType": "uint64",
          "name": "totalPredictions",
          "type": "uint64"
        },
        {
          "internalType": "uint32",
          "name": "lastActivity",
          "type": "uint32"
        },
        {
          "internalType": "bool",
          "name": "isActive",
          "type": "bool"
        }
      ],
      "stateMutability": "view",
      "type": "function"
    }
  ],
  "bytecode": "0x60a06040523480156200001157600080fd5b5060405162001f7638038062001f768339810160408190526200003491620000e9565b600160005562000044336200007a565b6001805460ff60a01b191690556001600160a01b03918216608052600a80546001600160a01b0319169190921617905562000121565b600180546001600160a01b038381166001600160a01b0319831681179093556040519116919082907f8be0079c531659141344cd1fd0a4f28419497f9722a3daafe3b4186f6b6457e090600090a35050565b80516001600160a01b0381168114620000e457600080fd5b919050565b60008060408385031215620000fd57600080fd5b6200010883620000cc565b91506200011860208401620000cc565b90509250929050565b608051611e2b6200014b60003960008181610744015281816111ac01526114130152611e2b6000f3fe6080604052600436106102045760003560e01c80639c2a225911610118578063e49ca3a6116100a0578063f0c123561161006f578063f0c1235614610732578063f2fde38b14610766578063f78a977214610786578063fa52c7d8146107a6578063ffeca6161461085b57600080fd5b8063e49ca3a6146106ac578063e5919a4f146106cc578063eed5766c146106fc578063f0314df01461071257600080fd5b8063bf892eaa116100e7578063bf892eaa1461060b578063c4b278521461062b578063ce91c1201461064c578063d40440221461066c578063e181e75e1461068c57600080fd5b80639c2a22591461051a578063a2a7143014610537578063aa8a4a3414610557578063ab15a2001461057757600080fd5b80636e6799f11161019b5780638456cb591161016a5780638456cb591461043f57806386c4832e1461045457806387e0de90146104695780638a11d7c91461049c5780638da5cb5b146104fc57600080fd5b80636e6799f114610367578063715018a61461038757806373bc7b7d1461039c578063817b1cd21461040057600080fd5b806351858e27116101d757806351858e27146102bf5780635c975abb146102d45780635e5b8752146102ff5780635e760cb01461034757600080fd5b806314f64c78146102095780633f08f635146102465780633f4ba83a1461028557806345f191311461029c575b600080fd5b34801561021557600080fd5b506102296102243660046119c9565b61087b565b6040516001600160a01b0390911681526020015b60405180910390f35b34801561025257600080fd5b5060085461026d90600160401b90046001600160401b031681565b6040516001600160401b03909116815260200161023d565b34801561029157600080fd5b5061029a6108a5565b005b3480156102a857600080fd5b506102b1606481565b60405190815260200161023d565b3480156102cb57600080fd5b5061029a6108b7565b3480156102e057600080fd5b50600154600160a01b900460ff165b604051901515815260200161023d565b34801561030b57600080fd5b5061033261031a3660046119fe565b60056020526000908152604090205463ffffffff1681565b60405163ffffffff909116815260200161023d565b34801561035357600080fd5b5061029a610362366004611a34565b610906565b34801561037357600080fd5b50600a54610229906001600160a01b031681565b34801561039357600080fd5b5061029a6109da565b3480156103a857600080fd5b50600854600954600754604080516001600160401b038086168252600160401b8604811660208301526001600160801b039485169282019290925291166060820152600160801b90920416608082015260a00161023d565b34801561040c57600080fd5b5060085461042790600160801b90046001600160801b031681565b6040516001600160801b03909116815260200161023d565b34801561044b57600080fd5b5061029a6109ec565b34801561046057600080fd5b506102b1605081565b34801561047557600080fd5b506103326104843660046119fe565b60066020526000908152604090205463ffffffff1681565b3480156104a857600080fd5b506104bc6104b73660046119fe565b6109fc565b604080516001600160801b0390961686526001600160401b039485166020870152928416928501929092521515606084015216608082015260a00161023d565b34801561050857600080fd5b506001546001600160a01b0316610229565b34801561052657600080fd5b506102b1683635c9adc5dea0000081565b34801561054357600080fd5b5061029a610552366004611ab2565b610acc565b34801561056357600080fd5b5061029a610572366004611b2e565b610cff565b34801561058357600080fd5b506105d36105923660046119c9565b60036020526000908152604090205463ffffffff80821691600160201b810490911690600160401b81046001600160a01b031690600160e01b900460ff1684565b6040805163ffffffff95861681529490931660208501526001600160a01b03909116918301919091521515606082015260800161023d565b34801561061757600080fd5b5061029a6106263660046119fe565b610f10565b61063e610639366004611b6a565b610f39565b60405161023d929190611bec565b34801561065857600080fd5b5060085461026d906001600160401b031681565b34801561067857600080fd5b50600954610427906001600160801b031681565b34801561069857600080fd5b5061029a6106a7366004611c5b565b611147565b3480156106b857600080fd5b5061029a6106c7366004611c76565b61134f565b3480156106d857600080fd5b506102ef6106e73660046119fe565b60046020526000908152604090205460ff1681565b34801561070857600080fd5b506102b161012c81565b34801561071e57600080fd5b5061029a61072d3660046119fe565b611535565b34801561073e57600080fd5b506102297f000000000000000000000000000000000000000000000000000000000000000081565b34801561077257600080fd5b5061029a6107813660046119fe565b611561565b34801561079257600080fd5b506102ef6107a13660046119c9565b6115dc565b3480156107b257600080fd5b506108146107c13660046119fe565b600260205260009081526040902080546001909101546001600160801b038216916001600160401b03600160801b8204811692600160c01b909204169063ffffffff81169060ff600160201b9091041685565b604080516001600160801b039690961686526001600160401b039485166020870152929093169184019190915263ffffffff1660608301521515608082015260a00161023d565b34801561086757600080fd5b5061029a6108763660046119fe565b611652565b6007818154811061088b57600080fd5b6000918252602090912001546001600160a01b0316905081565b6108ad6116d3565b6108b561172d565b565b6108bf6116d3565b6108c7611782565b6040805160648152600660208201526000917f4f732aca105db5525826bc2856d1f22bba9f297abb8179e6d8fd837ebb3136c8910160405180910390a2565b600a546001600160a01b031633146109315760405163db8d1fb760e01b815260040160405180910390fd5b60648163ffffffff161115610959576040516330cdce3160e21b815260040160405180910390fd5b6001600160a01b0382166000818152600560209081526040808320805463ffffffff1990811663ffffffff8881169182179093556006855294839020805490911642909216919091179055519182523392917f89ae3ee94aed155bc176684f52818f8ebb64a241560fdcb04f58e4866fae23c9910160405180910390a35050565b6109e26116d3565b6108b560006117c5565b6109f46116d3565b6108b5611782565b6001600160a01b0381166000908152600260209081526040808320815160a08101835281546001600160801b03811682526001600160401b03600160801b8204811695830195909552600160c01b90049093169183018290526001015463ffffffff8116606084015260ff600160201b90910416151560808301528291829182918291610a8a576000610aa9565b60408101516020820151610a9f906064611cb8565b610aa99190611ce3565b815160208301516040840151608090940151919a90995092975095509350915050565b600a546001600160a01b03163314610af75760405163db8d1fb760e01b815260040160405180910390fd5b828114610b1757604051634ec4810560e11b815260040160405180910390fd5b4260005b84811015610cf7576064848483818110610b3757610b37611d17565b9050602002016020810190610b4c9190611d2d565b63ffffffff161115610b71576040516330cdce3160e21b815260040160405180910390fd5b838382818110610b8357610b83611d17565b9050602002016020810190610b989190611d2d565b60056000888885818110610bae57610bae611d17565b9050602002016020810190610bc391906119fe565b6001600160a01b03166001600160a01b0316815260200190815260200160002060006101000a81548163ffffffff021916908363ffffffff1602179055508160066000888885818110610c1857610c18611d17565b9050602002016020810190610c2d91906119fe565b6001600160a01b031681526020810191909152604001600020805463ffffffff191663ffffffff9290921691909117905533868683818110610c7157610c71611d17565b9050602002016020810190610c8691906119fe565b6001600160a01b03167f89ae3ee94aed155bc176684f52818f8ebb64a241560fdcb04f58e4866fae23c9868685818110610cc257610cc2611d17565b9050602002016020810190610cd79190611d2d565b60405163ffffffff909116815260200160405180910390a3600101610b1b565b505050505050565b3360009081526002602052604090206001810154600160201b900460ff16610d3a5760405163098a8cbb60e41b815260040160405180910390fd5b60648363ffffffff161115610d62576040516330cdce3160e21b815260040160405180910390fd5b805460016001600160401b03600160c01b80840482168301909116026001600160c01b039092169190911782558101805463ffffffff42811663ffffffff1990921682179092556040805160808101825286841680825260208083019485523383850190815260509092116060840181815260008c8152600390935294909120925183549551925194511515600160e01b0260ff60e01b196001600160a01b0396909616600160401b029590951668010000000000000000600160e81b0319938816600160201b0267ffffffffffffffff199097169190971617949094171693909317179091558015610ecd57600880546fffffffffffffffff0000000000000000198116600160401b918290046001600160401b03908116600101169091021790556040805163ffffffff8616815260ff8516602082015286917f4f732aca105db5525826bc2856d1f22bba9f297abb8179e6d8fd837ebb3136c8910160405180910390a2610f09565b60405163ffffffff8516815285907fd2d4cd3a8b0f14bf5ae051b1952126e35dd22419ee7c31c386f29d3c590a58e29060200160405180910390a25b5050505050565b610f186116d3565b6001600160a01b03166000908152600460205260409020805460ff19169055565b60006060610f5160015460ff600160a01b9091041690565b15610f6f57604051634aa8db6b60e11b815260040160405180910390fd5b6000336000364243604051602001610f8b959493929190611d48565b604051602081830303815290604052805190602001209050610fac816115dc565b610fc957604051634aa8db6b60e11b815260040160405180910390fd5b600880546001600160401b038082166001011667ffffffffffffffff199091161790556001600160a01b0386166110135760405163416aebb560e11b815260040160405180910390fd5b6001600160a01b03861660009081526004602052604090205460ff168015611041575061103f86611817565b155b1561105f57604051634aa8db6b60e11b815260040160405180910390fd5b856001600160a01b031634868660405161107a929190611d7d565b60006040518083038185875af1925050503d80600081146110b7576040519150601f19603f3d011682016040523d82523d6000602084013e6110bc565b606091505b509093509150821561113e576000338686426040516020016110e19493929190611d8d565b604051602081830303815290604052805190602001209050807fd2d4cd3a8b0f14bf5ae051b1952126e35dd22419ee7c31c386f29d3c590a58e261112489611875565b60405163ffffffff909116815260200160405180910390a2505b50935093915050565b61114f6118d3565b683635c9adc5dea00000816001600160801b03161015611182576040516378de4a6960e11b815260040160405180910390fd5b6040516323b872dd60e01b81523360048201523060248201526001600160801b03821660448201527f00000000000000000000000000000000000000000000000000000000000000006001600160a01b0316906323b872dd906064016020604051808303816000875af11580156111fd573d6000803e3d6000fd5b505050506040513d601f19601f820116820180604052508101906112219190611dba565b61123e576040516378de4a6960e11b815260040160405180910390fd5b3360009081526002602052604090206001810154600160201b900460ff166112b85760078054600181810183556000929092527fa66cc928b5edb82af9bd49922954155ab7b0942694bea4ce44661d9a8736c6880180546001600160a01b031916331790558101805464ff000000001916600160201b1790555b80546001600160801b031981166001600160801b039182168401821617825560018201805463ffffffff19164263ffffffff1617905560088054808316600160801b91829004841686018416909102179055604051908316815233907fe575fc8bd65b39043cd3dbf8126f8b3e650f2b5b0bbd85d3a5010a2789b6ef499060200160405180910390a25061134c6001600055565b50565b6113576116d3565b6001600160a01b03831660009081526002602052604090206001810154600160201b900460ff1661139b5760405163098a8cbb60e41b815260040160405180910390fd5b80546001600160801b03808516911610156113c9576040516378de4a6960e11b815260040160405180910390fd5b80546001600160801b0380821685900381166001600160801b031990921691909117825560088054600160801b808204841687900384160292169190911790556001600160a01b037f00000000000000000000000000000000000000000000000000000000000000001663a9059cbb61144a6001546001600160a01b031690565b6040516001600160e01b031960e084901b1681526001600160a01b0390911660048201526001600160801b03861660248201526044016020604051808303816000875af115801561149f573d6000803e3d6000fd5b505050506040513d601f19601f820116820180604052508101906114c39190611dba565b6114e0576040516378de4a6960e11b815260040160405180910390fd5b604080516001600160801b038516815260ff841660208201526001600160a01b038616917f44c9de4ac83cd6cae05919c631b513820db2b8cd712352ad9138a60f6734639b910160405180910390a250505050565b61153d6116d3565b6001600160a01b03166000908152600460205260409020805460ff19166001179055565b6115696116d3565b6001600160a01b0381166115d35760405162461bcd60e51b815260206004820152602660248201527f4f776e61626c653a206e6577206f776e657220697320746865207a65726f206160448201526564647265737360d01b60648201526084015b60405180910390fd5b61134c816117c5565b60008181526003602090815260408083208151608081018352905463ffffffff8082168352600160201b820416938201849052600160401b81046001600160a01b031692820192909252600160e01b90910460ff1615156060820152901561164957606001511592915050565b50600192915050565b61165a6116d3565b6001600160a01b0381166116815760405163416aebb560e11b815260040160405180910390fd5b600a80546001600160a01b038381166001600160a01b0319831681179093556040519116919082907f0723b74ef9285616467416d2414dd04b2664c538ef2d2bc73d734769e91d108f90600090a35050565b6001546001600160a01b031633146108b55760405162461bcd60e51b815260206004820181905260248201527f4f776e61626c653a2063616c6c6572206973206e6f7420746865206f776e657260448201526064016115ca565b61173561192c565b6001805460ff60a01b191690557f5db9ee0a495bf2e6ff9c91a7834c1ba4fdd244a5e8aa4e537bd38aeae4b073aa335b6040516001600160a01b03909116815260200160405180910390a1565b61178a61197c565b6001805460ff60a01b1916600160a01b1790557f62e78cea01bee320cd4e420270b5ea74000d11b0c9f74754ebdbfc544b05a2586117653390565b600180546001600160a01b038381166001600160a01b0319831681179093556040519116919082907f8be0079c531659141344cd1fd0a4f28419497f9722a3daafe3b4186f6b6457e090600090a35050565b6001600160a01b038116600090815260056020908152604080832054600690925282205463ffffffff918216911661012c6118528242611ddc565b1115611862575060019392505050565b50605063ffffffff909116111592915050565b6001600160a01b03811660009081526006602052604081205463ffffffff1661012c6118a18242611ddc565b11156118b05750603292915050565b50506001600160a01b031660009081526005602052604090205463ffffffff1690565b6002600054036119255760405162461bcd60e51b815260206004820152601f60248201527f5265656e7472616e637947756172643a207265656e7472616e742063616c6c0060448201526064016115ca565b6002600055565b600154600160a01b900460ff166108b55760405162461bcd60e51b815260206004820152601460248201527314185d5cd8589b194e881b9bdd081c185d5cd95960621b60448201526064016115ca565b600154600160a01b900460ff16156108b55760405162461bcd60e51b815260206004820152601060248201526f14185d5cd8589b194e881c185d5cd95960821b60448201526064016115ca565b6000602082840312156119db57600080fd5b5035919050565b80356001600160a01b03811681146119f957600080fd5b919050565b600060208284031215611a1057600080fd5b611a19826119e2565b9392505050565b803563ffffffff811681146119f957600080fd5b60008060408385031215611a4757600080fd5b611a50836119e2565b9150611a5e60208401611a20565b90509250929050565b60008083601f840112611a7957600080fd5b5081356001600160401b03811115611a9057600080fd5b6020830191508360208260051b8501011115611aab57600080fd5b9250929050565b60008060008060408587031215611ac857600080fd5b84356001600160401b0380821115611adf57600080fd5b611aeb88838901611a67565b90965094506020870135915080821115611b0457600080fd5b50611b1187828801611a67565b95989497509550505050565b803560ff811681146119f957600080fd5b600080600060608486031215611b4357600080fd5b83359250611b5360208501611a20565b9150611b6160408501611b1d565b90509250925092565b600080600060408486031215611b7f57600080fd5b611b88846119e2565b925060208401356001600160401b0380821115611ba457600080fd5b818601915086601f830112611bb857600080fd5b813581811115611bc757600080fd5b876020828501011115611bd957600080fd5b6020830194508093505050509250925092565b821515815260006020604081840152835180604085015260005b81811015611c2257858101830151858201606001528201611c06565b506000606082860101526060601f19601f830116850101925050509392505050565b80356001600160801b03811681146119f957600080fd5b600060208284031215611c6d57600080fd5b611a1982611c44565b600080600060608486031215611c8b57600080fd5b611c94846119e2565b9250611b5360208501611c44565b634e487b7160e01b600052601160045260246000fd5b6001600160401b03818116838216028082169190828114611cdb57611cdb611ca2565b505092915050565b60006001600160401b0380841680611d0b57634e487b7160e01b600052601260045260246000fd5b92169190910492915050565b634e487b7160e01b600052603260045260246000fd5b600060208284031215611d3f57600080fd5b611a1982611a20565b6bffffffffffffffffffffffff198660601b168152838560148301376014930192830191909152603482015260540192915050565b8183823760009101908152919050565b6bffffffffffffffffffffffff198560601b16815282846014830137601492019182015260340192915050565b600060208284031215611dcc57600080fd5b81518015158114611a1957600080fd5b81810381811115611def57611def611ca2565b9291505056fea26469706673582212204beb128e340fb970fa9b272c31f530341d64e074bc9c46aa5e8d3f0d02850f0964736f6c63430008130033",
  "linkReferences": {},
  "deployedLinkReferences": {}
}