{
  "_format": "hh-sol-artifact-1",
  "contractName": "MaliciousContract",
  "sourceName": "contracts/TestTokens.sol",
  "abi": [
    {
      "anonymous": false,
      "inputs": [
        {
          "indexed": false,
          "internalType": "address",
          "name": "victim",
          "type": "address"
        },
        {
          "indexed": false,
          "internalType": "uint256",
          "name": "amount",
          "type": "uint256"
        }
      ],
      "name": "ExploitAttempted",
      "type": "event"
    },
    {
      "inputs": [
        {
          "internalType": "address",
          "name": "target",
          "type": "address"
        },
        {
          "internalType": "uint256",
          "name": "amount",
          "type": "uint256"
        }
      ],
      "name": "drainLiquidity",
      "outputs": [],
      "stateMutability": "nonpayable",
      "type": "function"
    },
    {
      "inputs": [],
      "name": "rugPull",
      "outputs": [],
      "stateMutability": "nonpayable",
      "type": "function"
    },
    {
      "inputs": [
        {
          "internalType": "address",
          "name": "victim",
          "type": "address"
        },
        {
          "internalType": "uint256",
          "name": "frontrunAmount",
          "type": "uint256"
        }
      ],
      "name": "sandwichAttack",
      "outputs": [],
      "stateMutability": "nonpayable",
      "type": "function"
    }
  ],
  "bytecode": "0x608060405234801561001057600080fd5b506102bb806100206000396000f3fe608060405234801561001057600080fd5b50600436106100415760003560e01c80632190dfd0146100465780632e0b58f01461005057806345695d7714610063575b600080fd5b61004e610076565b005b61004e61005e36600461024d565b610109565b61004e61007136600461024d565b6101ae565b604080513381524760208201527f02671c3ee999c4d304c153f11845c12799724dbca7ad9ff204e7d7351170bdd3910160405180910390a160405162461bcd60e51b815260206004820152602560248201527f5275672070756c6c20626c6f636b6564206279205472616e73616374696f6e2060448201526411dd585c9960da1b60648201526084015b60405180910390fd5b604080516001600160a01b0384168152602081018390527f02671c3ee999c4d304c153f11845c12799724dbca7ad9ff204e7d7351170bdd3910160405180910390a160405162461bcd60e51b815260206004820152603260248201527f4d616c6963696f7573207472616e73616374696f6e20626c6f636b656420627960448201527108151c985b9cd858dd1a5bdb8811dd585c9960721b6064820152608401610100565b604080516001600160a01b0384168152602081018390527f02671c3ee999c4d304c153f11845c12799724dbca7ad9ff204e7d7351170bdd3910160405180910390a160405162461bcd60e51b815260206004820152602c60248201527f53616e64776963682061747461636b20626c6f636b6564206279205472616e7360448201526b1858dd1a5bdb8811dd585c9960a21b6064820152608401610100565b6000806040838503121561026057600080fd5b82356001600160a01b038116811461027757600080fd5b94602093909301359350505056fea2646970667358221220d3fd4fd82bb7050004f97cc0972dde0eb4a58f796048b632be4500456b8c99e864736f6c63430008130033",
  "linkReferences": {},
  "deployedLinkReferences": {}
}