{"contracts/ProtectedDEX.sol":{"ProtectedDEX":{"abi":[{"inputs":[{"internalType":"address","name":"_transactionGuard","type":"address"}],"stateMutability":"nonpayable","type":"constructor"},{"anonymous":false,"inputs":[{"indexed":true,"internalType":"bytes32","name":"poolId","type":"bytes32"},{"indexed":true,"internalType":"address","name":"provider","type":"address"},{"indexed":false,"internalType":"uint256","name":"amountA","type":"uint256"},{"indexed":false,"internalType":"uint256","name":"amountB","type":"uint256"}],"name":"LiquidityAdded","type":"event"},{"anonymous":false,"inputs":[{"indexed":true,"internalType":"bytes32","name":"poolId","type":"bytes32"},{"indexed":true,"internalType":"address","name":"provider","type":"address"},{"indexed":false,"internalType":"uint256","name":"amountA","type":"uint256"},{"indexed":false,"internalType":"uint256","name":"amountB","type":"uint256"}],"name":"LiquidityRemoved","type":"event"},{"anonymous":false,"inputs":[{"indexed":true,"internalType":"bytes32","name":"poolId","type":"bytes32"},{"indexed":false,"internalType":"address","name":"tokenA","type":"address"},{"indexed":false,"internalType":"address","name":"tokenB","type":"address"}],"name":"PoolCreated","type":"event"},{"anonymous":false,"inputs":[{"indexed":true,"internalType":"bytes32","name":"poolId","type":"bytes32"},{"indexed":true,"internalType":"address","name":"trader","type":"address"},{"indexed":false,"internalType":"address","name":"tokenIn","type":"address"},{"indexed":false,"internalType":"uint256","name":"amountIn","type":"uint256"},{"indexed":false,"internalType":"uint256","name":"amountOut","type":"uint256"}],"name":"Swap","type":"event"},{"inputs":[],"name":"FEE_DENOMINATOR","outputs":[{"internalType":"uint256","name":"","type":"uint256"}],"stateMutability":"view","type":"function"},{"inputs":[],"name":"FEE_RATE","outputs":[{"internalType":"uint256","name":"","type":"uint256"}],"stateMutability":"view","type":"function"},{"inputs":[{"internalType":"bytes32","name":"poolId","type":"bytes32"},{"internalType":"uint256","name":"amountA","type":"uint256"},{"internalType":"uint256","name":"amountB","type":"uint256"},{"internalType":"uint256","name":"minAmountA","type":"uint256"},{"internalType":"uint256","name":"minAmountB","type":"uint256"}],"name":"addLiquidity","outputs":[],"stateMutability":"nonpayable","type":"function"},{"inputs":[{"internalType":"address","name":"tokenA","type":"address"},{"internalType":"address","name":"tokenB","type":"address"}],"name":"createPool","outputs":[{"internalType":"bytes32","name":"poolId","type":"bytes32"}],"stateMutability":"nonpayable","type":"function"},{"inputs":[{"internalType":"bytes32","name":"poolId","type":"bytes32"},{"internalType":"address","name":"tokenIn","type":"address"},{"internalType":"uint256","name":"amountIn","type":"uint256"}],"name":"getAmountOut","outputs":[{"internalType":"uint256","name":"amountOut","type":"uint256"}],"stateMutability":"view","type":"function"},{"inputs":[{"internalType":"bytes32","name":"poolId","type":"bytes32"}],"name":"getPoolInfo","outputs":[{"internalType":"address","name":"tokenA","type":"address"},{"internalType":"address","name":"tokenB","type":"address"},{"internalType":"uint256","name":"reserveA","type":"uint256"},{"internalType":"uint256","name":"reserveB","type":"uint256"},{"internalType":"uint256","name":"totalLiquidity","type":"uint256"}],"stateMutability":"view","type":"function"},{"inputs":[{"internalType":"bytes32","name":"poolId","type":"bytes32"},{"internalType":"address","name":"user","type":"address"}],"name":"getUserLiquidity","outputs":[{"internalType":"uint256","name":"","type":"uint256"}],"stateMutability":"view","type":"function"},{"inputs":[{"internalType":"uint256","name":"","type":"uint256"}],"name":"poolIds","outputs":[{"internalType":"bytes32","name":"","type":"bytes32"}],"stateMutability":"view","type":"function"},{"inputs":[{"internalType":"bytes32","name":"","type":"bytes32"}],"name":"pools","outputs":[{"internalType":"address","name":"tokenA","type":"address"},{"internalType":"address","name":"tokenB","type":"address"},{"internalType":"uint256","name":"reserveA","type":"uint256"},{"internalType":"uint256","name":"reserveB","type":"uint256"},{"internalType":"uint256","name":"totalLiquidity","type":"uint256"}],"stateMutability":"view","type":"function"},{"inputs":[{"internalType":"bytes32","name":"poolId","type":"bytes32"},{"internalType":"uint256","name":"liquidityAmount","type":"uint256"},{"internalType":"uint256","name":"minAmountA","type":"uint256"},{"internalType":"uint256","name":"minAmountB","type":"uint256"}],"name":"removeLiquidity","outputs":[],"stateMutability":"nonpayable","type":"function"},{"inputs":[{"internalType":"bytes32","name":"poolId","type":"bytes32"},{"internalType":"address","name":"tokenIn","type":"address"},{"internalType":"uint256","name":"amountIn","type":"uint256"},{"internalType":"uint256","name":"minAmountOut","type":"uint256"}],"name":"swap","outputs":[],"stateMutability":"nonpayable","type":"function"},{"inputs":[],"name":"transactionGuard","outputs":[{"internalType":"contract TransactionGuard","name":"","type":"address"}],"stateMutability":"view","type":"function"}],"evm":{"bytecode":{"linkReferences":{},"object":"60a060405234801561001057600080fd5b506040516119ab3803806119ab83398101604081905261002f91610045565b60016000556001600160a01b0316608052610075565b60006020828403121561005757600080fd5b81516001600160a01b038116811461006e57600080fd5b9392505050565b6080516118ff6100ac600039600081816101cc015281816102e10152818161087d01528181610dde01526112cc01526118ff6000f3fe608060405234801561001057600080fd5b50600436106100b45760003560e01c80637cb1403a116100715780637cb1403a146101a15780639c4c2748146101b4578063abb9fe52146101c7578063b5217bb414610206578063d73792a914610250578063e34336151461025957600080fd5b80630831fa2e146100b957806309f2c019146100df5780632d11c58a1461015e5780634669660f1461016657806369883b4e1461017b5780637aab64441461018e575b600080fd5b6100cc6100c736600461166c565b61026c565b6040519081526020015b60405180910390f35b61012b6100ed366004611698565b6000908152600160208190526040909120805491810154600282015460038301546004909301546001600160a01b0394851695949092169390929190565b604080516001600160a01b039687168152959094166020860152928401919091526060830152608082015260a0016100d6565b6100cc600381565b6101796101743660046116b1565b610299565b005b6100cc610189366004611698565b610814565b61017961019c3660046116ec565b610835565b6100cc6101af36600461171e565b610c7d565b6101796101c2366004611753565b610d96565b6101ee7f000000000000000000000000000000000000000000000000000000000000000081565b6040516001600160a01b0390911681526020016100d6565b61012b610214366004611698565b6001602081905260009182526040909120805491810154600282015460038301546004909301546001600160a01b039485169490921692909185565b6100cc6103e881565b6100cc61026736600461178e565b611283565b60008281526001602090815260408083206001600160a01b03851684526005019091529020545b92915050565b600033600036426040516020016102b394939291906117b8565b60408051808303601f19018152908290528051602090910120637bc54bb960e11b82526004820181905291507f00000000000000000000000000000000000000000000000000000000000000006001600160a01b03169063f78a977290602401602060405180830381865afa158015610330573d6000803e3d6000fd5b505050506040513d601f19601f8201168201806040525081019061035491906117e5565b6103795760405162461bcd60e51b815260040161037090611807565b60405180910390fd5b610381611579565b600085815260016020526040902080546001600160a01b03166103dc5760405162461bcd60e51b8152602060048201526013602482015272141bdbdb08191bd95cc81b9bdd08195e1a5cdd606a1b6044820152606401610370565b80546001600160a01b0386811691161480610406575060018101546001600160a01b038681169116145b6104425760405162461bcd60e51b815260206004820152600d60248201526c24b73b30b634b2103a37b5b2b760991b6044820152606401610370565b600084116104835760405162461bcd60e51b815260206004820152600e60248201526d125b9d985b1a5908185b5bdd5b9d60921b6044820152606401610370565b8054600090819081906001600160a01b038981169116146104bb578354600385015460028601546001600160a01b03909216916104d7565b6001840154600285015460038601546001600160a01b03909216915b9194509250905060006104ed60036103e861186a565b6104f7908961187d565b90506000816105086103e88661187d565b6105129190611894565b61051c848461187d565b61052691906118a7565b9050878110156105785760405162461bcd60e51b815260206004820152601a60248201527f496e73756666696369656e74206f757470757420616d6f756e740000000000006044820152606401610370565b8281106105c05760405162461bcd60e51b8152602060048201526016602482015275496e73756666696369656e74206c697175696469747960501b6044820152606401610370565b6040516323b872dd60e01b8152336004820152306024820152604481018a90526001600160a01b038b16906323b872dd906064016020604051808303816000875af1158015610613573d6000803e3d6000fd5b505050506040513d601f19601f8201168201806040525081019061063791906117e5565b6106785760405162461bcd60e51b8152602060048201526012602482015271151c985b9cd9995c881a5b8819985a5b195960721b6044820152606401610370565b60405163a9059cbb60e01b8152336004820152602481018290526001600160a01b0386169063a9059cbb906044016020604051808303816000875af11580156106c5573d6000803e3d6000fd5b505050506040513d601f19601f820116820180604052508101906106e991906117e5565b61072b5760405162461bcd60e51b8152602060048201526013602482015272151c985b9cd9995c881bdd5d0819985a5b1959606a1b6044820152606401610370565b85546001600160a01b03908116908b160361077a57888660020160008282546107549190611894565b925050819055508086600301600082825461076f919061186a565b909155506107af9050565b8886600301600082825461078e9190611894565b92505081905550808660020160008282546107a9919061186a565b90915550505b604080516001600160a01b038c168152602081018b905290810182905233908c907f2170c741c41531aec20e7c107c24eecfdd15e69c9bb0a8dd37b1840b9e0b207b9060600160405180910390a350505050505061080d6001600055565b5050505050565b6002818154811061082457600080fd5b600091825260209091200154905081565b6000336000364260405160200161084f94939291906117b8565b60408051808303601f19018152908290528051602090910120637bc54bb960e11b82526004820181905291507f00000000000000000000000000000000000000000000000000000000000000006001600160a01b03169063f78a977290602401602060405180830381865afa1580156108cc573d6000803e3d6000fd5b505050506040513d601f19601f820116820180604052508101906108f091906117e5565b61090c5760405162461bcd60e51b815260040161037090611807565b610914611579565b6000858152600160209081526040808320338452600581019092529091205485111561097b5760405162461bcd60e51b8152602060048201526016602482015275496e73756666696369656e74206c697175696469747960501b6044820152606401610370565b60008160040154826002015487610992919061187d565b61099c91906118a7565b9050600082600401548360030154886109b5919061187d565b6109bf91906118a7565b905085821015610a095760405162461bcd60e51b8152602060048201526015602482015274496e73756666696369656e7420616d6f756e74204160581b6044820152606401610370565b84811015610a515760405162461bcd60e51b815260206004820152601560248201527424b739bab33334b1b4b2b73a1030b6b7bab73a102160591b6044820152606401610370565b33600090815260058401602052604081208054899290610a7290849061186a565b9250508190555086836004016000828254610a8d919061186a565b9250508190555081836002016000828254610aa8919061186a565b9250508190555080836003016000828254610ac3919061186a565b9091555050825460405163a9059cbb60e01b8152336004820152602481018490526001600160a01b039091169063a9059cbb906044016020604051808303816000875af1158015610b18573d6000803e3d6000fd5b505050506040513d601f19601f82011682018060405250810190610b3c91906117e5565b610b7c5760405162461bcd60e51b8152602060048201526011602482015270151c985b9cd9995c88104819985a5b1959607a1b6044820152606401610370565b600183015460405163a9059cbb60e01b8152336004820152602481018390526001600160a01b039091169063a9059cbb906044016020604051808303816000875af1158015610bcf573d6000803e3d6000fd5b505050506040513d601f19601f82011682018060405250810190610bf391906117e5565b610c335760405162461bcd60e51b8152602060048201526011602482015270151c985b9cd9995c88108819985a5b1959607a1b6044820152606401610370565b604080518381526020810183905233918a917f317e53ec6bc434475c6a7c12af460342fa47661758139f35045090a232213a0c910160405180910390a350505061080d6001600055565b600083815260016020526040812080546001600160a01b0385811691161480610cb5575060018101546001600160a01b038581169116145b610cf15760405162461bcd60e51b815260206004820152600d60248201526c24b73b30b634b2103a37b5b2b760991b6044820152606401610370565b80546000906001600160a01b03868116911614610d12578160030154610d18565b81600201545b82549091506000906001600160a01b03878116911614610d3c578260020154610d42565b82600301545b90506000610d5360036103e861186a565b610d5d908761187d565b905080610d6c6103e88561187d565b610d769190611894565b610d80838361187d565b610d8a91906118a7565b98975050505050505050565b60003360003642604051602001610db094939291906117b8565b60408051808303601f19018152908290528051602090910120637bc54bb960e11b82526004820181905291507f00000000000000000000000000000000000000000000000000000000000000006001600160a01b03169063f78a977290602401602060405180830381865afa158015610e2d573d6000803e3d6000fd5b505050506040513d601f19601f82011682018060405250810190610e5191906117e5565b610e6d5760405162461bcd60e51b815260040161037090611807565b610e75611579565b600086815260016020526040902080546001600160a01b0316610ed05760405162461bcd60e51b8152602060048201526013602482015272141bdbdb08191bd95cc81b9bdd08195e1a5cdd606a1b6044820152606401610370565b60028101548690869015801590610eeb575060008360030154115b15610f45576000836002015484600301548a610f07919061187d565b610f1191906118a7565b9050878111610f2257809150610f43565b60038401546002850154610f36908a61187d565b610f4091906118a7565b92505b505b85821015610f8d5760405162461bcd60e51b8152602060048201526015602482015274496e73756666696369656e7420616d6f756e74204160581b6044820152606401610370565b84811015610fd55760405162461bcd60e51b815260206004820152601560248201527424b739bab33334b1b4b2b73a1030b6b7bab73a102160591b6044820152606401610370565b82546040516323b872dd60e01b8152336004820152306024820152604481018490526001600160a01b03909116906323b872dd906064016020604051808303816000875af115801561102b573d6000803e3d6000fd5b505050506040513d601f19601f8201168201806040525081019061104f91906117e5565b61108f5760405162461bcd60e51b8152602060048201526011602482015270151c985b9cd9995c88104819985a5b1959607a1b6044820152606401610370565b60018301546040516323b872dd60e01b8152336004820152306024820152604481018390526001600160a01b03909116906323b872dd906064016020604051808303816000875af11580156110e8573d6000803e3d6000fd5b505050506040513d601f19601f8201168201806040525081019061110c91906117e5565b61114c5760405162461bcd60e51b8152602060048201526011602482015270151c985b9cd9995c88108819985a5b1959607a1b6044820152606401610370565b600083600401546000036111735761116c611167838561187d565b6115d2565b90506111bb565b6111b8846002015485600401548561118b919061187d565b61119591906118a7565b600386015460048701546111a9908661187d565b6111b391906118a7565b61163a565b90505b828460020160008282546111cf9190611894565b92505081905550818460030160008282546111ea9190611894565b92505081905550808460040160008282546112059190611894565b90915550503360009081526005850160205260408120805483929061122b908490611894565b9091555050604080518481526020810184905233918c917f47b0d68dd7ea64624970139aa6c676e4e099d12cee4af2dfe393f2353fea86b1910160405180910390a35050505061127b6001600055565b505050505050565b600080336000364260405160200161129e94939291906117b8565b60408051808303601f19018152908290528051602090910120637bc54bb960e11b82526004820181905291507f00000000000000000000000000000000000000000000000000000000000000006001600160a01b03169063f78a977290602401602060405180830381865afa15801561131b573d6000803e3d6000fd5b505050506040513d601f19601f8201168201806040525081019061133f91906117e5565b61135b5760405162461bcd60e51b815260040161037090611807565b826001600160a01b0316846001600160a01b0316036113af5760405162461bcd60e51b815260206004820152601060248201526f4964656e746963616c20746f6b656e7360801b6044820152606401610370565b6001600160a01b038416158015906113cf57506001600160a01b03831615155b61140a5760405162461bcd60e51b815260206004820152600c60248201526b5a65726f206164647265737360a01b6044820152606401610370565b826001600160a01b0316846001600160a01b03161115611428579192915b6040516bffffffffffffffffffffffff19606086811b8216602084015285901b16603482015260480160408051601f198184030181529181528151602092830120600081815260019093529120549092506001600160a01b0316156114c55760405162461bcd60e51b8152602060048201526013602482015272506f6f6c20616c72656164792065786973747360681b6044820152606401610370565b600082815260016020818152604080842080546001600160a01b038a81166001600160a01b0319928316811784558387018054928c169290931682179092556002805496870181559096527f405787fa12a823e0f2b7631cc41b3ba8828b3321ca811111fa75cd3aa3bb5ace9094018790558151938452918301939093529184917fc0c143d18100b0ec0b6c08cc52247dd860ffd3fc2af30733326e5f980c19635a910160405180910390a2505092915050565b6002600054036115cb5760405162461bcd60e51b815260206004820152601f60248201527f5265656e7472616e637947756172643a207265656e7472616e742063616c6c006044820152606401610370565b6002600055565b6000816000036115e457506000919050565b600060026115f3846001611894565b6115fd91906118a7565b9050825b8082101561163357508060028161161881876118a7565b6116229190611894565b61162c91906118a7565b9150611601565b9392505050565b60008183106116495781611633565b5090919050565b80356001600160a01b038116811461166757600080fd5b919050565b6000806040838503121561167f57600080fd5b8235915061168f60208401611650565b90509250929050565b6000602082840312156116aa57600080fd5b5035919050565b600080600080608085870312156116c757600080fd5b843593506116d760208601611650565b93969395505050506040820135916060013590565b6000806000806080858703121561170257600080fd5b5050823594602084013594506040840135936060013592509050565b60008060006060848603121561173357600080fd5b8335925061174360208501611650565b9150604084013590509250925092565b600080600080600060a0868803121561176b57600080fd5b505083359560208501359550604085013594606081013594506080013592509050565b600080604083850312156117a157600080fd5b6117aa83611650565b915061168f60208401611650565b6bffffffffffffffffffffffff198560601b16815282846014830137601492019182015260340192915050565b6000602082840312156117f757600080fd5b8151801515811461163357600080fd5b6020808252602d908201527f50726f7465637465644445583a205472616e73616374696f6e20626c6f636b6560408201526c1908189e48199a5c995dd85b1b609a1b606082015260800190565b634e487b7160e01b600052601160045260246000fd5b8181038181111561029357610293611854565b808202811582820484141761029357610293611854565b8082018082111561029357610293611854565b6000826118c457634e487b7160e01b600052601260045260246000fd5b50049056fea26469706673582212206f72cf8ac55ce9478299ba75a721f74ecd5ffc50d05aaaf0a29e56103f01f54f64736f6c63430008130033","opcodes":"PUSH1 0xA0 PUSH1 0x40 MSTORE CALLVALUE DUP1 ISZERO PUSH2 0x10 JUMPI PUSH1 0x0 DUP1 REVERT JUMPDEST POP PUSH1 0x40 MLOAD PUSH2 0x19AB CODESIZE SUB DUP1 PUSH2 0x19AB DUP4 CODECOPY DUP2 ADD PUSH1 0x40 DUP2 SWAP1 MSTORE PUSH2 0x2F SWAP2 PUSH2 0x45 JUMP JUMPDEST PUSH1 0x1 PUSH1 0x0 SSTORE PUSH1 0x1 PUSH1 0x1 PUSH1 0xA0 SHL SUB AND PUSH1 0x80 MSTORE PUSH2 0x75 JUMP JUMPDEST PUSH1 0x0 PUSH1 0x20 DUP3 DUP5 SUB SLT ISZERO PUSH2 0x57 JUMPI PUSH1 0x0 DUP1 REVERT JUMPDEST DUP2 MLOAD PUSH1 0x1 PUSH1 0x1 PUSH1 0xA0 SHL SUB DUP2 AND DUP2 EQ PUSH2 0x6E JUMPI PUSH1 0x0 DUP1 REVERT JUMPDEST SWAP4 SWAP3 POP POP POP JUMP JUMPDEST PUSH1 0x80 MLOAD PUSH2 0x18FF PUSH2 0xAC PUSH1 0x0 CODECOPY PUSH1 0x0 DUP2 DUP2 PUSH2 0x1CC ADD MSTORE DUP2 DUP2 PUSH2 0x2E1 ADD MSTORE DUP2 DUP2 PUSH2 0x87D ADD MSTORE DUP2 DUP2 PUSH2 0xDDE ADD MSTORE PUSH2 0x12CC ADD MSTORE PUSH2 0x18FF PUSH1 0x0 RETURN INVALID PUSH1 0x80 PUSH1 0x40 MSTORE CALLVALUE DUP1 ISZERO PUSH2 0x10 JUMPI PUSH1 0x0 DUP1 REVERT JUMPDEST POP PUSH1 0x4 CALLDATASIZE LT PUSH2 0xB4 JUMPI PUSH1 0x0 CALLDATALOAD PUSH1 0xE0 SHR DUP1 PUSH4 0x7CB1403A GT PUSH2 0x71 JUMPI DUP1 PUSH4 0x7CB1403A EQ PUSH2 0x1A1 JUMPI DUP1 PUSH4 0x9C4C2748 EQ PUSH2 0x1B4 JUMPI DUP1 PUSH4 0xABB9FE52 EQ PUSH2 0x1C7 JUMPI DUP1 PUSH4 0xB5217BB4 EQ PUSH2 0x206 JUMPI DUP1 PUSH4 0xD73792A9 EQ PUSH2 0x250 JUMPI DUP1 PUSH4 0xE3433615 EQ PUSH2 0x259 JUMPI PUSH1 0x0 DUP1 REVERT JUMPDEST DUP1 PUSH4 0x831FA2E EQ PUSH2 0xB9 JUMPI DUP1 PUSH4 0x9F2C019 EQ PUSH2 0xDF JUMPI DUP1 PUSH4 0x2D11C58A EQ PUSH2 0x15E JUMPI DUP1 PUSH4 0x4669660F EQ PUSH2 0x166 JUMPI DUP1 PUSH4 0x69883B4E EQ PUSH2 0x17B JUMPI DUP1 PUSH4 0x7AAB6444 EQ PUSH2 0x18E JUMPI JUMPDEST PUSH1 0x0 DUP1 REVERT JUMPDEST PUSH2 0xCC PUSH2 0xC7 CALLDATASIZE PUSH1 0x4 PUSH2 0x166C JUMP JUMPDEST PUSH2 0x26C JUMP JUMPDEST PUSH1 0x40 MLOAD SWAP1 DUP2 MSTORE PUSH1 0x20 ADD JUMPDEST PUSH1 0x40 MLOAD DUP1 SWAP2 SUB SWAP1 RETURN JUMPDEST PUSH2 0x12B PUSH2 0xED CALLDATASIZE PUSH1 0x4 PUSH2 0x1698 JUMP JUMPDEST PUSH1 0x0 SWAP1 DUP2 MSTORE PUSH1 0x1 PUSH1 0x20 DUP2 SWAP1 MSTORE PUSH1 0x40 SWAP1 SWAP2 KECCAK256 DUP1 SLOAD SWAP2 DUP2 ADD SLOAD PUSH1 0x2 DUP3 ADD SLOAD PUSH1 0x3 DUP4 ADD SLOAD PUSH1 0x4 SWAP1 SWAP4 ADD SLOAD PUSH1 0x1 PUSH1 0x1 PUSH1 0xA0 SHL SUB SWAP5 DUP6 AND SWAP6 SWAP5 SWAP1 SWAP3 AND SWAP4 SWAP1 SWAP3 SWAP2 SWAP1 JUMP JUMPDEST PUSH1 0x40 DUP1 MLOAD PUSH1 0x1 PUSH1 0x1 PUSH1 0xA0 SHL SUB SWAP7 DUP8 AND DUP2 MSTORE SWAP6 SWAP1 SWAP5 AND PUSH1 0x20 DUP7 ADD MSTORE SWAP3 DUP5 ADD SWAP2 SWAP1 SWAP2 MSTORE PUSH1 0x60 DUP4 ADD MSTORE PUSH1 0x80 DUP3 ADD MSTORE PUSH1 0xA0 ADD PUSH2 0xD6 JUMP JUMPDEST PUSH2 0xCC PUSH1 0x3 DUP2 JUMP JUMPDEST PUSH2 0x179 PUSH2 0x174 CALLDATASIZE PUSH1 0x4 PUSH2 0x16B1 JUMP JUMPDEST PUSH2 0x299 JUMP JUMPDEST STOP JUMPDEST PUSH2 0xCC PUSH2 0x189 CALLDATASIZE PUSH1 0x4 PUSH2 0x1698 JUMP JUMPDEST PUSH2 0x814 JUMP JUMPDEST PUSH2 0x179 PUSH2 0x19C CALLDATASIZE PUSH1 0x4 PUSH2 0x16EC JUMP JUMPDEST PUSH2 0x835 JUMP JUMPDEST PUSH2 0xCC PUSH2 0x1AF CALLDATASIZE PUSH1 0x4 PUSH2 0x171E JUMP JUMPDEST PUSH2 0xC7D JUMP JUMPDEST PUSH2 0x179 PUSH2 0x1C2 CALLDATASIZE PUSH1 0x4 PUSH2 0x1753 JUMP JUMPDEST PUSH2 0xD96 JUMP JUMPDEST PUSH2 0x1EE PUSH32 0x0 DUP2 JUMP JUMPDEST PUSH1 0x40 MLOAD PUSH1 0x1 PUSH1 0x1 PUSH1 0xA0 SHL SUB SWAP1 SWAP2 AND DUP2 MSTORE PUSH1 0x20 ADD PUSH2 0xD6 JUMP JUMPDEST PUSH2 0x12B PUSH2 0x214 CALLDATASIZE PUSH1 0x4 PUSH2 0x1698 JUMP JUMPDEST PUSH1 0x1 PUSH1 0x20 DUP2 SWAP1 MSTORE PUSH1 0x0 SWAP2 DUP3 MSTORE PUSH1 0x40 SWAP1 SWAP2 KECCAK256 DUP1 SLOAD SWAP2 DUP2 ADD SLOAD PUSH1 0x2 DUP3 ADD SLOAD PUSH1 0x3 DUP4 ADD SLOAD PUSH1 0x4 SWAP1 SWAP4 ADD SLOAD PUSH1 0x1 PUSH1 0x1 PUSH1 0xA0 SHL SUB SWAP5 DUP6 AND SWAP5 SWAP1 SWAP3 AND SWAP3 SWAP1 SWAP2 DUP6 JUMP JUMPDEST PUSH2 0xCC PUSH2 0x3E8 DUP2 JUMP JUMPDEST PUSH2 0xCC PUSH2 0x267 CALLDATASIZE PUSH1 0x4 PUSH2 0x178E JUMP JUMPDEST PUSH2 0x1283 JUMP JUMPDEST PUSH1 0x0 DUP3 DUP2 MSTORE PUSH1 0x1 PUSH1 0x20 SWAP1 DUP2 MSTORE PUSH1 0x40 DUP1 DUP4 KECCAK256 PUSH1 0x1 PUSH1 0x1 PUSH1 0xA0 SHL SUB DUP6 AND DUP5 MSTORE PUSH1 0x5 ADD SWAP1 SWAP2 MSTORE SWAP1 KECCAK256 SLOAD JUMPDEST SWAP3 SWAP2 POP POP JUMP JUMPDEST PUSH1 0x0 CALLER PUSH1 0x0 CALLDATASIZE TIMESTAMP PUSH1 0x40 MLOAD PUSH1 0x20 ADD PUSH2 0x2B3 SWAP5 SWAP4 SWAP3 SWAP2 SWAP1 PUSH2 0x17B8 JUMP JUMPDEST PUSH1 0x40 DUP1 MLOAD DUP1 DUP4 SUB PUSH1 0x1F NOT ADD DUP2 MSTORE SWAP1 DUP3 SWAP1 MSTORE DUP1 MLOAD PUSH1 0x20 SWAP1 SWAP2 ADD KECCAK256 PUSH4 0x7BC54BB9 PUSH1 0xE1 SHL DUP3 MSTORE PUSH1 0x4 DUP3 ADD DUP2 SWAP1 MSTORE SWAP2 POP PUSH32 0x0 PUSH1 0x1 PUSH1 0x1 PUSH1 0xA0 SHL SUB AND SWAP1 PUSH4 0xF78A9772 SWAP1 PUSH1 0x24 ADD PUSH1 0x20 PUSH1 0x40 MLOAD DUP1 DUP4 SUB DUP2 DUP7 GAS STATICCALL ISZERO DUP1 ISZERO PUSH2 0x330 JUMPI RETURNDATASIZE PUSH1 0x0 DUP1 RETURNDATACOPY RETURNDATASIZE PUSH1 0x0 REVERT JUMPDEST POP POP POP POP PUSH1 0x40 MLOAD RETURNDATASIZE PUSH1 0x1F NOT PUSH1 0x1F DUP3 ADD AND DUP3 ADD DUP1 PUSH1 0x40 MSTORE POP DUP2 ADD SWAP1 PUSH2 0x354 SWAP2 SWAP1 PUSH2 0x17E5 JUMP JUMPDEST PUSH2 0x379 JUMPI PUSH1 0x40 MLOAD PUSH3 0x461BCD PUSH1 0xE5 SHL DUP2 MSTORE PUSH1 0x4 ADD PUSH2 0x370 SWAP1 PUSH2 0x1807 JUMP JUMPDEST PUSH1 0x40 MLOAD DUP1 SWAP2 SUB SWAP1 REVERT JUMPDEST PUSH2 0x381 PUSH2 0x1579 JUMP JUMPDEST PUSH1 0x0 DUP6 DUP2 MSTORE PUSH1 0x1 PUSH1 0x20 MSTORE PUSH1 0x40 SWAP1 KECCAK256 DUP1 SLOAD PUSH1 0x1 PUSH1 0x1 PUSH1 0xA0 SHL SUB AND PUSH2 0x3DC JUMPI PUSH1 0x40 MLOAD PUSH3 0x461BCD PUSH1 0xE5 SHL DUP2 MSTORE PUSH1 0x20 PUSH1 0x4 DUP3 ADD MSTORE PUSH1 0x13 PUSH1 0x24 DUP3 ADD MSTORE PUSH19 0x141BDBDB08191BD95CC81B9BDD08195E1A5CDD PUSH1 0x6A SHL PUSH1 0x44 DUP3 ADD MSTORE PUSH1 0x64 ADD PUSH2 0x370 JUMP JUMPDEST DUP1 SLOAD PUSH1 0x1 PUSH1 0x1 PUSH1 0xA0 SHL SUB DUP7 DUP2 AND SWAP2 AND EQ DUP1 PUSH2 0x406 JUMPI POP PUSH1 0x1 DUP2 ADD SLOAD PUSH1 0x1 PUSH1 0x1 PUSH1 0xA0 SHL SUB DUP7 DUP2 AND SWAP2 AND EQ JUMPDEST PUSH2 0x442 JUMPI PUSH1 0x40 MLOAD PUSH3 0x461BCD PUSH1 0xE5 SHL DUP2 MSTORE PUSH1 0x20 PUSH1 0x4 DUP3 ADD MSTORE PUSH1 0xD PUSH1 0x24 DUP3 ADD MSTORE PUSH13 0x24B73B30B634B2103A37B5B2B7 PUSH1 0x99 SHL PUSH1 0x44 DUP3 ADD MSTORE PUSH1 0x64 ADD PUSH2 0x370 JUMP JUMPDEST PUSH1 0x0 DUP5 GT PUSH2 0x483 JUMPI PUSH1 0x40 MLOAD PUSH3 0x461BCD PUSH1 0xE5 SHL DUP2 MSTORE PUSH1 0x20 PUSH1 0x4 DUP3 ADD MSTORE PUSH1 0xE PUSH1 0x24 DUP3 ADD MSTORE PUSH14 0x125B9D985B1A5908185B5BDD5B9D PUSH1 0x92 SHL PUSH1 0x44 DUP3 ADD MSTORE PUSH1 0x64 ADD PUSH2 0x370 JUMP JUMPDEST DUP1 SLOAD PUSH1 0x0 SWAP1 DUP2 SWAP1 DUP2 SWAP1 PUSH1 0x1 PUSH1 0x1 PUSH1 0xA0 SHL SUB DUP10 DUP2 AND SWAP2 AND EQ PUSH2 0x4BB JUMPI DUP4 SLOAD PUSH1 0x3 DUP6 ADD SLOAD PUSH1 0x2 DUP7 ADD SLOAD PUSH1 0x1 PUSH1 0x1 PUSH1 0xA0 SHL SUB SWAP1 SWAP3 AND SWAP2 PUSH2 0x4D7 JUMP JUMPDEST PUSH1 0x1 DUP5 ADD SLOAD PUSH1 0x2 DUP6 ADD SLOAD PUSH1 0x3 DUP7 ADD SLOAD PUSH1 0x1 PUSH1 0x1 PUSH1 0xA0 SHL SUB SWAP1 SWAP3 AND SWAP2 JUMPDEST SWAP2 SWAP5 POP SWAP3 POP SWAP1 POP PUSH1 0x0 PUSH2 0x4ED PUSH1 0x3 PUSH2 0x3E8 PUSH2 0x186A JUMP JUMPDEST PUSH2 0x4F7 SWAP1 DUP10 PUSH2 0x187D JUMP JUMPDEST SWAP1 POP PUSH1 0x0 DUP2 PUSH2 0x508 PUSH2 0x3E8 DUP7 PUSH2 0x187D JUMP JUMPDEST PUSH2 0x512 SWAP2 SWAP1 PUSH2 0x1894 JUMP JUMPDEST PUSH2 0x51C DUP5 DUP5 PUSH2 0x187D JUMP JUMPDEST PUSH2 0x526 SWAP2 SWAP1 PUSH2 0x18A7 JUMP JUMPDEST SWAP1 POP DUP8 DUP2 LT ISZERO PUSH2 0x578 JUMPI PUSH1 0x40 MLOAD PUSH3 0x461BCD PUSH1 0xE5 SHL DUP2 MSTORE PUSH1 0x20 PUSH1 0x4 DUP3 ADD MSTORE PUSH1 0x1A PUSH1 0x24 DUP3 ADD MSTORE PUSH32 0x496E73756666696369656E74206F757470757420616D6F756E74000000000000 PUSH1 0x44 DUP3 ADD MSTORE PUSH1 0x64 ADD PUSH2 0x370 JUMP JUMPDEST DUP3 DUP2 LT PUSH2 0x5C0 JUMPI PUSH1 0x40 MLOAD PUSH3 0x461BCD PUSH1 0xE5 SHL DUP2 MSTORE PUSH1 0x20 PUSH1 0x4 DUP3 ADD MSTORE PUSH1 0x16 PUSH1 0x24 DUP3 ADD MSTORE PUSH22 0x496E73756666696369656E74206C6971756964697479 PUSH1 0x50 SHL PUSH1 0x44 DUP3 ADD MSTORE PUSH1 0x64 ADD PUSH2 0x370 JUMP JUMPDEST PUSH1 0x40 MLOAD PUSH4 0x23B872DD PUSH1 0xE0 SHL DUP2 MSTORE CALLER PUSH1 0x4 DUP3 ADD MSTORE ADDRESS PUSH1 0x24 DUP3 ADD MSTORE PUSH1 0x44 DUP2 ADD DUP11 SWAP1 MSTORE PUSH1 0x1 PUSH1 0x1 PUSH1 0xA0 SHL SUB DUP12 AND SWAP1 PUSH4 0x23B872DD SWAP1 PUSH1 0x64 ADD PUSH1 0x20 PUSH1 0x40 MLOAD DUP1 DUP4 SUB DUP2 PUSH1 0x0 DUP8 GAS CALL ISZERO DUP1 ISZERO PUSH2 0x613 JUMPI RETURNDATASIZE PUSH1 0x0 DUP1 RETURNDATACOPY RETURNDATASIZE PUSH1 0x0 REVERT JUMPDEST POP POP POP POP PUSH1 0x40 MLOAD RETURNDATASIZE PUSH1 0x1F NOT PUSH1 0x1F DUP3 ADD AND DUP3 ADD DUP1 PUSH1 0x40 MSTORE POP DUP2 ADD SWAP1 PUSH2 0x637 SWAP2 SWAP1 PUSH2 0x17E5 JUMP JUMPDEST PUSH2 0x678 JUMPI PUSH1 0x40 MLOAD PUSH3 0x461BCD PUSH1 0xE5 SHL DUP2 MSTORE PUSH1 0x20 PUSH1 0x4 DUP3 ADD MSTORE PUSH1 0x12 PUSH1 0x24 DUP3 ADD MSTORE PUSH18 0x151C985B9CD9995C881A5B8819985A5B1959 PUSH1 0x72 SHL PUSH1 0x44 DUP3 ADD MSTORE PUSH1 0x64 ADD PUSH2 0x370 JUMP JUMPDEST PUSH1 0x40 MLOAD PUSH4 0xA9059CBB PUSH1 0xE0 SHL DUP2 MSTORE CALLER PUSH1 0x4 DUP3 ADD MSTORE PUSH1 0x24 DUP2 ADD DUP3 SWAP1 MSTORE PUSH1 0x1 PUSH1 0x1 PUSH1 0xA0 SHL SUB DUP7 AND SWAP1 PUSH4 0xA9059CBB SWAP1 PUSH1 0x44 ADD PUSH1 0x20 PUSH1 0x40 MLOAD DUP1 DUP4 SUB DUP2 PUSH1 0x0 DUP8 GAS CALL ISZERO DUP1 ISZERO PUSH2 0x6C5 JUMPI RETURNDATASIZE PUSH1 0x0 DUP1 RETURNDATACOPY RETURNDATASIZE PUSH1 0x0 REVERT JUMPDEST POP POP POP POP PUSH1 0x40 MLOAD RETURNDATASIZE PUSH1 0x1F NOT PUSH1 0x1F DUP3 ADD AND DUP3 ADD DUP1 PUSH1 0x40 MSTORE POP DUP2 ADD SWAP1 PUSH2 0x6E9 SWAP2 SWAP1 PUSH2 0x17E5 JUMP JUMPDEST PUSH2 0x72B JUMPI PUSH1 0x40 MLOAD PUSH3 0x461BCD PUSH1 0xE5 SHL DUP2 MSTORE PUSH1 0x20 PUSH1 0x4 DUP3 ADD MSTORE PUSH1 0x13 PUSH1 0x24 DUP3 ADD MSTORE PUSH19 0x151C985B9CD9995C881BDD5D0819985A5B1959 PUSH1 0x6A SHL PUSH1 0x44 DUP3 ADD MSTORE PUSH1 0x64 ADD PUSH2 0x370 JUMP JUMPDEST DUP6 SLOAD PUSH1 0x1 PUSH1 0x1 PUSH1 0xA0 SHL SUB SWAP1 DUP2 AND SWAP1 DUP12 AND SUB PUSH2 0x77A JUMPI DUP9 DUP7 PUSH1 0x2 ADD PUSH1 0x0 DUP3 DUP3 SLOAD PUSH2 0x754 SWAP2 SWAP1 PUSH2 0x1894 JUMP JUMPDEST SWAP3 POP POP DUP2 SWAP1 SSTORE POP DUP1 DUP7 PUSH1 0x3 ADD PUSH1 0x0 DUP3 DUP3 SLOAD PUSH2 0x76F SWAP2 SWAP1 PUSH2 0x186A JUMP JUMPDEST SWAP1 SWAP2 SSTORE POP PUSH2 0x7AF SWAP1 POP JUMP JUMPDEST DUP9 DUP7 PUSH1 0x3 ADD PUSH1 0x0 DUP3 DUP3 SLOAD PUSH2 0x78E SWAP2 SWAP1 PUSH2 0x1894 JUMP JUMPDEST SWAP3 POP POP DUP2 SWAP1 SSTORE POP DUP1 DUP7 PUSH1 0x2 ADD PUSH1 0x0 DUP3 DUP3 SLOAD PUSH2 0x7A9 SWAP2 SWAP1 PUSH2 0x186A JUMP JUMPDEST SWAP1 SWAP2 SSTORE POP POP JUMPDEST PUSH1 0x40 DUP1 MLOAD PUSH1 0x1 PUSH1 0x1 PUSH1 0xA0 SHL SUB DUP13 AND DUP2 MSTORE PUSH1 0x20 DUP2 ADD DUP12 SWAP1 MSTORE SWAP1 DUP2 ADD DUP3 SWAP1 MSTORE CALLER SWAP1 DUP13 SWAP1 PUSH32 0x2170C741C41531AEC20E7C107C24EECFDD15E69C9BB0A8DD37B1840B9E0B207B SWAP1 PUSH1 0x60 ADD PUSH1 0x40 MLOAD DUP1 SWAP2 SUB SWAP1 LOG3 POP POP POP POP POP POP PUSH2 0x80D PUSH1 0x1 PUSH1 0x0 SSTORE JUMP JUMPDEST POP POP POP POP POP JUMP JUMPDEST PUSH1 0x2 DUP2 DUP2 SLOAD DUP2 LT PUSH2 0x824 JUMPI PUSH1 0x0 DUP1 REVERT JUMPDEST PUSH1 0x0 SWAP2 DUP3 MSTORE PUSH1 0x20 SWAP1 SWAP2 KECCAK256 ADD SLOAD SWAP1 POP DUP2 JUMP JUMPDEST PUSH1 0x0 CALLER PUSH1 0x0 CALLDATASIZE TIMESTAMP PUSH1 0x40 MLOAD PUSH1 0x20 ADD PUSH2 0x84F SWAP5 SWAP4 SWAP3 SWAP2 SWAP1 PUSH2 0x17B8 JUMP JUMPDEST PUSH1 0x40 DUP1 MLOAD DUP1 DUP4 SUB PUSH1 0x1F NOT ADD DUP2 MSTORE SWAP1 DUP3 SWAP1 MSTORE DUP1 MLOAD PUSH1 0x20 SWAP1 SWAP2 ADD KECCAK256 PUSH4 0x7BC54BB9 PUSH1 0xE1 SHL DUP3 MSTORE PUSH1 0x4 DUP3 ADD DUP2 SWAP1 MSTORE SWAP2 POP PUSH32 0x0 PUSH1 0x1 PUSH1 0x1 PUSH1 0xA0 SHL SUB AND SWAP1 PUSH4 0xF78A9772 SWAP1 PUSH1 0x24 ADD PUSH1 0x20 PUSH1 0x40 MLOAD DUP1 DUP4 SUB DUP2 DUP7 GAS STATICCALL ISZERO DUP1 ISZERO PUSH2 0x8CC JUMPI RETURNDATASIZE PUSH1 0x0 DUP1 RETURNDATACOPY RETURNDATASIZE PUSH1 0x0 REVERT JUMPDEST POP POP POP POP PUSH1 0x40 MLOAD RETURNDATASIZE PUSH1 0x1F NOT PUSH1 0x1F DUP3 ADD AND DUP3 ADD DUP1 PUSH1 0x40 MSTORE POP DUP2 ADD SWAP1 PUSH2 0x8F0 SWAP2 SWAP1 PUSH2 0x17E5 JUMP JUMPDEST PUSH2 0x90C JUMPI PUSH1 0x40 MLOAD PUSH3 0x461BCD PUSH1 0xE5 SHL DUP2 MSTORE PUSH1 0x4 ADD PUSH2 0x370 SWAP1 PUSH2 0x1807 JUMP JUMPDEST PUSH2 0x914 PUSH2 0x1579 JUMP JUMPDEST PUSH1 0x0 DUP6 DUP2 MSTORE PUSH1 0x1 PUSH1 0x20 SWAP1 DUP2 MSTORE PUSH1 0x40 DUP1 DUP4 KECCAK256 CALLER DUP5 MSTORE PUSH1 0x5 DUP2 ADD SWAP1 SWAP3 MSTORE SWAP1 SWAP2 KECCAK256 SLOAD DUP6 GT ISZERO PUSH2 0x97B JUMPI PUSH1 0x40 MLOAD PUSH3 0x461BCD PUSH1 0xE5 SHL DUP2 MSTORE PUSH1 0x20 PUSH1 0x4 DUP3 ADD MSTORE PUSH1 0x16 PUSH1 0x24 DUP3 ADD MSTORE PUSH22 0x496E73756666696369656E74206C6971756964697479 PUSH1 0x50 SHL PUSH1 0x44 DUP3 ADD MSTORE PUSH1 0x64 ADD PUSH2 0x370 JUMP JUMPDEST PUSH1 0x0 DUP2 PUSH1 0x4 ADD SLOAD DUP3 PUSH1 0x2 ADD SLOAD DUP8 PUSH2 0x992 SWAP2 SWAP1 PUSH2 0x187D JUMP JUMPDEST PUSH2 0x99C SWAP2 SWAP1 PUSH2 0x18A7 JUMP JUMPDEST SWAP1 POP PUSH1 0x0 DUP3 PUSH1 0x4 ADD SLOAD DUP4 PUSH1 0x3 ADD SLOAD DUP9 PUSH2 0x9B5 SWAP2 SWAP1 PUSH2 0x187D JUMP JUMPDEST PUSH2 0x9BF SWAP2 SWAP1 PUSH2 0x18A7 JUMP JUMPDEST SWAP1 POP DUP6 DUP3 LT ISZERO PUSH2 0xA09 JUMPI PUSH1 0x40 MLOAD PUSH3 0x461BCD PUSH1 0xE5 SHL DUP2 MSTORE PUSH1 0x20 PUSH1 0x4 DUP3 ADD MSTORE PUSH1 0x15 PUSH1 0x24 DUP3 ADD MSTORE PUSH21 0x496E73756666696369656E7420616D6F756E742041 PUSH1 0x58 SHL PUSH1 0x44 DUP3 ADD MSTORE PUSH1 0x64 ADD PUSH2 0x370 JUMP JUMPDEST DUP5 DUP2 LT ISZERO PUSH2 0xA51 JUMPI PUSH1 0x40 MLOAD PUSH3 0x461BCD PUSH1 0xE5 SHL DUP2 MSTORE PUSH1 0x20 PUSH1 0x4 DUP3 ADD MSTORE PUSH1 0x15 PUSH1 0x24 DUP3 ADD MSTORE PUSH21 0x24B739BAB33334B1B4B2B73A1030B6B7BAB73A1021 PUSH1 0x59 SHL PUSH1 0x44 DUP3 ADD MSTORE PUSH1 0x64 ADD PUSH2 0x370 JUMP JUMPDEST CALLER PUSH1 0x0 SWAP1 DUP2 MSTORE PUSH1 0x5 DUP5 ADD PUSH1 0x20 MSTORE PUSH1 0x40 DUP2 KECCAK256 DUP1 SLOAD DUP10 SWAP3 SWAP1 PUSH2 0xA72 SWAP1 DUP5 SWAP1 PUSH2 0x186A JUMP JUMPDEST SWAP3 POP POP DUP2 SWAP1 SSTORE POP DUP7 DUP4 PUSH1 0x4 ADD PUSH1 0x0 DUP3 DUP3 SLOAD PUSH2 0xA8D SWAP2 SWAP1 PUSH2 0x186A JUMP JUMPDEST SWAP3 POP POP DUP2 SWAP1 SSTORE POP DUP2 DUP4 PUSH1 0x2 ADD PUSH1 0x0 DUP3 DUP3 SLOAD PUSH2 0xAA8 SWAP2 SWAP1 PUSH2 0x186A JUMP JUMPDEST SWAP3 POP POP DUP2 SWAP1 SSTORE POP DUP1 DUP4 PUSH1 0x3 ADD PUSH1 0x0 DUP3 DUP3 SLOAD PUSH2 0xAC3 SWAP2 SWAP1 PUSH2 0x186A JUMP JUMPDEST SWAP1 SWAP2 SSTORE POP POP DUP3 SLOAD PUSH1 0x40 MLOAD PUSH4 0xA9059CBB PUSH1 0xE0 SHL DUP2 MSTORE CALLER PUSH1 0x4 DUP3 ADD MSTORE PUSH1 0x24 DUP2 ADD DUP5 SWAP1 MSTORE PUSH1 0x1 PUSH1 0x1 PUSH1 0xA0 SHL SUB SWAP1 SWAP2 AND SWAP1 PUSH4 0xA9059CBB SWAP1 PUSH1 0x44 ADD PUSH1 0x20 PUSH1 0x40 MLOAD DUP1 DUP4 SUB DUP2 PUSH1 0x0 DUP8 GAS CALL ISZERO DUP1 ISZERO PUSH2 0xB18 JUMPI RETURNDATASIZE PUSH1 0x0 DUP1 RETURNDATACOPY RETURNDATASIZE PUSH1 0x0 REVERT JUMPDEST POP POP POP POP PUSH1 0x40 MLOAD RETURNDATASIZE PUSH1 0x1F NOT PUSH1 0x1F DUP3 ADD AND DUP3 ADD DUP1 PUSH1 0x40 MSTORE POP DUP2 ADD SWAP1 PUSH2 0xB3C SWAP2 SWAP1 PUSH2 0x17E5 JUMP JUMPDEST PUSH2 0xB7C JUMPI PUSH1 0x40 MLOAD PUSH3 0x461BCD PUSH1 0xE5 SHL DUP2 MSTORE PUSH1 0x20 PUSH1 0x4 DUP3 ADD MSTORE PUSH1 0x11 PUSH1 0x24 DUP3 ADD MSTORE PUSH17 0x151C985B9CD9995C88104819985A5B1959 PUSH1 0x7A SHL PUSH1 0x44 DUP3 ADD MSTORE PUSH1 0x64 ADD PUSH2 0x370 JUMP JUMPDEST PUSH1 0x1 DUP4 ADD SLOAD PUSH1 0x40 MLOAD PUSH4 0xA9059CBB PUSH1 0xE0 SHL DUP2 MSTORE CALLER PUSH1 0x4 DUP3 ADD MSTORE PUSH1 0x24 DUP2 ADD DUP4 SWAP1 MSTORE PUSH1 0x1 PUSH1 0x1 PUSH1 0xA0 SHL SUB SWAP1 SWAP2 AND SWAP1 PUSH4 0xA9059CBB SWAP1 PUSH1 0x44 ADD PUSH1 0x20 PUSH1 0x40 MLOAD DUP1 DUP4 SUB DUP2 PUSH1 0x0 DUP8 GAS CALL ISZERO DUP1 ISZERO PUSH2 0xBCF JUMPI RETURNDATASIZE PUSH1 0x0 DUP1 RETURNDATACOPY RETURNDATASIZE PUSH1 0x0 REVERT JUMPDEST POP POP POP POP PUSH1 0x40 MLOAD RETURNDATASIZE PUSH1 0x1F NOT PUSH1 0x1F DUP3 ADD AND DUP3 ADD DUP1 PUSH1 0x40 MSTORE POP DUP2 ADD SWAP1 PUSH2 0xBF3 SWAP2 SWAP1 PUSH2 0x17E5 JUMP JUMPDEST PUSH2 0xC33 JUMPI PUSH1 0x40 MLOAD PUSH3 0x461BCD PUSH1 0xE5 SHL DUP2 MSTORE PUSH1 0x20 PUSH1 0x4 DUP3 ADD MSTORE PUSH1 0x11 PUSH1 0x24 DUP3 ADD MSTORE PUSH17 0x151C985B9CD9995C88108819985A5B1959 PUSH1 0x7A SHL PUSH1 0x44 DUP3 ADD MSTORE PUSH1 0x64 ADD PUSH2 0x370 JUMP JUMPDEST PUSH1 0x40 DUP1 MLOAD DUP4 DUP2 MSTORE PUSH1 0x20 DUP2 ADD DUP4 SWAP1 MSTORE CALLER SWAP2 DUP11 SWAP2 PUSH32 0x317E53EC6BC434475C6A7C12AF460342FA47661758139F35045090A232213A0C SWAP2 ADD PUSH1 0x40 MLOAD DUP1 SWAP2 SUB SWAP1 LOG3 POP POP POP PUSH2 0x80D PUSH1 0x1 PUSH1 0x0 SSTORE JUMP JUMPDEST PUSH1 0x0 DUP4 DUP2 MSTORE PUSH1 0x1 PUSH1 0x20 MSTORE PUSH1 0x40 DUP2 KECCAK256 DUP1 SLOAD PUSH1 0x1 PUSH1 0x1 PUSH1 0xA0 SHL SUB DUP6 DUP2 AND SWAP2 AND EQ DUP1 PUSH2 0xCB5 JUMPI POP PUSH1 0x1 DUP2 ADD SLOAD PUSH1 0x1 PUSH1 0x1 PUSH1 0xA0 SHL SUB DUP6 DUP2 AND SWAP2 AND EQ JUMPDEST PUSH2 0xCF1 JUMPI PUSH1 0x40 MLOAD PUSH3 0x461BCD PUSH1 0xE5 SHL DUP2 MSTORE PUSH1 0x20 PUSH1 0x4 DUP3 ADD MSTORE PUSH1 0xD PUSH1 0x24 DUP3 ADD MSTORE PUSH13 0x24B73B30B634B2103A37B5B2B7 PUSH1 0x99 SHL PUSH1 0x44 DUP3 ADD MSTORE PUSH1 0x64 ADD PUSH2 0x370 JUMP JUMPDEST DUP1 SLOAD PUSH1 0x0 SWAP1 PUSH1 0x1 PUSH1 0x1 PUSH1 0xA0 SHL SUB DUP7 DUP2 AND SWAP2 AND EQ PUSH2 0xD12 JUMPI DUP2 PUSH1 0x3 ADD SLOAD PUSH2 0xD18 JUMP JUMPDEST DUP2 PUSH1 0x2 ADD SLOAD JUMPDEST DUP3 SLOAD SWAP1 SWAP2 POP PUSH1 0x0 SWAP1 PUSH1 0x1 PUSH1 0x1 PUSH1 0xA0 SHL SUB DUP8 DUP2 AND SWAP2 AND EQ PUSH2 0xD3C JUMPI DUP3 PUSH1 0x2 ADD SLOAD PUSH2 0xD42 JUMP JUMPDEST DUP3 PUSH1 0x3 ADD SLOAD JUMPDEST SWAP1 POP PUSH1 0x0 PUSH2 0xD53 PUSH1 0x3 PUSH2 0x3E8 PUSH2 0x186A JUMP JUMPDEST PUSH2 0xD5D SWAP1 DUP8 PUSH2 0x187D JUMP JUMPDEST SWAP1 POP DUP1 PUSH2 0xD6C PUSH2 0x3E8 DUP6 PUSH2 0x187D JUMP JUMPDEST PUSH2 0xD76 SWAP2 SWAP1 PUSH2 0x1894 JUMP JUMPDEST PUSH2 0xD80 DUP4 DUP4 PUSH2 0x187D JUMP JUMPDEST PUSH2 0xD8A SWAP2 SWAP1 PUSH2 0x18A7 JUMP JUMPDEST SWAP9 SWAP8 POP POP POP POP POP POP POP POP JUMP JUMPDEST PUSH1 0x0 CALLER PUSH1 0x0 CALLDATASIZE TIMESTAMP PUSH1 0x40 MLOAD PUSH1 0x20 ADD PUSH2 0xDB0 SWAP5 SWAP4 SWAP3 SWAP2 SWAP1 PUSH2 0x17B8 JUMP JUMPDEST PUSH1 0x40 DUP1 MLOAD DUP1 DUP4 SUB PUSH1 0x1F NOT ADD DUP2 MSTORE SWAP1 DUP3 SWAP1 MSTORE DUP1 MLOAD PUSH1 0x20 SWAP1 SWAP2 ADD KECCAK256 PUSH4 0x7BC54BB9 PUSH1 0xE1 SHL DUP3 MSTORE PUSH1 0x4 DUP3 ADD DUP2 SWAP1 MSTORE SWAP2 POP PUSH32 0x0 PUSH1 0x1 PUSH1 0x1 PUSH1 0xA0 SHL SUB AND SWAP1 PUSH4 0xF78A9772 SWAP1 PUSH1 0x24 ADD PUSH1 0x20 PUSH1 0x40 MLOAD DUP1 DUP4 SUB DUP2 DUP7 GAS STATICCALL ISZERO DUP1 ISZERO PUSH2 0xE2D JUMPI RETURNDATASIZE PUSH1 0x0 DUP1 RETURNDATACOPY RETURNDATASIZE PUSH1 0x0 REVERT JUMPDEST POP POP POP POP PUSH1 0x40 MLOAD RETURNDATASIZE PUSH1 0x1F NOT PUSH1 0x1F DUP3 ADD AND DUP3 ADD DUP1 PUSH1 0x40 MSTORE POP DUP2 ADD SWAP1 PUSH2 0xE51 SWAP2 SWAP1 PUSH2 0x17E5 JUMP JUMPDEST PUSH2 0xE6D JUMPI PUSH1 0x40 MLOAD PUSH3 0x461BCD PUSH1 0xE5 SHL DUP2 MSTORE PUSH1 0x4 ADD PUSH2 0x370 SWAP1 PUSH2 0x1807 JUMP JUMPDEST PUSH2 0xE75 PUSH2 0x1579 JUMP JUMPDEST PUSH1 0x0 DUP7 DUP2 MSTORE PUSH1 0x1 PUSH1 0x20 MSTORE PUSH1 0x40 SWAP1 KECCAK256 DUP1 SLOAD PUSH1 0x1 PUSH1 0x1 PUSH1 0xA0 SHL SUB AND PUSH2 0xED0 JUMPI PUSH1 0x40 MLOAD PUSH3 0x461BCD PUSH1 0xE5 SHL DUP2 MSTORE PUSH1 0x20 PUSH1 0x4 DUP3 ADD MSTORE PUSH1 0x13 PUSH1 0x24 DUP3 ADD MSTORE PUSH19 0x141BDBDB08191BD95CC81B9BDD08195E1A5CDD PUSH1 0x6A SHL PUSH1 0x44 DUP3 ADD MSTORE PUSH1 0x64 ADD PUSH2 0x370 JUMP JUMPDEST PUSH1 0x2 DUP2 ADD SLOAD DUP7 SWAP1 DUP7 SWAP1 ISZERO DUP1 ISZERO SWAP1 PUSH2 0xEEB JUMPI POP PUSH1 0x0 DUP4 PUSH1 0x3 ADD SLOAD GT JUMPDEST ISZERO PUSH2 0xF45 JUMPI PUSH1 0x0 DUP4 PUSH1 0x2 ADD SLOAD DUP5 PUSH1 0x3 ADD SLOAD DUP11 PUSH2 0xF07 SWAP2 SWAP1 PUSH2 0x187D JUMP JUMPDEST PUSH2 0xF11 SWAP2 SWAP1 PUSH2 0x18A7 JUMP JUMPDEST SWAP1 POP DUP8 DUP2 GT PUSH2 0xF22 JUMPI DUP1 SWAP2 POP PUSH2 0xF43 JUMP JUMPDEST PUSH1 0x3 DUP5 ADD SLOAD PUSH1 0x2 DUP6 ADD SLOAD PUSH2 0xF36 SWAP1 DUP11 PUSH2 0x187D JUMP JUMPDEST PUSH2 0xF40 SWAP2 SWAP1 PUSH2 0x18A7 JUMP JUMPDEST SWAP3 POP JUMPDEST POP JUMPDEST DUP6 DUP3 LT ISZERO PUSH2 0xF8D JUMPI PUSH1 0x40 MLOAD PUSH3 0x461BCD PUSH1 0xE5 SHL DUP2 MSTORE PUSH1 0x20 PUSH1 0x4 DUP3 ADD MSTORE PUSH1 0x15 PUSH1 0x24 DUP3 ADD MSTORE PUSH21 0x496E73756666696369656E7420616D6F756E742041 PUSH1 0x58 SHL PUSH1 0x44 DUP3 ADD MSTORE PUSH1 0x64 ADD PUSH2 0x370 JUMP JUMPDEST DUP5 DUP2 LT ISZERO PUSH2 0xFD5 JUMPI PUSH1 0x40 MLOAD PUSH3 0x461BCD PUSH1 0xE5 SHL DUP2 MSTORE PUSH1 0x20 PUSH1 0x4 DUP3 ADD MSTORE PUSH1 0x15 PUSH1 0x24 DUP3 ADD MSTORE PUSH21 0x24B739BAB33334B1B4B2B73A1030B6B7BAB73A1021 PUSH1 0x59 SHL PUSH1 0x44 DUP3 ADD MSTORE PUSH1 0x64 ADD PUSH2 0x370 JUMP JUMPDEST DUP3 SLOAD PUSH1 0x40 MLOAD PUSH4 0x23B872DD PUSH1 0xE0 SHL DUP2 MSTORE CALLER PUSH1 0x4 DUP3 ADD MSTORE ADDRESS PUSH1 0x24 DUP3 ADD MSTORE PUSH1 0x44 DUP2 ADD DUP5 SWAP1 MSTORE PUSH1 0x1 PUSH1 0x1 PUSH1 0xA0 SHL SUB SWAP1 SWAP2 AND SWAP1 PUSH4 0x23B872DD SWAP1 PUSH1 0x64 ADD PUSH1 0x20 PUSH1 0x40 MLOAD DUP1 DUP4 SUB DUP2 PUSH1 0x0 DUP8 GAS CALL ISZERO DUP1 ISZERO PUSH2 0x102B JUMPI RETURNDATASIZE PUSH1 0x0 DUP1 RETURNDATACOPY RETURNDATASIZE PUSH1 0x0 REVERT JUMPDEST POP POP POP POP PUSH1 0x40 MLOAD RETURNDATASIZE PUSH1 0x1F NOT PUSH1 0x1F DUP3 ADD AND DUP3 ADD DUP1 PUSH1 0x40 MSTORE POP DUP2 ADD SWAP1 PUSH2 0x104F SWAP2 SWAP1 PUSH2 0x17E5 JUMP JUMPDEST PUSH2 0x108F JUMPI PUSH1 0x40 MLOAD PUSH3 0x461BCD PUSH1 0xE5 SHL DUP2 MSTORE PUSH1 0x20 PUSH1 0x4 DUP3 ADD MSTORE PUSH1 0x11 PUSH1 0x24 DUP3 ADD MSTORE PUSH17 0x151C985B9CD9995C88104819985A5B1959 PUSH1 0x7A SHL PUSH1 0x44 DUP3 ADD MSTORE PUSH1 0x64 ADD PUSH2 0x370 JUMP JUMPDEST PUSH1 0x1 DUP4 ADD SLOAD PUSH1 0x40 MLOAD PUSH4 0x23B872DD PUSH1 0xE0 SHL DUP2 MSTORE CALLER PUSH1 0x4 DUP3 ADD MSTORE ADDRESS PUSH1 0x24 DUP3 ADD MSTORE PUSH1 0x44 DUP2 ADD DUP4 SWAP1 MSTORE PUSH1 0x1 PUSH1 0x1 PUSH1 0xA0 SHL SUB SWAP1 SWAP2 AND SWAP1 PUSH4 0x23B872DD SWAP1 PUSH1 0x64 ADD PUSH1 0x20 PUSH1 0x40 MLOAD DUP1 DUP4 SUB DUP2 PUSH1 0x0 DUP8 GAS CALL ISZERO DUP1 ISZERO PUSH2 0x10E8 JUMPI RETURNDATASIZE PUSH1 0x0 DUP1 RETURNDATACOPY RETURNDATASIZE PUSH1 0x0 REVERT JUMPDEST POP POP POP POP PUSH1 0x40 MLOAD RETURNDATASIZE PUSH1 0x1F NOT PUSH1 0x1F DUP3 ADD AND DUP3 ADD DUP1 PUSH1 0x40 MSTORE POP DUP2 ADD SWAP1 PUSH2 0x110C SWAP2 SWAP1 PUSH2 0x17E5 JUMP JUMPDEST PUSH2 0x114C JUMPI PUSH1 0x40 MLOAD PUSH3 0x461BCD PUSH1 0xE5 SHL DUP2 MSTORE PUSH1 0x20 PUSH1 0x4 DUP3 ADD MSTORE PUSH1 0x11 PUSH1 0x24 DUP3 ADD MSTORE PUSH17 0x151C985B9CD9995C88108819985A5B1959 PUSH1 0x7A SHL PUSH1 0x44 DUP3 ADD MSTORE PUSH1 0x64 ADD PUSH2 0x370 JUMP JUMPDEST PUSH1 0x0 DUP4 PUSH1 0x4 ADD SLOAD PUSH1 0x0 SUB PUSH2 0x1173 JUMPI PUSH2 0x116C PUSH2 0x1167 DUP4 DUP6 PUSH2 0x187D JUMP JUMPDEST PUSH2 0x15D2 JUMP JUMPDEST SWAP1 POP PUSH2 0x11BB JUMP JUMPDEST PUSH2 0x11B8 DUP5 PUSH1 0x2 ADD SLOAD DUP6 PUSH1 0x4 ADD SLOAD DUP6 PUSH2 0x118B SWAP2 SWAP1 PUSH2 0x187D JUMP JUMPDEST PUSH2 0x1195 SWAP2 SWAP1 PUSH2 0x18A7 JUMP JUMPDEST PUSH1 0x3 DUP7 ADD SLOAD PUSH1 0x4 DUP8 ADD SLOAD PUSH2 0x11A9 SWAP1 DUP7 PUSH2 0x187D JUMP JUMPDEST PUSH2 0x11B3 SWAP2 SWAP1 PUSH2 0x18A7 JUMP JUMPDEST PUSH2 0x163A JUMP JUMPDEST SWAP1 POP JUMPDEST DUP3 DUP5 PUSH1 0x2 ADD PUSH1 0x0 DUP3 DUP3 SLOAD PUSH2 0x11CF SWAP2 SWAP1 PUSH2 0x1894 JUMP JUMPDEST SWAP3 POP POP DUP2 SWAP1 SSTORE POP DUP2 DUP5 PUSH1 0x3 ADD PUSH1 0x0 DUP3 DUP3 SLOAD PUSH2 0x11EA SWAP2 SWAP1 PUSH2 0x1894 JUMP JUMPDEST SWAP3 POP POP DUP2 SWAP1 SSTORE POP DUP1 DUP5 PUSH1 0x4 ADD PUSH1 0x0 DUP3 DUP3 SLOAD PUSH2 0x1205 SWAP2 SWAP1 PUSH2 0x1894 JUMP JUMPDEST SWAP1 SWAP2 SSTORE POP POP CALLER PUSH1 0x0 SWAP1 DUP2 MSTORE PUSH1 0x5 DUP6 ADD PUSH1 0x20 MSTORE PUSH1 0x40 DUP2 KECCAK256 DUP1 SLOAD DUP4 SWAP3 SWAP1 PUSH2 0x122B SWAP1 DUP5 SWAP1 PUSH2 0x1894 JUMP JUMPDEST SWAP1 SWAP2 SSTORE POP POP PUSH1 0x40 DUP1 MLOAD DUP5 DUP2 MSTORE PUSH1 0x20 DUP2 ADD DUP5 SWAP1 MSTORE CALLER SWAP2 DUP13 SWAP2 PUSH32 0x47B0D68DD7EA64624970139AA6C676E4E099D12CEE4AF2DFE393F2353FEA86B1 SWAP2 ADD PUSH1 0x40 MLOAD DUP1 SWAP2 SUB SWAP1 LOG3 POP POP POP POP PUSH2 0x127B PUSH1 0x1 PUSH1 0x0 SSTORE JUMP JUMPDEST POP POP POP POP POP POP JUMP JUMPDEST PUSH1 0x0 DUP1 CALLER PUSH1 0x0 CALLDATASIZE TIMESTAMP PUSH1 0x40 MLOAD PUSH1 0x20 ADD PUSH2 0x129E SWAP5 SWAP4 SWAP3 SWAP2 SWAP1 PUSH2 0x17B8 JUMP JUMPDEST PUSH1 0x40 DUP1 MLOAD DUP1 DUP4 SUB PUSH1 0x1F NOT ADD DUP2 MSTORE SWAP1 DUP3 SWAP1 MSTORE DUP1 MLOAD PUSH1 0x20 SWAP1 SWAP2 ADD KECCAK256 PUSH4 0x7BC54BB9 PUSH1 0xE1 SHL DUP3 MSTORE PUSH1 0x4 DUP3 ADD DUP2 SWAP1 MSTORE SWAP2 POP PUSH32 0x0 PUSH1 0x1 PUSH1 0x1 PUSH1 0xA0 SHL SUB AND SWAP1 PUSH4 0xF78A9772 SWAP1 PUSH1 0x24 ADD PUSH1 0x20 PUSH1 0x40 MLOAD DUP1 DUP4 SUB DUP2 DUP7 GAS STATICCALL ISZERO DUP1 ISZERO PUSH2 0x131B JUMPI RETURNDATASIZE PUSH1 0x0 DUP1 RETURNDATACOPY RETURNDATASIZE PUSH1 0x0 REVERT JUMPDEST POP POP POP POP PUSH1 0x40 MLOAD RETURNDATASIZE PUSH1 0x1F NOT PUSH1 0x1F DUP3 ADD AND DUP3 ADD DUP1 PUSH1 0x40 MSTORE POP DUP2 ADD SWAP1 PUSH2 0x133F SWAP2 SWAP1 PUSH2 0x17E5 JUMP JUMPDEST PUSH2 0x135B JUMPI PUSH1 0x40 MLOAD PUSH3 0x461BCD PUSH1 0xE5 SHL DUP2 MSTORE PUSH1 0x4 ADD PUSH2 0x370 SWAP1 PUSH2 0x1807 JUMP JUMPDEST DUP3 PUSH1 0x1 PUSH1 0x1 PUSH1 0xA0 SHL SUB AND DUP5 PUSH1 0x1 PUSH1 0x1 PUSH1 0xA0 SHL SUB AND SUB PUSH2 0x13AF JUMPI PUSH1 0x40 MLOAD PUSH3 0x461BCD PUSH1 0xE5 SHL DUP2 MSTORE PUSH1 0x20 PUSH1 0x4 DUP3 ADD MSTORE PUSH1 0x10 PUSH1 0x24 DUP3 ADD MSTORE PUSH16 0x4964656E746963616C20746F6B656E73 PUSH1 0x80 SHL PUSH1 0x44 DUP3 ADD MSTORE PUSH1 0x64 ADD PUSH2 0x370 JUMP JUMPDEST PUSH1 0x1 PUSH1 0x1 PUSH1 0xA0 SHL SUB DUP5 AND ISZERO DUP1 ISZERO SWAP1 PUSH2 0x13CF JUMPI POP PUSH1 0x1 PUSH1 0x1 PUSH1 0xA0 SHL SUB DUP4 AND ISZERO ISZERO JUMPDEST PUSH2 0x140A JUMPI PUSH1 0x40 MLOAD PUSH3 0x461BCD PUSH1 0xE5 SHL DUP2 MSTORE PUSH1 0x20 PUSH1 0x4 DUP3 ADD MSTORE PUSH1 0xC PUSH1 0x24 DUP3 ADD MSTORE PUSH12 0x5A65726F2061646472657373 PUSH1 0xA0 SHL PUSH1 0x44 DUP3 ADD MSTORE PUSH1 0x64 ADD PUSH2 0x370 JUMP JUMPDEST DUP3 PUSH1 0x1 PUSH1 0x1 PUSH1 0xA0 SHL SUB AND DUP5 PUSH1 0x1 PUSH1 0x1 PUSH1 0xA0 SHL SUB AND GT ISZERO PUSH2 0x1428 JUMPI SWAP2 SWAP3 SWAP2 JUMPDEST PUSH1 0x40 MLOAD PUSH12 0xFFFFFFFFFFFFFFFFFFFFFFFF NOT PUSH1 0x60 DUP7 DUP2 SHL DUP3 AND PUSH1 0x20 DUP5 ADD MSTORE DUP6 SWAP1 SHL AND PUSH1 0x34 DUP3 ADD MSTORE PUSH1 0x48 ADD PUSH1 0x40 DUP1 MLOAD PUSH1 0x1F NOT DUP2 DUP5 SUB ADD DUP2 MSTORE SWAP2 DUP2 MSTORE DUP2 MLOAD PUSH1 0x20 SWAP3 DUP4 ADD KECCAK256 PUSH1 0x0 DUP2 DUP2 MSTORE PUSH1 0x1 SWAP1 SWAP4 MSTORE SWAP2 KECCAK256 SLOAD SWAP1 SWAP3 POP PUSH1 0x1 PUSH1 0x1 PUSH1 0xA0 SHL SUB AND ISZERO PUSH2 0x14C5 JUMPI PUSH1 0x40 MLOAD PUSH3 0x461BCD PUSH1 0xE5 SHL DUP2 MSTORE PUSH1 0x20 PUSH1 0x4 DUP3 ADD MSTORE PUSH1 0x13 PUSH1 0x24 DUP3 ADD MSTORE PUSH19 0x506F6F6C20616C726561647920657869737473 PUSH1 0x68 SHL PUSH1 0x44 DUP3 ADD MSTORE PUSH1 0x64 ADD PUSH2 0x370 JUMP JUMPDEST PUSH1 0x0 DUP3 DUP2 MSTORE PUSH1 0x1 PUSH1 0x20 DUP2 DUP2 MSTORE PUSH1 0x40 DUP1 DUP5 KECCAK256 DUP1 SLOAD PUSH1 0x1 PUSH1 0x1 PUSH1 0xA0 SHL SUB DUP11 DUP2 AND PUSH1 0x1 PUSH1 0x1 PUSH1 0xA0 SHL SUB NOT SWAP3 DUP4 AND DUP2 OR DUP5 SSTORE DUP4 DUP8 ADD DUP1 SLOAD SWAP3 DUP13 AND SWAP3 SWAP1 SWAP4 AND DUP3 OR SWAP1 SWAP3 SSTORE PUSH1 0x2 DUP1 SLOAD SWAP7 DUP8 ADD DUP2 SSTORE SWAP1 SWAP7 MSTORE PUSH32 0x405787FA12A823E0F2B7631CC41B3BA8828B3321CA811111FA75CD3AA3BB5ACE SWAP1 SWAP5 ADD DUP8 SWAP1 SSTORE DUP2 MLOAD SWAP4 DUP5 MSTORE SWAP2 DUP4 ADD SWAP4 SWAP1 SWAP4 MSTORE SWAP2 DUP5 SWAP2 PUSH32 0xC0C143D18100B0EC0B6C08CC52247DD860FFD3FC2AF30733326E5F980C19635A SWAP2 ADD PUSH1 0x40 MLOAD DUP1 SWAP2 SUB SWAP1 LOG2 POP POP SWAP3 SWAP2 POP POP JUMP JUMPDEST PUSH1 0x2 PUSH1 0x0 SLOAD SUB PUSH2 0x15CB JUMPI PUSH1 0x40 MLOAD PUSH3 0x461BCD PUSH1 0xE5 SHL DUP2 MSTORE PUSH1 0x20 PUSH1 0x4 DUP3 ADD MSTORE PUSH1 0x1F PUSH1 0x24 DUP3 ADD MSTORE PUSH32 0x5265656E7472616E637947756172643A207265656E7472616E742063616C6C00 PUSH1 0x44 DUP3 ADD MSTORE PUSH1 0x64 ADD PUSH2 0x370 JUMP JUMPDEST PUSH1 0x2 PUSH1 0x0 SSTORE JUMP JUMPDEST PUSH1 0x0 DUP2 PUSH1 0x0 SUB PUSH2 0x15E4 JUMPI POP PUSH1 0x0 SWAP2 SWAP1 POP JUMP JUMPDEST PUSH1 0x0 PUSH1 0x2 PUSH2 0x15F3 DUP5 PUSH1 0x1 PUSH2 0x1894 JUMP JUMPDEST PUSH2 0x15FD SWAP2 SWAP1 PUSH2 0x18A7 JUMP JUMPDEST SWAP1 POP DUP3 JUMPDEST DUP1 DUP3 LT ISZERO PUSH2 0x1633 JUMPI POP DUP1 PUSH1 0x2 DUP2 PUSH2 0x1618 DUP2 DUP8 PUSH2 0x18A7 JUMP JUMPDEST PUSH2 0x1622 SWAP2 SWAP1 PUSH2 0x1894 JUMP JUMPDEST PUSH2 0x162C SWAP2 SWAP1 PUSH2 0x18A7 JUMP JUMPDEST SWAP2 POP PUSH2 0x1601 JUMP JUMPDEST SWAP4 SWAP3 POP POP POP JUMP JUMPDEST PUSH1 0x0 DUP2 DUP4 LT PUSH2 0x1649 JUMPI DUP2 PUSH2 0x1633 JUMP JUMPDEST POP SWAP1 SWAP2 SWAP1 POP JUMP JUMPDEST DUP1 CALLDATALOAD PUSH1 0x1 PUSH1 0x1 PUSH1 0xA0 SHL SUB DUP2 AND DUP2 EQ PUSH2 0x1667 JUMPI PUSH1 0x0 DUP1 REVERT JUMPDEST SWAP2 SWAP1 POP JUMP JUMPDEST PUSH1 0x0 DUP1 PUSH1 0x40 DUP4 DUP6 SUB SLT ISZERO PUSH2 0x167F JUMPI PUSH1 0x0 DUP1 REVERT JUMPDEST DUP3 CALLDATALOAD SWAP2 POP PUSH2 0x168F PUSH1 0x20 DUP5 ADD PUSH2 0x1650 JUMP JUMPDEST SWAP1 POP SWAP3 POP SWAP3 SWAP1 POP JUMP JUMPDEST PUSH1 0x0 PUSH1 0x20 DUP3 DUP5 SUB SLT ISZERO PUSH2 0x16AA JUMPI PUSH1 0x0 DUP1 REVERT JUMPDEST POP CALLDATALOAD SWAP2 SWAP1 POP JUMP JUMPDEST PUSH1 0x0 DUP1 PUSH1 0x0 DUP1 PUSH1 0x80 DUP6 DUP8 SUB SLT ISZERO PUSH2 0x16C7 JUMPI PUSH1 0x0 DUP1 REVERT JUMPDEST DUP5 CALLDATALOAD SWAP4 POP PUSH2 0x16D7 PUSH1 0x20 DUP7 ADD PUSH2 0x1650 JUMP JUMPDEST SWAP4 SWAP7 SWAP4 SWAP6 POP POP POP POP PUSH1 0x40 DUP3 ADD CALLDATALOAD SWAP2 PUSH1 0x60 ADD CALLDATALOAD SWAP1 JUMP JUMPDEST PUSH1 0x0 DUP1 PUSH1 0x0 DUP1 PUSH1 0x80 DUP6 DUP8 SUB SLT ISZERO PUSH2 0x1702 JUMPI PUSH1 0x0 DUP1 REVERT JUMPDEST POP POP DUP3 CALLDATALOAD SWAP5 PUSH1 0x20 DUP5 ADD CALLDATALOAD SWAP5 POP PUSH1 0x40 DUP5 ADD CALLDATALOAD SWAP4 PUSH1 0x60 ADD CALLDATALOAD SWAP3 POP SWAP1 POP JUMP JUMPDEST PUSH1 0x0 DUP1 PUSH1 0x0 PUSH1 0x60 DUP5 DUP7 SUB SLT ISZERO PUSH2 0x1733 JUMPI PUSH1 0x0 DUP1 REVERT JUMPDEST DUP4 CALLDATALOAD SWAP3 POP PUSH2 0x1743 PUSH1 0x20 DUP6 ADD PUSH2 0x1650 JUMP JUMPDEST SWAP2 POP PUSH1 0x40 DUP5 ADD CALLDATALOAD SWAP1 POP SWAP3 POP SWAP3 POP SWAP3 JUMP JUMPDEST PUSH1 0x0 DUP1 PUSH1 0x0 DUP1 PUSH1 0x0 PUSH1 0xA0 DUP7 DUP9 SUB SLT ISZERO PUSH2 0x176B JUMPI PUSH1 0x0 DUP1 REVERT JUMPDEST POP POP DUP4 CALLDATALOAD SWAP6 PUSH1 0x20 DUP6 ADD CALLDATALOAD SWAP6 POP PUSH1 0x40 DUP6 ADD CALLDATALOAD SWAP5 PUSH1 0x60 DUP2 ADD CALLDATALOAD SWAP5 POP PUSH1 0x80 ADD CALLDATALOAD SWAP3 POP SWAP1 POP JUMP JUMPDEST PUSH1 0x0 DUP1 PUSH1 0x40 DUP4 DUP6 SUB SLT ISZERO PUSH2 0x17A1 JUMPI PUSH1 0x0 DUP1 REVERT JUMPDEST PUSH2 0x17AA DUP4 PUSH2 0x1650 JUMP JUMPDEST SWAP2 POP PUSH2 0x168F PUSH1 0x20 DUP5 ADD PUSH2 0x1650 JUMP JUMPDEST PUSH12 0xFFFFFFFFFFFFFFFFFFFFFFFF NOT DUP6 PUSH1 0x60 SHL AND DUP2 MSTORE DUP3 DUP5 PUSH1 0x14 DUP4 ADD CALLDATACOPY PUSH1 0x14 SWAP3 ADD SWAP2 DUP3 ADD MSTORE PUSH1 0x34 ADD SWAP3 SWAP2 POP POP JUMP JUMPDEST PUSH1 0x0 PUSH1 0x20 DUP3 DUP5 SUB SLT ISZERO PUSH2 0x17F7 JUMPI PUSH1 0x0 DUP1 REVERT JUMPDEST DUP2 MLOAD DUP1 ISZERO ISZERO DUP2 EQ PUSH2 0x1633 JUMPI PUSH1 0x0 DUP1 REVERT JUMPDEST PUSH1 0x20 DUP1 DUP3 MSTORE PUSH1 0x2D SWAP1 DUP3 ADD MSTORE PUSH32 0x50726F7465637465644445583A205472616E73616374696F6E20626C6F636B65 PUSH1 0x40 DUP3 ADD MSTORE PUSH13 0x1908189E48199A5C995DD85B1B PUSH1 0x9A SHL PUSH1 0x60 DUP3 ADD MSTORE PUSH1 0x80 ADD SWAP1 JUMP JUMPDEST PUSH4 0x4E487B71 PUSH1 0xE0 SHL PUSH1 0x0 MSTORE PUSH1 0x11 PUSH1 0x4 MSTORE PUSH1 0x24 PUSH1 0x0 REVERT JUMPDEST DUP2 DUP2 SUB DUP2 DUP2 GT ISZERO PUSH2 0x293 JUMPI PUSH2 0x293 PUSH2 0x1854 JUMP JUMPDEST DUP1 DUP3 MUL DUP2 ISZERO DUP3 DUP3 DIV DUP5 EQ OR PUSH2 0x293 JUMPI PUSH2 0x293 PUSH2 0x1854 JUMP JUMPDEST DUP1 DUP3 ADD DUP1 DUP3 GT ISZERO PUSH2 0x293 JUMPI PUSH2 0x293 PUSH2 0x1854 JUMP JUMPDEST PUSH1 0x0 DUP3 PUSH2 0x18C4 JUMPI PUSH4 0x4E487B71 PUSH1 0xE0 SHL PUSH1 0x0 MSTORE PUSH1 0x12 PUSH1 0x4 MSTORE PUSH1 0x24 PUSH1 0x0 REVERT JUMPDEST POP DIV SWAP1 JUMP INVALID LOG2 PUSH5 0x6970667358 0x22 SLT KECCAK256 PUSH16 0x72CF8AC55CE9478299BA75A721F74ECD 0x5F 0xFC POP 0xD0 GAS 0xAA CREATE LOG2 SWAP15 JUMP LT EXTCODEHASH ADD CREATE2 0x4F PUSH5 0x736F6C6343 STOP ADDMOD SGT STOP CALLER "},"methodIdentifiers":{"FEE_DENOMINATOR()":"d73792a9","FEE_RATE()":"2d11c58a","addLiquidity(bytes32,uint256,uint256,uint256,uint256)":"9c4c2748","createPool(address,address)":"e3433615","getAmountOut(bytes32,address,uint256)":"7cb1403a","getPoolInfo(bytes32)":"09f2c019","getUserLiquidity(bytes32,address)":"0831fa2e","poolIds(uint256)":"69883b4e","pools(bytes32)":"b5217bb4","removeLiquidity(bytes32,uint256,uint256,uint256)":"7aab6444","swap(bytes32,address,uint256,uint256)":"4669660f","transactionGuard()":"abb9fe52"}}}}}