{"contracts/TestTokens.sol":{"MaliciousContract":{"abi":[{"anonymous":false,"inputs":[{"indexed":false,"internalType":"address","name":"victim","type":"address"},{"indexed":false,"internalType":"uint256","name":"amount","type":"uint256"}],"name":"ExploitAttempted","type":"event"},{"inputs":[{"internalType":"address","name":"target","type":"address"},{"internalType":"uint256","name":"amount","type":"uint256"}],"name":"drainLiquidity","outputs":[],"stateMutability":"nonpayable","type":"function"},{"inputs":[],"name":"rugPull","outputs":[],"stateMutability":"nonpayable","type":"function"},{"inputs":[{"internalType":"address","name":"victim","type":"address"},{"internalType":"uint256","name":"frontrunAmount","type":"uint256"}],"name":"sandwichAttack","outputs":[],"stateMutability":"nonpayable","type":"function"}],"evm":{"bytecode":{"linkReferences":{},"object":"608060405234801561001057600080fd5b506102bb806100206000396000f3fe608060405234801561001057600080fd5b50600436106100415760003560e01c80632190dfd0146100465780632e0b58f01461005057806345695d7714610063575b600080fd5b61004e610076565b005b61004e61005e36600461024d565b610109565b61004e61007136600461024d565b6101ae565b604080513381524760208201527f02671c3ee999c4d304c153f11845c12799724dbca7ad9ff204e7d7351170bdd3910160405180910390a160405162461bcd60e51b815260206004820152602560248201527f5275672070756c6c20626c6f636b6564206279205472616e73616374696f6e2060448201526411dd585c9960da1b60648201526084015b60405180910390fd5b604080516001600160a01b0384168152602081018390527f02671c3ee999c4d304c153f11845c12799724dbca7ad9ff204e7d7351170bdd3910160405180910390a160405162461bcd60e51b815260206004820152603260248201527f4d616c6963696f7573207472616e73616374696f6e20626c6f636b656420627960448201527108151c985b9cd858dd1a5bdb8811dd585c9960721b6064820152608401610100565b604080516001600160a01b0384168152602081018390527f02671c3ee999c4d304c153f11845c12799724dbca7ad9ff204e7d7351170bdd3910160405180910390a160405162461bcd60e51b815260206004820152602c60248201527f53616e64776963682061747461636b20626c6f636b6564206279205472616e7360448201526b1858dd1a5bdb8811dd585c9960a21b6064820152608401610100565b6000806040838503121561026057600080fd5b82356001600160a01b038116811461027757600080fd5b94602093909301359350505056fea2646970667358221220d3fd4fd82bb7050004f97cc0972dde0eb4a58f796048b632be4500456b8c99e864736f6c63430008130033","opcodes":"PUSH1 0x80 PUSH1 0x40 MSTORE CALLVALUE DUP1 ISZERO PUSH2 0x10 JUMPI PUSH1 0x0 DUP1 REVERT JUMPDEST POP PUSH2 0x2BB DUP1 PUSH2 0x20 PUSH1 0x0 CODECOPY PUSH1 0x0 RETURN INVALID PUSH1 0x80 PUSH1 0x40 MSTORE CALLVALUE DUP1 ISZERO PUSH2 0x10 JUMPI PUSH1 0x0 DUP1 REVERT JUMPDEST POP PUSH1 0x4 CALLDATASIZE LT PUSH2 0x41 JUMPI PUSH1 0x0 CALLDATALOAD PUSH1 0xE0 SHR DUP1 PUSH4 0x2190DFD0 EQ PUSH2 0x46 JUMPI DUP1 PUSH4 0x2E0B58F0 EQ PUSH2 0x50 JUMPI DUP1 PUSH4 0x45695D77 EQ PUSH2 0x63 JUMPI JUMPDEST PUSH1 0x0 DUP1 REVERT JUMPDEST PUSH2 0x4E PUSH2 0x76 JUMP JUMPDEST STOP JUMPDEST PUSH2 0x4E PUSH2 0x5E CALLDATASIZE PUSH1 0x4 PUSH2 0x24D JUMP JUMPDEST PUSH2 0x109 JUMP JUMPDEST PUSH2 0x4E PUSH2 0x71 CALLDATASIZE PUSH1 0x4 PUSH2 0x24D JUMP JUMPDEST PUSH2 0x1AE JUMP JUMPDEST PUSH1 0x40 DUP1 MLOAD CALLER DUP2 MSTORE SELFBALANCE PUSH1 0x20 DUP3 ADD MSTORE PUSH32 0x2671C3EE999C4D304C153F11845C12799724DBCA7AD9FF204E7D7351170BDD3 SWAP2 ADD PUSH1 0x40 MLOAD DUP1 SWAP2 SUB SWAP1 LOG1 PUSH1 0x40 MLOAD PUSH3 0x461BCD PUSH1 0xE5 SHL DUP2 MSTORE PUSH1 0x20 PUSH1 0x4 DUP3 ADD MSTORE PUSH1 0x25 PUSH1 0x24 DUP3 ADD MSTORE PUSH32 0x5275672070756C6C20626C6F636B6564206279205472616E73616374696F6E20 PUSH1 0x44 DUP3 ADD MSTORE PUSH5 0x11DD585C99 PUSH1 0xDA SHL PUSH1 0x64 DUP3 ADD MSTORE PUSH1 0x84 ADD JUMPDEST PUSH1 0x40 MLOAD DUP1 SWAP2 SUB SWAP1 REVERT JUMPDEST PUSH1 0x40 DUP1 MLOAD PUSH1 0x1 PUSH1 0x1 PUSH1 0xA0 SHL SUB DUP5 AND DUP2 MSTORE PUSH1 0x20 DUP2 ADD DUP4 SWAP1 MSTORE PUSH32 0x2671C3EE999C4D304C153F11845C12799724DBCA7AD9FF204E7D7351170BDD3 SWAP2 ADD PUSH1 0x40 MLOAD DUP1 SWAP2 SUB SWAP1 LOG1 PUSH1 0x40 MLOAD PUSH3 0x461BCD PUSH1 0xE5 SHL DUP2 MSTORE PUSH1 0x20 PUSH1 0x4 DUP3 ADD MSTORE PUSH1 0x32 PUSH1 0x24 DUP3 ADD MSTORE PUSH32 0x4D616C6963696F7573207472616E73616374696F6E20626C6F636B6564206279 PUSH1 0x44 DUP3 ADD MSTORE PUSH18 0x8151C985B9CD858DD1A5BDB8811DD585C99 PUSH1 0x72 SHL PUSH1 0x64 DUP3 ADD MSTORE PUSH1 0x84 ADD PUSH2 0x100 JUMP JUMPDEST PUSH1 0x40 DUP1 MLOAD PUSH1 0x1 PUSH1 0x1 PUSH1 0xA0 SHL SUB DUP5 AND DUP2 MSTORE PUSH1 0x20 DUP2 ADD DUP4 SWAP1 MSTORE PUSH32 0x2671C3EE999C4D304C153F11845C12799724DBCA7AD9FF204E7D7351170BDD3 SWAP2 ADD PUSH1 0x40 MLOAD DUP1 SWAP2 SUB SWAP1 LOG1 PUSH1 0x40 MLOAD PUSH3 0x461BCD PUSH1 0xE5 SHL DUP2 MSTORE PUSH1 0x20 PUSH1 0x4 DUP3 ADD MSTORE PUSH1 0x2C PUSH1 0x24 DUP3 ADD MSTORE PUSH32 0x53616E64776963682061747461636B20626C6F636B6564206279205472616E73 PUSH1 0x44 DUP3 ADD MSTORE PUSH12 0x1858DD1A5BDB8811DD585C99 PUSH1 0xA2 SHL PUSH1 0x64 DUP3 ADD MSTORE PUSH1 0x84 ADD PUSH2 0x100 JUMP JUMPDEST PUSH1 0x0 DUP1 PUSH1 0x40 DUP4 DUP6 SUB SLT ISZERO PUSH2 0x260 JUMPI PUSH1 0x0 DUP1 REVERT JUMPDEST DUP3 CALLDATALOAD PUSH1 0x1 PUSH1 0x1 PUSH1 0xA0 SHL SUB DUP2 AND DUP2 EQ PUSH2 0x277 JUMPI PUSH1 0x0 DUP1 REVERT JUMPDEST SWAP5 PUSH1 0x20 SWAP4 SWAP1 SWAP4 ADD CALLDATALOAD SWAP4 POP POP POP JUMP INVALID LOG2 PUSH5 0x6970667358 0x22 SLT KECCAK256 0xD3 REVERT 0x4F 0xD8 0x2B 0xB7 SDIV STOP DIV 0xF9 PUSH29 0xC0972DDE0EB4A58F796048B632BE4500456B8C99E864736F6C63430008 SGT STOP CALLER "},"methodIdentifiers":{"drainLiquidity(address,uint256)":"2e0b58f0","rugPull()":"2190dfd0","sandwichAttack(address,uint256)":"45695d77"}}}}}