{
  "_format": "hh-sol-artifact-1",
  "contractName": "ProtectedDEX",
  "sourceName": "contracts/ProtectedDEX.sol",
  "abi": [
    {
      "inputs": [
        {
          "internalType": "address",
          "name": "_transactionGuard",
          "type": "address"
        }
      ],
      "stateMutability": "nonpayable",
      "type": "constructor"
    },
    {
      "anonymous": false,
      "inputs": [
        {
          "indexed": true,
          "internalType": "bytes32",
          "name": "poolId",
          "type": "bytes32"
        },
        {
          "indexed": true,
          "internalType": "address",
          "name": "provider",
          "type": "address"
        },
        {
          "indexed": false,
          "internalType": "uint256",
          "name": "amountA",
          "type": "uint256"
        },
        {
          "indexed": false,
          "internalType": "uint256",
          "name": "amountB",
          "type": "uint256"
        }
      ],
      "name": "LiquidityAdded",
      "type": "event"
    },
    {
      "anonymous": false,
      "inputs": [
        {
          "indexed": true,
          "internalType": "bytes32",
          "name": "poolId",
          "type": "bytes32"
        },
        {
          "indexed": true,
          "internalType": "address",
          "name": "provider",
          "type": "address"
        },
        {
          "indexed": false,
          "internalType": "uint256",
          "name": "amountA",
          "type": "uint256"
        },
        {
          "indexed": false,
          "internalType": "uint256",
          "name": "amountB",
          "type": "uint256"
        }
      ],
      "name": "LiquidityRemoved",
      "type": "event"
    },
    {
      "anonymous": false,
      "inputs": [
        {
          "indexed": true,
          "internalType": "bytes32",
          "name": "poolId",
          "type": "bytes32"
        },
        {
          "indexed": false,
          "internalType": "address",
          "name": "tokenA",
          "type": "address"
        },
        {
          "indexed": false,
          "internalType": "address",
          "name": "tokenB",
          "type": "address"
        }
      ],
      "name": "PoolCreated",
      "type": "event"
    },
    {
      "anonymous": false,
      "inputs": [
        {
          "indexed": true,
          "internalType": "bytes32",
          "name": "poolId",
          "type": "bytes32"
        },
        {
          "indexed": true,
          "internalType": "address",
          "name": "trader",
          "type": "address"
        },
        {
          "indexed": false,
          "internalType": "address",
          "name": "tokenIn",
          "type": "address"
        },
        {
          "indexed": false,
          "internalType": "uint256",
          "name": "amountIn",
          "type": "uint256"
        },
        {
          "indexed": false,
          "internalType": "uint256",
          "name": "amountOut",
          "type": "uint256"
        }
      ],
      "name": "Swap",
      "type": "event"
    },
    {
      "inputs": [],
      "name": "FEE_DENOMINATOR",
      "outputs": [
        {
          "internalType": "uint256",
          "name": "",
          "type": "uint256"
        }
      ],
      "stateMutability": "view",
      "type": "function"
    },
    {
      "inputs": [],
      "name": "FEE_RATE",
      "outputs": [
        {
          "internalType": "uint256",
          "name": "",
          "type": "uint256"
        }
      ],
      "stateMutability": "view",
      "type": "function"
    },
    {
      "inputs": [
        {
          "internalType": "bytes32",
          "name": "poolId",
          "type": "bytes32"
        },
        {
          "internalType": "uint256",
          "name": "amountA",
          "type": "uint256"
        },
        {
          "internalType": "uint256",
          "name": "amountB",
          "type": "uint256"
        },
        {
          "internalType": "uint256",
          "name": "minAmountA",
          "type": "uint256"
        },
        {
          "internalType": "uint256",
          "name": "minAmountB",
          "type": "uint256"
        }
      ],
      "name": "addLiquidity",
      "outputs": [],
      "stateMutability": "nonpayable",
      "type": "function"
    },
    {
      "inputs": [
        {
          "internalType": "address",
          "name": "tokenA",
          "type": "address"
        },
        {
          "internalType": "address",
          "name": "tokenB",
          "type": "address"
        }
      ],
      "name": "createPool",
      "outputs": [
        {
          "internalType": "bytes32",
          "name": "poolId",
          "type": "bytes32"
        }
      ],
      "stateMutability": "nonpayable",
      "type": "function"
    },
    {
      "inputs": [
        {
          "internalType": "bytes32",
          "name": "poolId",
          "type": "bytes32"
        },
        {
          "internalType": "address",
          "name": "tokenIn",
          "type": "address"
        },
        {
          "internalType": "uint256",
          "name": "amountIn",
          "type": "uint256"
        }
      ],
      "name": "getAmountOut",
      "outputs": [
        {
          "internalType": "uint256",
          "name": "amountOut",
          "type": "uint256"
        }
      ],
      "stateMutability": "view",
      "type": "function"
    },
    {
      "inputs": [
        {
          "internalType": "bytes32",
          "name": "poolId",
          "type": "bytes32"
        }
      ],
      "name": "getPoolInfo",
      "outputs": [
        {
          "internalType": "address",
          "name": "tokenA",
          "type": "address"
        },
        {
          "internalType": "address",
          "name": "tokenB",
          "type": "address"
        },
        {
          "internalType": "uint256",
          "name": "reserveA",
          "type": "uint256"
        },
        {
          "internalType": "uint256",
          "name": "reserveB",
          "type": "uint256"
        },
        {
          "internalType": "uint256",
          "name": "totalLiquidity",
          "type": "uint256"
        }
      ],
      "stateMutability": "view",
      "type": "function"
    },
    {
      "inputs": [
        {
          "internalType": "bytes32",
          "name": "poolId",
          "type": "bytes32"
        },
        {
          "internalType": "address",
          "name": "user",
          "type": "address"
        }
      ],
      "name": "getUserLiquidity",
      "outputs": [
        {
          "internalType": "uint256",
          "name": "",
          "type": "uint256"
        }
      ],
      "stateMutability": "view",
      "type": "function"
    },
    {
      "inputs": [
        {
          "internalType": "uint256",
          "name": "",
          "type": "uint256"
        }
      ],
      "name": "poolIds",
      "outputs": [
        {
          "internalType": "bytes32",
          "name": "",
          "type": "bytes32"
        }
      ],
      "stateMutability": "view",
      "type": "function"
    },
    {
      "inputs": [
        {
          "internalType": "bytes32",
          "name": "",
          "type": "bytes32"
        }
      ],
      "name": "pools",
      "outputs": [
        {
          "internalType": "address",
          "name": "tokenA",
          "type": "address"
        },
        {
          "internalType": "address",
          "name": "tokenB",
          "type": "address"
        },
        {
          "internalType": "uint256",
          "name": "reserveA",
          "type": "uint256"
        },
        {
          "internalType": "uint256",
          "name": "reserveB",
          "type": "uint256"
        },
        {
          "internalType": "uint256",
          "name": "totalLiquidity",
          "type": "uint256"
        }
      ],
      "stateMutability": "view",
      "type": "function"
    },
    {
      "inputs": [
        {
          "internalType": "bytes32",
          "name": "poolId",
          "type": "bytes32"
        },
        {
          "internalType": "uint256",
          "name": "liquidityAmount",
          "type": "uint256"
        },
        {
          "internalType": "uint256",
          "name": "minAmountA",
          "type": "uint256"
        },
        {
          "internalType": "uint256",
          "name": "minAmountB",
          "type": "uint256"
        }
      ],
      "name": "removeLiquidity",
      "outputs": [],
      "stateMutability": "nonpayable",
      "type": "function"
    },
    {
      "inputs": [
        {
          "internalType": "bytes32",
          "name": "poolId",
          "type": "bytes32"
        },
        {
          "internalType": "address",
          "name": "tokenIn",
          "type": "address"
        },
        {
          "internalType": "uint256",
          "name": "amountIn",
          "type": "uint256"
        },
        {
          "internalType": "uint256",
          "name": "minAmountOut",
          "type": "uint256"
        }
      ],
      "name": "swap",
      "outputs": [],
      "stateMutability": "nonpayable",
      "type": "function"
    },
    {
      "inputs": [],
      "name": "transactionGuard",
      "outputs": [
        {
          "internalType": "contract TransactionGuard",
          "name": "",
          "type": "address"
        }
      ],
      "stateMutability": "view",
      "type": "function"
    }
  ],
  "bytecode": "0x60a060405234801561001057600080fd5b506040516119ab3803806119ab83398101604081905261002f91610045565b60016000556001600160a01b0316608052610075565b60006020828403121561005757600080fd5b81516001600160a01b038116811461006e57600080fd5b9392505050565b6080516118ff6100ac600039600081816101cc015281816102e10152818161087d01528181610dde01526112cc01526118ff6000f3fe608060405234801561001057600080fd5b50600436106100b45760003560e01c80637cb1403a116100715780637cb1403a146101a15780639c4c2748146101b4578063abb9fe52146101c7578063b5217bb414610206578063d73792a914610250578063e34336151461025957600080fd5b80630831fa2e146100b957806309f2c019146100df5780632d11c58a1461015e5780634669660f1461016657806369883b4e1461017b5780637aab64441461018e575b600080fd5b6100cc6100c736600461166c565b61026c565b6040519081526020015b60405180910390f35b61012b6100ed366004611698565b6000908152600160208190526040909120805491810154600282015460038301546004909301546001600160a01b0394851695949092169390929190565b604080516001600160a01b039687168152959094166020860152928401919091526060830152608082015260a0016100d6565b6100cc600381565b6101796101743660046116b1565b610299565b005b6100cc610189366004611698565b610814565b61017961019c3660046116ec565b610835565b6100cc6101af36600461171e565b610c7d565b6101796101c2366004611753565b610d96565b6101ee7f000000000000000000000000000000000000000000000000000000000000000081565b6040516001600160a01b0390911681526020016100d6565b61012b610214366004611698565b6001602081905260009182526040909120805491810154600282015460038301546004909301546001600160a01b039485169490921692909185565b6100cc6103e881565b6100cc61026736600461178e565b611283565b60008281526001602090815260408083206001600160a01b03851684526005019091529020545b92915050565b600033600036426040516020016102b394939291906117b8565b60408051808303601f19018152908290528051602090910120637bc54bb960e11b82526004820181905291507f00000000000000000000000000000000000000000000000000000000000000006001600160a01b03169063f78a977290602401602060405180830381865afa158015610330573d6000803e3d6000fd5b505050506040513d601f19601f8201168201806040525081019061035491906117e5565b6103795760405162461bcd60e51b815260040161037090611807565b60405180910390fd5b610381611579565b600085815260016020526040902080546001600160a01b03166103dc5760405162461bcd60e51b8152602060048201526013602482015272141bdbdb08191bd95cc81b9bdd08195e1a5cdd606a1b6044820152606401610370565b80546001600160a01b0386811691161480610406575060018101546001600160a01b038681169116145b6104425760405162461bcd60e51b815260206004820152600d60248201526c24b73b30b634b2103a37b5b2b760991b6044820152606401610370565b600084116104835760405162461bcd60e51b815260206004820152600e60248201526d125b9d985b1a5908185b5bdd5b9d60921b6044820152606401610370565b8054600090819081906001600160a01b038981169116146104bb578354600385015460028601546001600160a01b03909216916104d7565b6001840154600285015460038601546001600160a01b03909216915b9194509250905060006104ed60036103e861186a565b6104f7908961187d565b90506000816105086103e88661187d565b6105129190611894565b61051c848461187d565b61052691906118a7565b9050878110156105785760405162461bcd60e51b815260206004820152601a60248201527f496e73756666696369656e74206f757470757420616d6f756e740000000000006044820152606401610370565b8281106105c05760405162461bcd60e51b8152602060048201526016602482015275496e73756666696369656e74206c697175696469747960501b6044820152606401610370565b6040516323b872dd60e01b8152336004820152306024820152604481018a90526001600160a01b038b16906323b872dd906064016020604051808303816000875af1158015610613573d6000803e3d6000fd5b505050506040513d601f19601f8201168201806040525081019061063791906117e5565b6106785760405162461bcd60e51b8152602060048201526012602482015271151c985b9cd9995c881a5b8819985a5b195960721b6044820152606401610370565b60405163a9059cbb60e01b8152336004820152602481018290526001600160a01b0386169063a9059cbb906044016020604051808303816000875af11580156106c5573d6000803e3d6000fd5b505050506040513d601f19601f820116820180604052508101906106e991906117e5565b61072b5760405162461bcd60e51b8152602060048201526013602482015272151c985b9cd9995c881bdd5d0819985a5b1959606a1b6044820152606401610370565b85546001600160a01b03908116908b160361077a57888660020160008282546107549190611894565b925050819055508086600301600082825461076f919061186a565b909155506107af9050565b8886600301600082825461078e9190611894565b92505081905550808660020160008282546107a9919061186a565b90915550505b604080516001600160a01b038c168152602081018b905290810182905233908c907f2170c741c41531aec20e7c107c24eecfdd15e69c9bb0a8dd37b1840b9e0b207b9060600160405180910390a350505050505061080d6001600055565b5050505050565b6002818154811061082457600080fd5b600091825260209091200154905081565b6000336000364260405160200161084f94939291906117b8565b60408051808303601f19018152908290528051602090910120637bc54bb960e11b82526004820181905291507f00000000000000000000000000000000000000000000000000000000000000006001600160a01b03169063f78a977290602401602060405180830381865afa1580156108cc573d6000803e3d6000fd5b505050506040513d601f19601f820116820180604052508101906108f091906117e5565b61090c5760405162461bcd60e51b815260040161037090611807565b610914611579565b6000858152600160209081526040808320338452600581019092529091205485111561097b5760405162461bcd60e51b8152602060048201526016602482015275496e73756666696369656e74206c697175696469747960501b6044820152606401610370565b60008160040154826002015487610992919061187d565b61099c91906118a7565b9050600082600401548360030154886109b5919061187d565b6109bf91906118a7565b905085821015610a095760405162461bcd60e51b8152602060048201526015602482015274496e73756666696369656e7420616d6f756e74204160581b6044820152606401610370565b84811015610a515760405162461bcd60e51b815260206004820152601560248201527424b739bab33334b1b4b2b73a1030b6b7bab73a102160591b6044820152606401610370565b33600090815260058401602052604081208054899290610a7290849061186a565b9250508190555086836004016000828254610a8d919061186a565b9250508190555081836002016000828254610aa8919061186a565b9250508190555080836003016000828254610ac3919061186a565b9091555050825460405163a9059cbb60e01b8152336004820152602481018490526001600160a01b039091169063a9059cbb906044016020604051808303816000875af1158015610b18573d6000803e3d6000fd5b505050506040513d601f19601f82011682018060405250810190610b3c91906117e5565b610b7c5760405162461bcd60e51b8152602060048201526011602482015270151c985b9cd9995c88104819985a5b1959607a1b6044820152606401610370565b600183015460405163a9059cbb60e01b8152336004820152602481018390526001600160a01b039091169063a9059cbb906044016020604051808303816000875af1158015610bcf573d6000803e3d6000fd5b505050506040513d601f19601f82011682018060405250810190610bf391906117e5565b610c335760405162461bcd60e51b8152602060048201526011602482015270151c985b9cd9995c88108819985a5b1959607a1b6044820152606401610370565b604080518381526020810183905233918a917f317e53ec6bc434475c6a7c12af460342fa47661758139f35045090a232213a0c910160405180910390a350505061080d6001600055565b600083815260016020526040812080546001600160a01b0385811691161480610cb5575060018101546001600160a01b038581169116145b610cf15760405162461bcd60e51b815260206004820152600d60248201526c24b73b30b634b2103a37b5b2b760991b6044820152606401610370565b80546000906001600160a01b03868116911614610d12578160030154610d18565b81600201545b82549091506000906001600160a01b03878116911614610d3c578260020154610d42565b82600301545b90506000610d5360036103e861186a565b610d5d908761187d565b905080610d6c6103e88561187d565b610d769190611894565b610d80838361187d565b610d8a91906118a7565b98975050505050505050565b60003360003642604051602001610db094939291906117b8565b60408051808303601f19018152908290528051602090910120637bc54bb960e11b82526004820181905291507f00000000000000000000000000000000000000000000000000000000000000006001600160a01b03169063f78a977290602401602060405180830381865afa158015610e2d573d6000803e3d6000fd5b505050506040513d601f19601f82011682018060405250810190610e5191906117e5565b610e6d5760405162461bcd60e51b815260040161037090611807565b610e75611579565b600086815260016020526040902080546001600160a01b0316610ed05760405162461bcd60e51b8152602060048201526013602482015272141bdbdb08191bd95cc81b9bdd08195e1a5cdd606a1b6044820152606401610370565b60028101548690869015801590610eeb575060008360030154115b15610f45576000836002015484600301548a610f07919061187d565b610f1191906118a7565b9050878111610f2257809150610f43565b60038401546002850154610f36908a61187d565b610f4091906118a7565b92505b505b85821015610f8d5760405162461bcd60e51b8152602060048201526015602482015274496e73756666696369656e7420616d6f756e74204160581b6044820152606401610370565b84811015610fd55760405162461bcd60e51b815260206004820152601560248201527424b739bab33334b1b4b2b73a1030b6b7bab73a102160591b6044820152606401610370565b82546040516323b872dd60e01b8152336004820152306024820152604481018490526001600160a01b03909116906323b872dd906064016020604051808303816000875af115801561102b573d6000803e3d6000fd5b505050506040513d601f19601f8201168201806040525081019061104f91906117e5565b61108f5760405162461bcd60e51b8152602060048201526011602482015270151c985b9cd9995c88104819985a5b1959607a1b6044820152606401610370565b60018301546040516323b872dd60e01b8152336004820152306024820152604481018390526001600160a01b03909116906323b872dd906064016020604051808303816000875af11580156110e8573d6000803e3d6000fd5b505050506040513d601f19601f8201168201806040525081019061110c91906117e5565b61114c5760405162461bcd60e51b8152602060048201526011602482015270151c985b9cd9995c88108819985a5b1959607a1b6044820152606401610370565b600083600401546000036111735761116c611167838561187d565b6115d2565b90506111bb565b6111b8846002015485600401548561118b919061187d565b61119591906118a7565b600386015460048701546111a9908661187d565b6111b391906118a7565b61163a565b90505b828460020160008282546111cf9190611894565b92505081905550818460030160008282546111ea9190611894565b92505081905550808460040160008282546112059190611894565b90915550503360009081526005850160205260408120805483929061122b908490611894565b9091555050604080518481526020810184905233918c917f47b0d68dd7ea64624970139aa6c676e4e099d12cee4af2dfe393f2353fea86b1910160405180910390a35050505061127b6001600055565b505050505050565b600080336000364260405160200161129e94939291906117b8565b60408051808303601f19018152908290528051602090910120637bc54bb960e11b82526004820181905291507f00000000000000000000000000000000000000000000000000000000000000006001600160a01b03169063f78a977290602401602060405180830381865afa15801561131b573d6000803e3d6000fd5b505050506040513d601f19601f8201168201806040525081019061133f91906117e5565b61135b5760405162461bcd60e51b815260040161037090611807565b826001600160a01b0316846001600160a01b0316036113af5760405162461bcd60e51b815260206004820152601060248201526f4964656e746963616c20746f6b656e7360801b6044820152606401610370565b6001600160a01b038416158015906113cf57506001600160a01b03831615155b61140a5760405162461bcd60e51b815260206004820152600c60248201526b5a65726f206164647265737360a01b6044820152606401610370565b826001600160a01b0316846001600160a01b03161115611428579192915b6040516bffffffffffffffffffffffff19606086811b8216602084015285901b16603482015260480160408051601f198184030181529181528151602092830120600081815260019093529120549092506001600160a01b0316156114c55760405162461bcd60e51b8152602060048201526013602482015272506f6f6c20616c72656164792065786973747360681b6044820152606401610370565b600082815260016020818152604080842080546001600160a01b038a81166001600160a01b0319928316811784558387018054928c169290931682179092556002805496870181559096527f405787fa12a823e0f2b7631cc41b3ba8828b3321ca811111fa75cd3aa3bb5ace9094018790558151938452918301939093529184917fc0c143d18100b0ec0b6c08cc52247dd860ffd3fc2af30733326e5f980c19635a910160405180910390a2505092915050565b6002600054036115cb5760405162461bcd60e51b815260206004820152601f60248201527f5265656e7472616e637947756172643a207265656e7472616e742063616c6c006044820152606401610370565b6002600055565b6000816000036115e457506000919050565b600060026115f3846001611894565b6115fd91906118a7565b9050825b8082101561163357508060028161161881876118a7565b6116229190611894565b61162c91906118a7565b9150611601565b9392505050565b60008183106116495781611633565b5090919050565b80356001600160a01b038116811461166757600080fd5b919050565b6000806040838503121561167f57600080fd5b8235915061168f60208401611650565b90509250929050565b6000602082840312156116aa57600080fd5b5035919050565b600080600080608085870312156116c757600080fd5b843593506116d760208601611650565b93969395505050506040820135916060013590565b6000806000806080858703121561170257600080fd5b5050823594602084013594506040840135936060013592509050565b60008060006060848603121561173357600080fd5b8335925061174360208501611650565b9150604084013590509250925092565b600080600080600060a0868803121561176b57600080fd5b505083359560208501359550604085013594606081013594506080013592509050565b600080604083850312156117a157600080fd5b6117aa83611650565b915061168f60208401611650565b6bffffffffffffffffffffffff198560601b16815282846014830137601492019182015260340192915050565b6000602082840312156117f757600080fd5b8151801515811461163357600080fd5b6020808252602d908201527f50726f7465637465644445583a205472616e73616374696f6e20626c6f636b6560408201526c1908189e48199a5c995dd85b1b609a1b606082015260800190565b634e487b7160e01b600052601160045260246000fd5b8181038181111561029357610293611854565b808202811582820484141761029357610293611854565b8082018082111561029357610293611854565b6000826118c457634e487b7160e01b600052601260045260246000fd5b50049056fea26469706673582212206f72cf8ac55ce9478299ba75a721f74ecd5ffc50d05aaaf0a29e56103f01f54f64736f6c63430008130033",
  "linkReferences": {},
  "deployedLinkReferences": {}
}