{
  "_format": "hh-sol-artifact-1",
  "contractName": "TransactionGuard",
  "sourceName": "contracts/TransactionGuard.sol",
  "abi": [
    {
      "inputs": [
        {
          "internalType": "address",
          "name": "_bdagToken",
          "type": "address"
        },
        {
          "internalType": "address",
          "name": "_backendOracle",
          "type": "address"
        }
      ],
      "stateMutability": "nonpayable",
      "type": "constructor"
    },
    {
      "anonymous": false,
      "inputs": [
        {
          "indexed": true,
          "internalType": "address",
          "name": "oldOracle",
          "type": "address"
        },
        {
          "indexed": true,
          "internalType": "address",
          "name": "newOracle",
          "type": "address"
        }
      ],
      "name": "BackendOracleUpdated",
      "type": "event"
    },
    {
      "anonymous": false,
      "inputs": [
        {
          "indexed": true,
          "internalType": "address",
          "name": "target",
          "type": "address"
        },
        {
          "indexed": false,
          "internalType": "uint256",
          "name": "potentialLoss",
          "type": "uint256"
        }
      ],
      "name": "ExploitPrevented",
      "type": "event"
    },
    {
      "anonymous": false,
      "inputs": [
        {
          "indexed": true,
          "internalType": "address",
          "name": "previousOwner",
          "type": "address"
        },
        {
          "indexed": true,
          "internalType": "address",
          "name": "newOwner",
          "type": "address"
        }
      ],
      "name": "OwnershipTransferred",
      "type": "event"
    },
    {
      "anonymous": false,
      "inputs": [
        {
          "indexed": false,
          "internalType": "address",
          "name": "account",
          "type": "address"
        }
      ],
      "name": "Paused",
      "type": "event"
    },
    {
      "anonymous": false,
      "inputs": [
        {
          "indexed": true,
          "internalType": "address",
          "name": "contractAddr",
          "type": "address"
        },
        {
          "indexed": false,
          "internalType": "uint256",
          "name": "newScore",
          "type": "uint256"
        },
        {
          "indexed": false,
          "internalType": "address",
          "name": "updatedBy",
          "type": "address"
        }
      ],
      "name": "RiskScoreUpdated",
      "type": "event"
    },
    {
      "anonymous": false,
      "inputs": [
        {
          "indexed": true,
          "internalType": "bytes32",
          "name": "txHash",
          "type": "bytes32"
        },
        {
          "indexed": false,
          "internalType": "uint256",
          "name": "riskScore",
          "type": "uint256"
        }
      ],
      "name": "TransactionApproved",
      "type": "event"
    },
    {
      "anonymous": false,
      "inputs": [
        {
          "indexed": true,
          "internalType": "bytes32",
          "name": "txHash",
          "type": "bytes32"
        },
        {
          "indexed": false,
          "internalType": "uint256",
          "name": "riskScore",
          "type": "uint256"
        },
        {
          "indexed": false,
          "internalType": "string",
          "name": "threatType",
          "type": "string"
        }
      ],
      "name": "TransactionBlocked",
      "type": "event"
    },
    {
      "anonymous": false,
      "inputs": [
        {
          "indexed": false,
          "internalType": "address",
          "name": "account",
          "type": "address"
        }
      ],
      "name": "Unpaused",
      "type": "event"
    },
    {
      "anonymous": false,
      "inputs": [
        {
          "indexed": true,
          "internalType": "address",
          "name": "validator",
          "type": "address"
        },
        {
          "indexed": false,
          "internalType": "uint256",
          "name": "amount",
          "type": "uint256"
        },
        {
          "indexed": false,
          "internalType": "string",
          "name": "reason",
          "type": "string"
        }
      ],
      "name": "ValidatorSlashed",
      "type": "event"
    },
    {
      "anonymous": false,
      "inputs": [
        {
          "indexed": true,
          "internalType": "address",
          "name": "validator",
          "type": "address"
        },
        {
          "indexed": false,
          "internalType": "uint256",
          "name": "amount",
          "type": "uint256"
        }
      ],
      "name": "ValidatorStaked",
      "type": "event"
    },
    {
      "inputs": [],
      "name": "BLOCK_THRESHOLD",
      "outputs": [
        {
          "internalType": "uint256",
          "name": "",
          "type": "uint256"
        }
      ],
      "stateMutability": "view",
      "type": "function"
    },
    {
      "inputs": [],
      "name": "MAX_RISK_SCORE",
      "outputs": [
        {
          "internalType": "uint256",
          "name": "",
          "type": "uint256"
        }
      ],
      "stateMutability": "view",
      "type": "function"
    },
    {
      "inputs": [],
      "name": "MIN_VALIDATOR_STAKE",
      "outputs": [
        {
          "internalType": "uint256",
          "name": "",
          "type": "uint256"
        }
      ],
      "stateMutability": "view",
      "type": "function"
    },
    {
      "inputs": [],
      "name": "RISK_SCORE_VALIDITY",
      "outputs": [
        {
          "internalType": "uint256",
          "name": "",
          "type": "uint256"
        }
      ],
      "stateMutability": "view",
      "type": "function"
    },
    {
      "inputs": [
        {
          "internalType": "uint256",
          "name": "",
          "type": "uint256"
        }
      ],
      "name": "activeValidators",
      "outputs": [
        {
          "internalType": "address",
          "name": "",
          "type": "address"
        }
      ],
      "stateMutability": "view",
      "type": "function"
    },
    {
      "inputs": [
        {
          "internalType": "address",
          "name": "contractAddr",
          "type": "address"
        }
      ],
      "name": "addTrustedContract",
      "outputs": [],
      "stateMutability": "nonpayable",
      "type": "function"
    },
    {
      "inputs": [
        {
          "internalType": "bytes32",
          "name": "",
          "type": "bytes32"
        }
      ],
      "name": "assessments",
      "outputs": [
        {
          "internalType": "uint256",
          "name": "riskScore",
          "type": "uint256"
        },
        {
          "internalType": "string",
          "name": "threatType",
          "type": "string"
        },
        {
          "internalType": "address",
          "name": "validator",
          "type": "address"
        },
        {
          "internalType": "uint256",
          "name": "timestamp",
          "type": "uint256"
        },
        {
          "internalType": "bool",
          "name": "isBlocked",
          "type": "bool"
        }
      ],
      "stateMutability": "view",
      "type": "function"
    },
    {
      "inputs": [],
      "name": "backendOracle",
      "outputs": [
        {
          "internalType": "address",
          "name": "",
          "type": "address"
        }
      ],
      "stateMutability": "view",
      "type": "function"
    },
    {
      "inputs": [
        {
          "internalType": "address[]",
          "name": "contracts",
          "type": "address[]"
        },
        {
          "internalType": "uint256[]",
          "name": "scores",
          "type": "uint256[]"
        }
      ],
      "name": "batchUpdateRiskScores",
      "outputs": [],
      "stateMutability": "nonpayable",
      "type": "function"
    },
    {
      "inputs": [],
      "name": "bdagToken",
      "outputs": [
        {
          "internalType": "contract IERC20",
          "name": "",
          "type": "address"
        }
      ],
      "stateMutability": "view",
      "type": "function"
    },
    {
      "inputs": [],
      "name": "emergencyPause",
      "outputs": [],
      "stateMutability": "nonpayable",
      "type": "function"
    },
    {
      "inputs": [
        {
          "internalType": "address",
          "name": "target",
          "type": "address"
        },
        {
          "internalType": "bytes",
          "name": "data",
          "type": "bytes"
        }
      ],
      "name": "executeProtected",
      "outputs": [
        {
          "internalType": "bool",
          "name": "success",
          "type": "bool"
        },
        {
          "internalType": "bytes",
          "name": "returnData",
          "type": "bytes"
        }
      ],
      "stateMutability": "payable",
      "type": "function"
    },
    {
      "inputs": [],
      "name": "getFirewallStats",
      "outputs": [
        {
          "internalType": "uint256",
          "name": "transactionsScreened",
          "type": "uint256"
        },
        {
          "internalType": "uint256",
          "name": "exploitsBlocked",
          "type": "uint256"
        },
        {
          "internalType": "uint256",
          "name": "fundsProtected",
          "type": "uint256"
        },
        {
          "internalType": "uint256",
          "name": "activeValidatorCount",
          "type": "uint256"
        },
        {
          "internalType": "uint256",
          "name": "totalStakedAmount",
          "type": "uint256"
        }
      ],
      "stateMutability": "view",
      "type": "function"
    },
    {
      "inputs": [
        {
          "internalType": "address",
          "name": "validator",
          "type": "address"
        }
      ],
      "name": "getValidatorInfo",
      "outputs": [
        {
          "internalType": "uint256",
          "name": "stakedAmount",
          "type": "uint256"
        },
        {
          "internalType": "uint256",
          "name": "correctPredictions",
          "type": "uint256"
        },
        {
          "internalType": "uint256",
          "name": "totalPredictions",
          "type": "uint256"
        },
        {
          "internalType": "bool",
          "name": "isActive",
          "type": "bool"
        },
        {
          "internalType": "uint256",
          "name": "accuracy",
          "type": "uint256"
        }
      ],
      "stateMutability": "view",
      "type": "function"
    },
    {
      "inputs": [
        {
          "internalType": "bytes32",
          "name": "txHash",
          "type": "bytes32"
        }
      ],
      "name": "isTransactionSafe",
      "outputs": [
        {
          "internalType": "bool",
          "name": "",
          "type": "bool"
        }
      ],
      "stateMutability": "view",
      "type": "function"
    },
    {
      "inputs": [
        {
          "internalType": "address",
          "name": "",
          "type": "address"
        }
      ],
      "name": "lastRiskUpdate",
      "outputs": [
        {
          "internalType": "uint256",
          "name": "",
          "type": "uint256"
        }
      ],
      "stateMutability": "view",
      "type": "function"
    },
    {
      "inputs": [],
      "name": "owner",
      "outputs": [
        {
          "internalType": "address",
          "name": "",
          "type": "address"
        }
      ],
      "stateMutability": "view",
      "type": "function"
    },
    {
      "inputs": [],
      "name": "pause",
      "outputs": [],
      "stateMutability": "nonpayable",
      "type": "function"
    },
    {
      "inputs": [],
      "name": "paused",
      "outputs": [
        {
          "internalType": "bool",
          "name": "",
          "type": "bool"
        }
      ],
      "stateMutability": "view",
      "type": "function"
    },
    {
      "inputs": [
        {
          "internalType": "address",
          "name": "contractAddr",
          "type": "address"
        }
      ],
      "name": "removeTrustedContract",
      "outputs": [],
      "stateMutability": "nonpayable",
      "type": "function"
    },
    {
      "inputs": [],
      "name": "renounceOwnership",
      "outputs": [],
      "stateMutability": "nonpayable",
      "type": "function"
    },
    {
      "inputs": [
        {
          "internalType": "address",
          "name": "",
          "type": "address"
        }
      ],
      "name": "riskScores",
      "outputs": [
        {
          "internalType": "uint256",
          "name": "",
          "type": "uint256"
        }
      ],
      "stateMutability": "view",
      "type": "function"
    },
    {
      "inputs": [
        {
          "internalType": "address",
          "name": "newOracle",
          "type": "address"
        }
      ],
      "name": "setBackendOracle",
      "outputs": [],
      "stateMutability": "nonpayable",
      "type": "function"
    },
    {
      "inputs": [
        {
          "internalType": "address",
          "name": "target",
          "type": "address"
        },
        {
          "internalType": "uint256",
          "name": "potentialLoss",
          "type": "uint256"
        },
        {
          "internalType": "string",
          "name": "exploitType",
          "type": "string"
        }
      ],
      "name": "simulateExploitPrevention",
      "outputs": [],
      "stateMutability": "nonpayable",
      "type": "function"
    },
    {
      "inputs": [
        {
          "internalType": "address",
          "name": "validator",
          "type": "address"
        },
        {
          "internalType": "uint256",
          "name": "slashAmount",
          "type": "uint256"
        },
        {
          "internalType": "string",
          "name": "reason",
          "type": "string"
        }
      ],
      "name": "slashValidator",
      "outputs": [],
      "stateMutability": "nonpayable",
      "type": "function"
    },
    {
      "inputs": [
        {
          "internalType": "uint256",
          "name": "amount",
          "type": "uint256"
        }
      ],
      "name": "stakeAsValidator",
      "outputs": [],
      "stateMutability": "nonpayable",
      "type": "function"
    },
    {
      "inputs": [
        {
          "internalType": "bytes32",
          "name": "txHash",
          "type": "bytes32"
        },
        {
          "internalType": "uint256",
          "name": "riskScore",
          "type": "uint256"
        },
        {
          "internalType": "string",
          "name": "threatType",
          "type": "string"
        }
      ],
      "name": "submitRiskAssessment",
      "outputs": [],
      "stateMutability": "nonpayable",
      "type": "function"
    },
    {
      "inputs": [],
      "name": "totalExploitsBlocked",
      "outputs": [
        {
          "internalType": "uint256",
          "name": "",
          "type": "uint256"
        }
      ],
      "stateMutability": "view",
      "type": "function"
    },
    {
      "inputs": [],
      "name": "totalFundsProtected",
      "outputs": [
        {
          "internalType": "uint256",
          "name": "",
          "type": "uint256"
        }
      ],
      "stateMutability": "view",
      "type": "function"
    },
    {
      "inputs": [],
      "name": "totalStaked",
      "outputs": [
        {
          "internalType": "uint256",
          "name": "",
          "type": "uint256"
        }
      ],
      "stateMutability": "view",
      "type": "function"
    },
    {
      "inputs": [],
      "name": "totalTransactionsScreened",
      "outputs": [
        {
          "internalType": "uint256",
          "name": "",
          "type": "uint256"
        }
      ],
      "stateMutability": "view",
      "type": "function"
    },
    {
      "inputs": [
        {
          "internalType": "address",
          "name": "newOwner",
          "type": "address"
        }
      ],
      "name": "transferOwnership",
      "outputs": [],
      "stateMutability": "nonpayable",
      "type": "function"
    },
    {
      "inputs": [
        {
          "internalType": "address",
          "name": "",
          "type": "address"
        }
      ],
      "name": "trustedContracts",
      "outputs": [
        {
          "internalType": "bool",
          "name": "",
          "type": "bool"
        }
      ],
      "stateMutability": "view",
      "type": "function"
    },
    {
      "inputs": [],
      "name": "unpause",
      "outputs": [],
      "stateMutability": "nonpayable",
      "type": "function"
    },
    {
      "inputs": [
        {
          "internalType": "address",
          "name": "contractAddr",
          "type": "address"
        },
        {
          "internalType": "uint256",
          "name": "score",
          "type": "uint256"
        }
      ],
      "name": "updateRiskScore",
      "outputs": [],
      "stateMutability": "nonpayable",
      "type": "function"
    },
    {
      "inputs": [
        {
          "internalType": "address",
          "name": "",
          "type": "address"
        }
      ],
      "name": "validators",
      "outputs": [
        {
          "internalType": "uint256",
          "name": "stakedAmount",
          "type": "uint256"
        },
        {
          "internalType": "uint256",
          "name": "correctPredictions",
          "type": "uint256"
        },
        {
          "internalType": "uint256",
          "name": "totalPredictions",
          "type": "uint256"
        },
        {
          "internalType": "bool",
          "name": "isActive",
          "type": "bool"
        },
        {
          "internalType": "uint256",
          "name": "lastActivity",
          "type": "uint256"
        }
      ],
      "stateMutability": "view",
      "type": "function"
    }
  ],
  "bytecode": "0x60a06040523480156200001157600080fd5b5060405162002308380380620023088339810160408190526200003491620000e9565b600160005562000044336200007a565b6001805460ff60a01b191690556001600160a01b03918216608052600680546001600160a01b0319169190921617905562000121565b600180546001600160a01b038381166001600160a01b0319831681179093556040519116919082907f8be0079c531659141344cd1fd0a4f28419497f9722a3daafe3b4186f6b6457e090600090a35050565b80516001600160a01b0381168114620000e457600080fd5b919050565b60008060408385031215620000fd57600080fd5b6200010883620000cc565b91506200011860208401620000cc565b90509250929050565b6080516121bd6200014b6000396000818161064f015281816108670152610b0a01526121bd6000f3fe60806040526004361061020f5760003560e01c80638da5cb5b11610118578063e5919a4f116100a0578063f0c123561161006f578063f0c123561461063d578063f2fde38b14610671578063f78a977214610691578063fa52c7d8146106b1578063ffeca6161461070157600080fd5b8063e5919a4f146105b7578063ea197734146105e7578063eed5766c14610607578063f0314df01461061d57600080fd5b8063ab15a200116100e7578063ab15a20014610519578063bf892eaa1461054a578063c4b278521461056a578063ce91c1201461058b578063d4044022146105a157600080fd5b80638da5cb5b1461049e5780639c2a2259146104bc5780639ff1192d146104d9578063a3fbd3f2146104f957600080fd5b80635e5b87521161019b578063817b1cd21161016a578063817b1cd2146103e75780638456cb59146103fd57806386c4832e1461041257806387e0de90146104275780638a11d7c91461045457600080fd5b80635e5b8752146103415780636e6799f11461036e578063715018a61461038e57806373bc7b7d146103a357600080fd5b80633f4ba83a116101e25780633f4ba83a146102b757806345f19131146102cc57806351858e27146102e15780635207cdc9146102f65780635c975abb1461031657600080fd5b806314f64c78146102145780631520fb011461025157806338f3e80c146102735780633f08f63514610293575b600080fd5b34801561022057600080fd5b5061023461022f366004611b39565b610721565b6040516001600160a01b0390911681526020015b60405180910390f35b34801561025d57600080fd5b5061027161026c366004611bb7565b61074b565b005b34801561027f57600080fd5b5061027161028e366004611bb7565b61099e565b34801561029f57600080fd5b506102a9600b5481565b604051908152602001610248565b3480156102c357600080fd5b506102716109f8565b3480156102d857600080fd5b506102a9606481565b3480156102ed57600080fd5b50610271610a0a565b34801561030257600080fd5b50610271610311366004611b39565b610a87565b34801561032257600080fd5b50600154600160a01b900460ff165b6040519015158152602001610248565b34801561034d57600080fd5b506102a961035c366004611c11565b60056020526000908152604090205481565b34801561037a57600080fd5b50600654610234906001600160a01b031681565b34801561039a57600080fd5b50610271610cad565b3480156103af57600080fd5b50600a54600b54600c54600854600954604080519586526020860194909452928401919091526060830152608082015260a001610248565b3480156103f357600080fd5b506102a960095481565b34801561040957600080fd5b50610271610cbf565b34801561041e57600080fd5b506102a9605081565b34801561043357600080fd5b506102a9610442366004611c11565b60076020526000908152604090205481565b34801561046057600080fd5b5061047461046f366004611c11565b610ccf565b6040805195865260208601949094529284019190915215156060830152608082015260a001610248565b3480156104aa57600080fd5b506001546001600160a01b0316610234565b3480156104c857600080fd5b506102a9683635c9adc5dea0000081565b3480156104e557600080fd5b506102716104f4366004611c33565b610d7c565b34801561050557600080fd5b50610271610514366004611c5d565b610e2c565b34801561052557600080fd5b50610539610534366004611b39565b61105f565b604051610248959493929190611cde565b34801561055657600080fd5b50610271610565366004611c11565b611125565b61057d610578366004611d1f565b61114e565b604051610248929190611d72565b34801561059757600080fd5b506102a9600a5481565b3480156105ad57600080fd5b506102a9600c5481565b3480156105c357600080fd5b506103316105d2366004611c11565b60046020526000908152604090205460ff1681565b3480156105f357600080fd5b50610271610602366004611dda565b61140d565b34801561061357600080fd5b506102a961012c81565b34801561062957600080fd5b50610271610638366004611c11565b611615565b34801561064957600080fd5b506102347f000000000000000000000000000000000000000000000000000000000000000081565b34801561067d57600080fd5b5061027161068c366004611c11565b611641565b34801561069d57600080fd5b506103316106ac366004611b39565b6116b7565b3480156106bd57600080fd5b506104746106cc366004611c11565b600260208190526000918252604090912080546001820154928201546003830154600490930154919392909160ff9091169085565b34801561070d57600080fd5b5061027161071c366004611c11565b6117b8565b6008818154811061073157600080fd5b6000918252602090912001546001600160a01b0316905081565b610753611861565b6001600160a01b03841660009081526002602052604090206003015460ff166107ba5760405162461bcd60e51b815260206004820152601460248201527356616c696461746f72206e6f742061637469766560601b60448201526064015b60405180910390fd5b6001600160a01b0384166000908152600260205260409020548311156108175760405162461bcd60e51b8152602060048201526012602482015271496e73756666696369656e74207374616b6560701b60448201526064016107b1565b6001600160a01b0384166000908152600260205260408120805485929061083f908490611e50565b9250508190555082600960008282546108589190611e50565b90915550506001600160a01b037f00000000000000000000000000000000000000000000000000000000000000001663a9059cbb61089e6001546001600160a01b031690565b6040516001600160e01b031960e084901b1681526001600160a01b039091166004820152602481018690526044016020604051808303816000875af11580156108eb573d6000803e3d6000fd5b505050506040513d601f19601f8201168201806040525081019061090f9190611e69565b6109535760405162461bcd60e51b815260206004820152601560248201527414db185cda081d1c985b9cd9995c8819985a5b1959605a1b60448201526064016107b1565b836001600160a01b03167f074c8604eab659bccd1619a91a9588244a2442723fdcb05af0aa39da9fc6865784848460405161099093929190611e8b565b60405180910390a250505050565b6109a6611861565b82600c60008282546109b89190611ec1565b90915550506040518381526001600160a01b038516907f82008955c1f672c84b2fe996c0406f63e62cbc406da87df13fd820e85e999c0690602001610990565b610a00611861565b610a086118bb565b565b610a12611861565b6000801b7fcdb58986ea578a80881d401a89cc90ce7c153a4e03e5e92b0fee1aaf950d31586064604051610a7d9181526040602082018190526019908201527f456d657267656e63792050617573652041637469766174656400000000000000606082015260800190565b60405180910390a2565b610a8f611910565b683635c9adc5dea00000811015610ae85760405162461bcd60e51b815260206004820152601960248201527f496e73756666696369656e74207374616b6520616d6f756e740000000000000060448201526064016107b1565b6040516323b872dd60e01b8152336004820152306024820152604481018290527f00000000000000000000000000000000000000000000000000000000000000006001600160a01b0316906323b872dd906064016020604051808303816000875af1158015610b5b573d6000803e3d6000fd5b505050506040513d601f19601f82011682018060405250810190610b7f9190611e69565b610bc35760405162461bcd60e51b815260206004820152601560248201527414dd185ad9481d1c985b9cd9995c8819985a5b1959605a1b60448201526064016107b1565b336000908152600260205260409020600381015460ff16610c315760088054600181810183556000929092527ff3f7a9fe364faab93b216da50a3214154f22a0a2b415b23a84c8169e8b636ee30180546001600160a01b0319163317905560038201805460ff191690911790555b81816000016000828254610c459190611ec1565b909155505042600482015560098054839190600090610c65908490611ec1565b909155505060405182815233907fbdf8f4c0feff7f456c5c1fd1c42716baa7ee66801a0b860872009ac945403fa09060200160405180910390a250610caa6001600055565b50565b610cb5611861565b610a086000611969565b610cc7611861565b610a086119bb565b6001600160a01b0381166000908152600260208181526040808420815160a0810183528154815260018201549381019390935292830154908201819052600383015460ff16151560608301526004909201546080820152829182918291829190610d3a576000610d59565b60408101516020820151610d4f906064611ed4565b610d599190611eeb565b815160208301516040840151606090940151919a90995092975095509350915050565b6006546001600160a01b03163314610da65760405162461bcd60e51b81526004016107b190611f0d565b6064811115610dc75760405162461bcd60e51b81526004016107b190611f56565b6001600160a01b03821660008181526005602090815260408083208590556007825291829020429055815184815233918101919091527f34d1df882137e1f3c8bbd3730afebde3ca5f8d8d6cf6aac8b86c0413f0645e80910160405180910390a25050565b3360009081526002602052604090206003015460ff16610e8e5760405162461bcd60e51b815260206004820152601760248201527f4e6f7420616e206163746976652076616c696461746f7200000000000000000060448201526064016107b1565b6064831115610eaf5760405162461bcd60e51b81526004016107b190611f56565b336000908152600260208190526040822001805491610ecd83611f82565b90915550503360009081526002602090815260409182902042600490910155815160a0810183528581528251601f8501839004830281018301909352838352605086119290918281019190869086908190840183828082843760009201829052509385525050336020808501919091524260408086019190915286151560609095019490945289835260038152929091208351815591830151600183019150610f76908261203a565b5060408201516002820180546001600160a01b0319166001600160a01b03909216919091179055606082015160038201556080909101516004909101805460ff1916911515919091179055801561101d57600b8054906000610fd783611f82565b9190505550847fcdb58986ea578a80881d401a89cc90ce7c153a4e03e5e92b0fee1aaf950d315885858560405161101093929190611e8b565b60405180910390a2611058565b847fdb913ccd3ed86ac6f449715949df229faaba0ec9e3fa4814c2bcb6866576d74d8560405161104f91815260200190565b60405180910390a25b5050505050565b6003602052600090815260409020805460018201805491929161108190611fb1565b80601f01602080910402602001604051908101604052809291908181526020018280546110ad90611fb1565b80156110fa5780601f106110cf576101008083540402835291602001916110fa565b820191906000526020600020905b8154815290600101906020018083116110dd57829003601f168201915b505050506002830154600384015460049094015492936001600160a01b039091169290915060ff1685565b61112d611861565b6001600160a01b03166000908152600460205260409020805460ff19169055565b6000606061116660015460ff600160a01b9091041690565b156111b35760405162461bcd60e51b815260206004820152601f60248201527f5472616e73616374696f6e47756172643a2053797374656d207061757365640060448201526064016107b1565b60003360003642433a6040516020016111d1969594939291906120fa565b6040516020818303038152906040528051906020012090506111f2816116b7565b6112585760405162461bcd60e51b815260206004820152603160248201527f5472616e73616374696f6e47756172643a205472616e73616374696f6e20626c6044820152701bd8dad95908189e48199a5c995dd85b1b607a1b60648201526084016107b1565b600a805490600061126883611f82565b90915550506001600160a01b0386166112b45760405162461bcd60e51b815260206004820152600e60248201526d125b9d985b1a59081d185c99d95d60921b60448201526064016107b1565b6001600160a01b03861660009081526004602052604090205460ff1615806112e057506112e0866119fe565b61132c5760405162461bcd60e51b815260206004820181905260248201527f54617267657420636f6e747261637420666c6167676564206173207269736b7960448201526064016107b1565b856001600160a01b0316348686604051611347929190612134565b60006040518083038185875af1925050503d8060008114611384576040519150601f19603f3d011682016040523d82523d6000602084013e611389565b606091505b5090935091508215611404576000338686426040516020016113ae9493929190612144565b604051602081830303815290604052805190602001209050807fdb913ccd3ed86ac6f449715949df229faaba0ec9e3fa4814c2bcb6866576d74d6113f189611a4a565b60405190815260200160405180910390a2505b50935093915050565b6006546001600160a01b031633146114375760405162461bcd60e51b81526004016107b190611f0d565b82811461147e5760405162461bcd60e51b8152602060048201526015602482015274082e4e4c2f240d8cadccee8d040dad2e6dac2e8c6d605b1b60448201526064016107b1565b60005b8381101561105857606483838381811061149d5761149d612171565b9050602002013511156114c25760405162461bcd60e51b81526004016107b190611f56565b8282828181106114d4576114d4612171565b90506020020135600560008787858181106114f1576114f1612171565b90506020020160208101906115069190611c11565b6001600160a01b03166001600160a01b0316815260200190815260200160002081905550426007600087878581811061154157611541612171565b90506020020160208101906115569190611c11565b6001600160a01b0316815260208101919091526040016000205584848281811061158257611582612171565b90506020020160208101906115979190611c11565b6001600160a01b03167f34d1df882137e1f3c8bbd3730afebde3ca5f8d8d6cf6aac8b86c0413f0645e808484848181106115d3576115d3612171565b90506020020135336040516115fb9291909182526001600160a01b0316602082015260400190565b60405180910390a28061160d81611f82565b915050611481565b61161d611861565b6001600160a01b03166000908152600460205260409020805460ff19166001179055565b611649611861565b6001600160a01b0381166116ae5760405162461bcd60e51b815260206004820152602660248201527f4f776e61626c653a206e6577206f776e657220697320746865207a65726f206160448201526564647265737360d01b60648201526084016107b1565b610caa81611969565b6000818152600360209081526040808320815160a08101909252805482526001810180548594840191906116ea90611fb1565b80601f016020809104026020016040519081016040528092919081815260200182805461171690611fb1565b80156117635780601f1061173857610100808354040283529160200191611763565b820191906000526020600020905b81548152906001019060200180831161174657829003601f168201915b505050918352505060028201546001600160a01b031660208201526003820154604082015260049091015460ff161515606091820152810151909150156117af57608001511592915050565b50600192915050565b6117c0611861565b6001600160a01b03811661180f5760405162461bcd60e51b8152602060048201526016602482015275496e76616c6964206f7261636c65206164647265737360501b60448201526064016107b1565b600680546001600160a01b038381166001600160a01b0319831681179093556040519116919082907f0723b74ef9285616467416d2414dd04b2664c538ef2d2bc73d734769e91d108f90600090a35050565b6001546001600160a01b03163314610a085760405162461bcd60e51b815260206004820181905260248201527f4f776e61626c653a2063616c6c6572206973206e6f7420746865206f776e657260448201526064016107b1565b6118c3611a9c565b6001805460ff60a01b191690557f5db9ee0a495bf2e6ff9c91a7834c1ba4fdd244a5e8aa4e537bd38aeae4b073aa335b6040516001600160a01b03909116815260200160405180910390a1565b6002600054036119625760405162461bcd60e51b815260206004820152601f60248201527f5265656e7472616e637947756172643a207265656e7472616e742063616c6c0060448201526064016107b1565b6002600055565b600180546001600160a01b038381166001600160a01b0319831681179093556040519116919082907f8be0079c531659141344cd1fd0a4f28419497f9722a3daafe3b4186f6b6457e090600090a35050565b6119c3611aec565b6001805460ff60a01b1916600160a01b1790557f62e78cea01bee320cd4e420270b5ea74000d11b0c9f74754ebdbfc544b05a2586118f33390565b6001600160a01b038116600090815260056020908152604080832054600790925282205461012c611a2f8242611e50565b1115611a3f575060019392505050565b506050101592915050565b6001600160a01b03811660009081526007602052604081205461012c611a708242611e50565b1115611a7f5750603292915050565b50506001600160a01b031660009081526005602052604090205490565b600154600160a01b900460ff16610a085760405162461bcd60e51b815260206004820152601460248201527314185d5cd8589b194e881b9bdd081c185d5cd95960621b60448201526064016107b1565b600154600160a01b900460ff1615610a085760405162461bcd60e51b815260206004820152601060248201526f14185d5cd8589b194e881c185d5cd95960821b60448201526064016107b1565b600060208284031215611b4b57600080fd5b5035919050565b80356001600160a01b0381168114611b6957600080fd5b919050565b60008083601f840112611b8057600080fd5b50813567ffffffffffffffff811115611b9857600080fd5b602083019150836020828501011115611bb057600080fd5b9250929050565b60008060008060608587031215611bcd57600080fd5b611bd685611b52565b935060208501359250604085013567ffffffffffffffff811115611bf957600080fd5b611c0587828801611b6e565b95989497509550505050565b600060208284031215611c2357600080fd5b611c2c82611b52565b9392505050565b60008060408385031215611c4657600080fd5b611c4f83611b52565b946020939093013593505050565b60008060008060608587031215611c7357600080fd5b8435935060208501359250604085013567ffffffffffffffff811115611bf957600080fd5b6000815180845260005b81811015611cbe57602081850181015186830182015201611ca2565b506000602082860101526020601f19601f83011685010191505092915050565b85815260a060208201526000611cf760a0830187611c98565b6001600160a01b03959095166040830152506060810192909252151560809091015292915050565b600080600060408486031215611d3457600080fd5b611d3d84611b52565b9250602084013567ffffffffffffffff811115611d5957600080fd5b611d6586828701611b6e565b9497909650939450505050565b8215158152604060208201526000611d8d6040830184611c98565b949350505050565b60008083601f840112611da757600080fd5b50813567ffffffffffffffff811115611dbf57600080fd5b6020830191508360208260051b8501011115611bb057600080fd5b60008060008060408587031215611df057600080fd5b843567ffffffffffffffff80821115611e0857600080fd5b611e1488838901611d95565b90965094506020870135915080821115611e2d57600080fd5b50611c0587828801611d95565b634e487b7160e01b600052601160045260246000fd5b81810381811115611e6357611e63611e3a565b92915050565b600060208284031215611e7b57600080fd5b81518015158114611c2c57600080fd5b83815260406020820152816040820152818360608301376000818301606090810191909152601f909201601f1916010192915050565b80820180821115611e6357611e63611e3a565b8082028115828204841417611e6357611e63611e3a565b600082611f0857634e487b7160e01b600052601260045260246000fd5b500490565b60208082526029908201527f4f6e6c7920617574686f72697a6564206261636b656e642063616e207570646160408201526874652073636f72657360b81b606082015260800190565b602080825260129082015271496e76616c6964207269736b2073636f726560701b604082015260600190565b600060018201611f9457611f94611e3a565b5060010190565b634e487b7160e01b600052604160045260246000fd5b600181811c90821680611fc557607f821691505b602082108103611fe557634e487b7160e01b600052602260045260246000fd5b50919050565b601f82111561203557600081815260208120601f850160051c810160208610156120125750805b601f850160051c820191505b818110156120315782815560010161201e565b5050505b505050565b815167ffffffffffffffff81111561205457612054611f9b565b612068816120628454611fb1565b84611feb565b602080601f83116001811461209d57600084156120855750858301515b600019600386901b1c1916600185901b178555612031565b600085815260208120601f198616915b828110156120cc578886015182559484019460019091019084016120ad565b50858210156120ea5787850151600019600388901b60f8161c191681555b5050505050600190811b01905550565b6bffffffffffffffffffffffff198760601b1681528486601483013760149401938401929092526034830152605482015260740192915050565b8183823760009101908152919050565b6bffffffffffffffffffffffff198560601b16815282846014830137601492019182015260340192915050565b634e487b7160e01b600052603260045260246000fdfea2646970667358221220d0aa5e083af6775c1caad85044aad73f0c6d20db4ce2efaef3186644193e860864736f6c63430008130033",
  "linkReferences": {},
  "deployedLinkReferences": {}
}